{
	"breeding-nft-usecase/contracts/breedingWith6551/TbaAccount.sol": {
		"Account": {
			"abi": [
				{
					"anonymous": false,
					"inputs": [
						{
							"indexed": true,
							"internalType": "address",
							"name": "target",
							"type": "address"
						},
						{
							"indexed": true,
							"internalType": "uint256",
							"name": "value",
							"type": "uint256"
						},
						{
							"indexed": false,
							"internalType": "bytes",
							"name": "data",
							"type": "bytes"
						}
					],
					"name": "TransactionExecuted",
					"type": "event"
				},
				{
					"inputs": [
						{
							"internalType": "address",
							"name": "spender",
							"type": "address"
						},
						{
							"internalType": "uint256",
							"name": "amount",
							"type": "uint256"
						},
						{
							"internalType": "address",
							"name": "contractAddress",
							"type": "address"
						}
					],
					"name": "approve20",
					"outputs": [
						{
							"internalType": "bool",
							"name": "",
							"type": "bool"
						}
					],
					"stateMutability": "nonpayable",
					"type": "function"
				},
				{
					"inputs": [
						{
							"internalType": "address",
							"name": "to",
							"type": "address"
						},
						{
							"internalType": "uint256",
							"name": "tokenId",
							"type": "uint256"
						},
						{
							"internalType": "address",
							"name": "contractAddress",
							"type": "address"
						}
					],
					"name": "approve721",
					"outputs": [],
					"stateMutability": "nonpayable",
					"type": "function"
				},
				{
					"inputs": [
						{
							"internalType": "address",
							"name": "to",
							"type": "address"
						},
						{
							"internalType": "uint256",
							"name": "value",
							"type": "uint256"
						},
						{
							"internalType": "bytes",
							"name": "data",
							"type": "bytes"
						}
					],
					"name": "executeCall",
					"outputs": [
						{
							"internalType": "bytes",
							"name": "result",
							"type": "bytes"
						}
					],
					"stateMutability": "payable",
					"type": "function"
				},
				{
					"inputs": [
						{
							"internalType": "bytes32",
							"name": "hash",
							"type": "bytes32"
						},
						{
							"internalType": "bytes",
							"name": "signature",
							"type": "bytes"
						}
					],
					"name": "isValidSignature",
					"outputs": [
						{
							"internalType": "bytes4",
							"name": "magicValue",
							"type": "bytes4"
						}
					],
					"stateMutability": "view",
					"type": "function"
				},
				{
					"inputs": [],
					"name": "nonce",
					"outputs": [
						{
							"internalType": "uint256",
							"name": "",
							"type": "uint256"
						}
					],
					"stateMutability": "view",
					"type": "function"
				},
				{
					"inputs": [],
					"name": "owner",
					"outputs": [
						{
							"internalType": "address",
							"name": "",
							"type": "address"
						}
					],
					"stateMutability": "view",
					"type": "function"
				},
				{
					"inputs": [
						{
							"internalType": "address",
							"name": "from",
							"type": "address"
						},
						{
							"internalType": "address",
							"name": "to",
							"type": "address"
						},
						{
							"internalType": "uint256",
							"name": "tokenId",
							"type": "uint256"
						},
						{
							"internalType": "address",
							"name": "contractAddress",
							"type": "address"
						}
					],
					"name": "safeTransferFrom721",
					"outputs": [],
					"stateMutability": "nonpayable",
					"type": "function"
				},
				{
					"inputs": [
						{
							"internalType": "address",
							"name": "operator",
							"type": "address"
						},
						{
							"internalType": "bool",
							"name": "approved",
							"type": "bool"
						},
						{
							"internalType": "address",
							"name": "contractAddress",
							"type": "address"
						}
					],
					"name": "setApprovalForAll721",
					"outputs": [],
					"stateMutability": "nonpayable",
					"type": "function"
				},
				{
					"inputs": [
						{
							"internalType": "bytes4",
							"name": "interfaceId",
							"type": "bytes4"
						}
					],
					"name": "supportsInterface",
					"outputs": [
						{
							"internalType": "bool",
							"name": "",
							"type": "bool"
						}
					],
					"stateMutability": "pure",
					"type": "function"
				},
				{
					"inputs": [],
					"name": "token",
					"outputs": [
						{
							"internalType": "uint256",
							"name": "",
							"type": "uint256"
						},
						{
							"internalType": "address",
							"name": "",
							"type": "address"
						},
						{
							"internalType": "uint256",
							"name": "",
							"type": "uint256"
						}
					],
					"stateMutability": "view",
					"type": "function"
				},
				{
					"inputs": [
						{
							"internalType": "address",
							"name": "to",
							"type": "address"
						},
						{
							"internalType": "uint256",
							"name": "amount",
							"type": "uint256"
						},
						{
							"internalType": "address",
							"name": "contractAddress",
							"type": "address"
						}
					],
					"name": "transfer20",
					"outputs": [
						{
							"internalType": "bool",
							"name": "",
							"type": "bool"
						}
					],
					"stateMutability": "nonpayable",
					"type": "function"
				},
				{
					"inputs": [
						{
							"internalType": "address",
							"name": "from",
							"type": "address"
						},
						{
							"internalType": "address",
							"name": "to",
							"type": "address"
						},
						{
							"internalType": "uint256",
							"name": "amount",
							"type": "uint256"
						},
						{
							"internalType": "address",
							"name": "contractAddress",
							"type": "address"
						}
					],
					"name": "transferFrom20",
					"outputs": [
						{
							"internalType": "bool",
							"name": "",
							"type": "bool"
						}
					],
					"stateMutability": "nonpayable",
					"type": "function"
				},
				{
					"inputs": [
						{
							"internalType": "address",
							"name": "from",
							"type": "address"
						},
						{
							"internalType": "address",
							"name": "to",
							"type": "address"
						},
						{
							"internalType": "uint256",
							"name": "tokenId",
							"type": "uint256"
						},
						{
							"internalType": "address",
							"name": "contractAddress",
							"type": "address"
						}
					],
					"name": "transferFrom721",
					"outputs": [],
					"stateMutability": "nonpayable",
					"type": "function"
				},
				{
					"stateMutability": "payable",
					"type": "receive"
				}
			],
			"devdoc": {
				"kind": "dev",
				"methods": {
					"isValidSignature(bytes32,bytes)": {
						"details": "Should return whether the signature provided is valid for the provided data",
						"params": {
							"hash": "Hash of the data to be signed",
							"signature": "Signature byte array associated with _data"
						}
					},
					"supportsInterface(bytes4)": {
						"details": "Returns true if this contract implements the interface defined by `interfaceId`. See the corresponding https://eips.ethereum.org/EIPS/eip-165#how-interfaces-are-identified[EIP section] to learn more about how these ids are created. This function call must use less than 30 000 gas."
					}
				},
				"version": 1
			},
			"evm": {
				"assembly": "    /* \"breeding-nft-usecase/contracts/breedingWith6551/TbaAccount.sol\":671:4182  contract Account is IERC165, IERC1271, IERC6551Account {... */\n  mstore(0x40, 0x80)\n  callvalue\n  dup1\n  iszero\n  tag_1\n  jumpi\n  0x00\n  dup1\n  revert\ntag_1:\n  pop\n  dataSize(sub_0)\n  dup1\n  dataOffset(sub_0)\n  0x00\n  codecopy\n  0x00\n  return\nstop\n\nsub_0: assembly {\n        /* \"breeding-nft-usecase/contracts/breedingWith6551/TbaAccount.sol\":671:4182  contract Account is IERC165, IERC1271, IERC6551Account {... */\n      mstore(0x40, 0x80)\n      jumpi(tag_1, lt(calldatasize, 0x04))\n      shr(0xe0, calldataload(0x00))\n      dup1\n      0x8da5cb5b\n      gt\n      tag_16\n      jumpi\n      dup1\n      0xa127f00c\n      gt\n      tag_17\n      jumpi\n      dup1\n      0xa127f00c\n      eq\n      tag_12\n      jumpi\n      dup1\n      0xaffed0e0\n      eq\n      tag_13\n      jumpi\n      dup1\n      0xedf2e40b\n      eq\n      tag_14\n      jumpi\n      dup1\n      0xfc0c546a\n      eq\n      tag_15\n      jumpi\n      jump(tag_2)\n    tag_17:\n      dup1\n      0x8da5cb5b\n      eq\n      tag_9\n      jumpi\n      dup1\n      0x954d4b8b\n      eq\n      tag_10\n      jumpi\n      dup1\n      0x9e5d4c49\n      eq\n      tag_11\n      jumpi\n      jump(tag_2)\n    tag_16:\n      dup1\n      0x01ffc9a7\n      eq\n      tag_3\n      jumpi\n      dup1\n      0x08c22568\n      eq\n      tag_4\n      jumpi\n      dup1\n      0x1626ba7e\n      eq\n      tag_5\n      jumpi\n      dup1\n      0x4e51f2d9\n      eq\n      tag_6\n      jumpi\n      dup1\n      0x5f017832\n      eq\n      tag_7\n      jumpi\n      dup1\n      0x80348fc9\n      eq\n      tag_8\n      jumpi\n      jump(tag_2)\n    tag_1:\n      jumpi(tag_2, calldatasize)\n      stop\n    tag_2:\n      0x00\n      dup1\n      revert\n        /* \"breeding-nft-usecase/contracts/breedingWith6551/TbaAccount.sol\":1680:1884  function supportsInterface(bytes4 interfaceId) public pure returns (bool) {... */\n    tag_3:\n      callvalue\n      dup1\n      iszero\n      tag_20\n      jumpi\n      0x00\n      dup1\n      revert\n    tag_20:\n      pop\n      tag_21\n      0x04\n      dup1\n      calldatasize\n      sub\n      dup2\n      add\n      swap1\n      tag_22\n      swap2\n      swap1\n      tag_23\n      jump\t// in\n    tag_22:\n      tag_24\n      jump\t// in\n    tag_21:\n      mload(0x40)\n      tag_25\n      swap2\n      swap1\n      tag_26\n      jump\t// in\n    tag_25:\n      mload(0x40)\n      dup1\n      swap2\n      sub\n      swap1\n      return\n        /* \"breeding-nft-usecase/contracts/breedingWith6551/TbaAccount.sol\":3092:3362  function setApprovalForAll721(... */\n    tag_4:\n      callvalue\n      dup1\n      iszero\n      tag_27\n      jumpi\n      0x00\n      dup1\n      revert\n    tag_27:\n      pop\n      tag_28\n      0x04\n      dup1\n      calldatasize\n      sub\n      dup2\n      add\n      swap1\n      tag_29\n      swap2\n      swap1\n      tag_30\n      jump\t// in\n    tag_29:\n      tag_31\n      jump\t// in\n    tag_28:\n      stop\n        /* \"breeding-nft-usecase/contracts/breedingWith6551/TbaAccount.sol\":1890:2267  function isValidSignature(... */\n    tag_5:\n      callvalue\n      dup1\n      iszero\n      tag_32\n      jumpi\n      0x00\n      dup1\n      revert\n    tag_32:\n      pop\n      tag_33\n      0x04\n      dup1\n      calldatasize\n      sub\n      dup2\n      add\n      swap1\n      tag_34\n      swap2\n      swap1\n      tag_35\n      jump\t// in\n    tag_34:\n      tag_36\n      jump\t// in\n    tag_33:\n      mload(0x40)\n      tag_37\n      swap2\n      swap1\n      tag_38\n      jump\t// in\n    tag_37:\n      mload(0x40)\n      dup1\n      swap2\n      sub\n      swap1\n      return\n        /* \"breeding-nft-usecase/contracts/breedingWith6551/TbaAccount.sol\":3928:4180  function transfer20(... */\n    tag_6:\n      callvalue\n      dup1\n      iszero\n      tag_39\n      jumpi\n      0x00\n      dup1\n      revert\n    tag_39:\n      pop\n      tag_40\n      0x04\n      dup1\n      calldatasize\n      sub\n      dup2\n      add\n      swap1\n      tag_41\n      swap2\n      swap1\n      tag_42\n      jump\t// in\n    tag_41:\n      tag_43\n      jump\t// in\n    tag_40:\n      mload(0x40)\n      tag_44\n      swap2\n      swap1\n      tag_26\n      jump\t// in\n    tag_44:\n      mload(0x40)\n      dup1\n      swap2\n      sub\n      swap1\n      return\n        /* \"breeding-nft-usecase/contracts/breedingWith6551/TbaAccount.sol\":3368:3628  function approve20(... */\n    tag_7:\n      callvalue\n      dup1\n      iszero\n      tag_45\n      jumpi\n      0x00\n      dup1\n      revert\n    tag_45:\n      pop\n      tag_46\n      0x04\n      dup1\n      calldatasize\n      sub\n      dup2\n      add\n      swap1\n      tag_47\n      swap2\n      swap1\n      tag_42\n      jump\t// in\n    tag_47:\n      tag_48\n      jump\t// in\n    tag_46:\n      mload(0x40)\n      tag_49\n      swap2\n      swap1\n      tag_26\n      jump\t// in\n    tag_49:\n      mload(0x40)\n      dup1\n      swap2\n      sub\n      swap1\n      return\n        /* \"breeding-nft-usecase/contracts/breedingWith6551/TbaAccount.sol\":2564:2841  function transferFrom721(... */\n    tag_8:\n      callvalue\n      dup1\n      iszero\n      tag_50\n      jumpi\n      0x00\n      dup1\n      revert\n    tag_50:\n      pop\n      tag_51\n      0x04\n      dup1\n      calldatasize\n      sub\n      dup2\n      add\n      swap1\n      tag_52\n      swap2\n      swap1\n      tag_53\n      jump\t// in\n    tag_52:\n      tag_54\n      jump\t// in\n    tag_51:\n      stop\n        /* \"breeding-nft-usecase/contracts/breedingWith6551/TbaAccount.sol\":1411:1674  function owner() public view returns (address) {... */\n    tag_9:\n      callvalue\n      dup1\n      iszero\n      tag_55\n      jumpi\n      0x00\n      dup1\n      revert\n    tag_55:\n      pop\n      tag_56\n      tag_57\n      jump\t// in\n    tag_56:\n      mload(0x40)\n      tag_58\n      swap2\n      swap1\n      tag_59\n      jump\t// in\n    tag_58:\n      mload(0x40)\n      dup1\n      swap2\n      sub\n      swap1\n      return\n        /* \"breeding-nft-usecase/contracts/breedingWith6551/TbaAccount.sol\":2847:3086  function approve721(... */\n    tag_10:\n      callvalue\n      dup1\n      iszero\n      tag_60\n      jumpi\n      0x00\n      dup1\n      revert\n    tag_60:\n      pop\n      tag_61\n      0x04\n      dup1\n      calldatasize\n      sub\n      dup2\n      add\n      swap1\n      tag_62\n      swap2\n      swap1\n      tag_42\n      jump\t// in\n    tag_62:\n      tag_63\n      jump\t// in\n    tag_61:\n      stop\n        /* \"breeding-nft-usecase/contracts/breedingWith6551/TbaAccount.sol\":794:1283  function executeCall(... */\n    tag_11:\n      tag_64\n      0x04\n      dup1\n      calldatasize\n      sub\n      dup2\n      add\n      swap1\n      tag_65\n      swap2\n      swap1\n      tag_66\n      jump\t// in\n    tag_65:\n      tag_67\n      jump\t// in\n    tag_64:\n      mload(0x40)\n      tag_68\n      swap2\n      swap1\n      tag_69\n      jump\t// in\n    tag_68:\n      mload(0x40)\n      dup1\n      swap2\n      sub\n      swap1\n      return\n        /* \"breeding-nft-usecase/contracts/breedingWith6551/TbaAccount.sol\":3634:3922  function transferFrom20(... */\n    tag_12:\n      callvalue\n      dup1\n      iszero\n      tag_70\n      jumpi\n      0x00\n      dup1\n      revert\n    tag_70:\n      pop\n      tag_71\n      0x04\n      dup1\n      calldatasize\n      sub\n      dup2\n      add\n      swap1\n      tag_72\n      swap2\n      swap1\n      tag_53\n      jump\t// in\n    tag_72:\n      tag_73\n      jump\t// in\n    tag_71:\n      mload(0x40)\n      tag_74\n      swap2\n      swap1\n      tag_26\n      jump\t// in\n    tag_74:\n      mload(0x40)\n      dup1\n      swap2\n      sub\n      swap1\n      return\n        /* \"breeding-nft-usecase/contracts/breedingWith6551/TbaAccount.sol\":732:752  uint256 public nonce */\n    tag_13:\n      callvalue\n      dup1\n      iszero\n      tag_75\n      jumpi\n      0x00\n      dup1\n      revert\n    tag_75:\n      pop\n      tag_76\n      tag_77\n      jump\t// in\n    tag_76:\n      mload(0x40)\n      tag_78\n      swap2\n      swap1\n      tag_79\n      jump\t// in\n    tag_78:\n      mload(0x40)\n      dup1\n      swap2\n      sub\n      swap1\n      return\n        /* \"breeding-nft-usecase/contracts/breedingWith6551/TbaAccount.sol\":2273:2558  function safeTransferFrom721(... */\n    tag_14:\n      callvalue\n      dup1\n      iszero\n      tag_80\n      jumpi\n      0x00\n      dup1\n      revert\n    tag_80:\n      pop\n      tag_81\n      0x04\n      dup1\n      calldatasize\n      sub\n      dup2\n      add\n      swap1\n      tag_82\n      swap2\n      swap1\n      tag_53\n      jump\t// in\n    tag_82:\n      tag_83\n      jump\t// in\n    tag_81:\n      stop\n        /* \"breeding-nft-usecase/contracts/breedingWith6551/TbaAccount.sol\":1289:1405  function token() external view returns (uint256, address, uint256) {... */\n    tag_15:\n      callvalue\n      dup1\n      iszero\n      tag_84\n      jumpi\n      0x00\n      dup1\n      revert\n    tag_84:\n      pop\n      tag_85\n      tag_86\n      jump\t// in\n    tag_85:\n      mload(0x40)\n      tag_87\n      swap4\n      swap3\n      swap2\n      swap1\n      tag_88\n      jump\t// in\n    tag_87:\n      mload(0x40)\n      dup1\n      swap2\n      sub\n      swap1\n      return\n        /* \"breeding-nft-usecase/contracts/breedingWith6551/TbaAccount.sol\":1680:1884  function supportsInterface(bytes4 interfaceId) public pure returns (bool) {... */\n    tag_24:\n        /* \"breeding-nft-usecase/contracts/breedingWith6551/TbaAccount.sol\":1748:1752  bool */\n      0x00\n        /* \"breeding-nft-usecase/contracts/breedingWith6551/TbaAccount.sol\":1787:1812  type(IERC165).interfaceId */\n      0x01ffc9a700000000000000000000000000000000000000000000000000000000\n        /* \"breeding-nft-usecase/contracts/breedingWith6551/TbaAccount.sol\":1772:1812  interfaceId == type(IERC165).interfaceId */\n      not(0xffffffffffffffffffffffffffffffffffffffffffffffffffffffff)\n      and\n        /* \"breeding-nft-usecase/contracts/breedingWith6551/TbaAccount.sol\":1772:1783  interfaceId */\n      dup3\n        /* \"breeding-nft-usecase/contracts/breedingWith6551/TbaAccount.sol\":1772:1812  interfaceId == type(IERC165).interfaceId */\n      not(0xffffffffffffffffffffffffffffffffffffffffffffffffffffffff)\n      and\n      eq\n        /* \"breeding-nft-usecase/contracts/breedingWith6551/TbaAccount.sol\":1772:1876  interfaceId == type(IERC165).interfaceId ||... */\n      dup1\n      tag_90\n      jumpi\n      pop\n        /* \"breeding-nft-usecase/contracts/breedingWith6551/TbaAccount.sol\":1843:1876  type(IERC6551Account).interfaceId */\n      0x400a039800000000000000000000000000000000000000000000000000000000\n        /* \"breeding-nft-usecase/contracts/breedingWith6551/TbaAccount.sol\":1828:1876  interfaceId == type(IERC6551Account).interfaceId */\n      not(0xffffffffffffffffffffffffffffffffffffffffffffffffffffffff)\n      and\n        /* \"breeding-nft-usecase/contracts/breedingWith6551/TbaAccount.sol\":1828:1839  interfaceId */\n      dup3\n        /* \"breeding-nft-usecase/contracts/breedingWith6551/TbaAccount.sol\":1828:1876  interfaceId == type(IERC6551Account).interfaceId */\n      not(0xffffffffffffffffffffffffffffffffffffffffffffffffffffffff)\n      and\n      eq\n        /* \"breeding-nft-usecase/contracts/breedingWith6551/TbaAccount.sol\":1772:1876  interfaceId == type(IERC165).interfaceId ||... */\n    tag_90:\n        /* \"breeding-nft-usecase/contracts/breedingWith6551/TbaAccount.sol\":1764:1877  return (interfaceId == type(IERC165).interfaceId ||... */\n      swap1\n      pop\n        /* \"breeding-nft-usecase/contracts/breedingWith6551/TbaAccount.sol\":1680:1884  function supportsInterface(bytes4 interfaceId) public pure returns (bool) {... */\n      swap2\n      swap1\n      pop\n      jump\t// out\n        /* \"breeding-nft-usecase/contracts/breedingWith6551/TbaAccount.sol\":3092:3362  function setApprovalForAll721(... */\n    tag_31:\n        /* \"breeding-nft-usecase/contracts/breedingWith6551/TbaAccount.sol\":3249:3256  owner() */\n      tag_92\n        /* \"breeding-nft-usecase/contracts/breedingWith6551/TbaAccount.sol\":3249:3254  owner */\n      tag_57\n        /* \"breeding-nft-usecase/contracts/breedingWith6551/TbaAccount.sol\":3249:3256  owner() */\n      jump\t// in\n    tag_92:\n        /* \"breeding-nft-usecase/contracts/breedingWith6551/TbaAccount.sol\":3235:3256  msg.sender == owner() */\n      0xffffffffffffffffffffffffffffffffffffffff\n      and\n        /* \"breeding-nft-usecase/contracts/breedingWith6551/TbaAccount.sol\":3235:3245  msg.sender */\n      caller\n        /* \"breeding-nft-usecase/contracts/breedingWith6551/TbaAccount.sol\":3235:3256  msg.sender == owner() */\n      0xffffffffffffffffffffffffffffffffffffffff\n      and\n      eq\n        /* \"breeding-nft-usecase/contracts/breedingWith6551/TbaAccount.sol\":3227:3276  require(msg.sender == owner(), \"Not token owner\") */\n      tag_93\n      jumpi\n      mload(0x40)\n      0x08c379a000000000000000000000000000000000000000000000000000000000\n      dup2\n      mstore\n      0x04\n      add\n      tag_94\n      swap1\n      tag_95\n      jump\t// in\n    tag_94:\n      mload(0x40)\n      dup1\n      swap2\n      sub\n      swap1\n      revert\n    tag_93:\n        /* \"breeding-nft-usecase/contracts/breedingWith6551/TbaAccount.sol\":3301:3316  contractAddress */\n      dup1\n        /* \"breeding-nft-usecase/contracts/breedingWith6551/TbaAccount.sol\":3293:3335  IERC721(contractAddress).setApprovalForAll */\n      0xffffffffffffffffffffffffffffffffffffffff\n      and\n      0xa22cb465\n        /* \"breeding-nft-usecase/contracts/breedingWith6551/TbaAccount.sol\":3336:3344  operator */\n      dup5\n        /* \"breeding-nft-usecase/contracts/breedingWith6551/TbaAccount.sol\":3346:3354  approved */\n      dup5\n        /* \"breeding-nft-usecase/contracts/breedingWith6551/TbaAccount.sol\":3293:3355  IERC721(contractAddress).setApprovalForAll(operator, approved) */\n      mload(0x40)\n      dup4\n      0xffffffff\n      and\n      0xe0\n      shl\n      dup2\n      mstore\n      0x04\n      add\n      tag_96\n      swap3\n      swap2\n      swap1\n      tag_97\n      jump\t// in\n    tag_96:\n      0x00\n      mload(0x40)\n      dup1\n      dup4\n      sub\n      dup2\n      0x00\n      dup8\n      dup1\n      extcodesize\n      iszero\n      dup1\n      iszero\n      tag_98\n      jumpi\n      0x00\n      dup1\n      revert\n    tag_98:\n      pop\n      gas\n      call\n      iszero\n      dup1\n      iszero\n      tag_100\n      jumpi\n      returndatasize\n      0x00\n      dup1\n      returndatacopy\n      revert(0x00, returndatasize)\n    tag_100:\n      pop\n      pop\n      pop\n      pop\n        /* \"breeding-nft-usecase/contracts/breedingWith6551/TbaAccount.sol\":3092:3362  function setApprovalForAll721(... */\n      pop\n      pop\n      pop\n      jump\t// out\n        /* \"breeding-nft-usecase/contracts/breedingWith6551/TbaAccount.sol\":1890:2267  function isValidSignature(... */\n    tag_36:\n        /* \"breeding-nft-usecase/contracts/breedingWith6551/TbaAccount.sol\":1999:2016  bytes4 magicValue */\n      0x00\n        /* \"breeding-nft-usecase/contracts/breedingWith6551/TbaAccount.sol\":2028:2040  bool isValid */\n      dup1\n        /* \"breeding-nft-usecase/contracts/breedingWith6551/TbaAccount.sol\":2043:2151  SignatureChecker.isValidSignatureNow(... */\n      tag_102\n        /* \"breeding-nft-usecase/contracts/breedingWith6551/TbaAccount.sol\":2093:2100  owner() */\n      tag_103\n        /* \"breeding-nft-usecase/contracts/breedingWith6551/TbaAccount.sol\":2093:2098  owner */\n      tag_57\n        /* \"breeding-nft-usecase/contracts/breedingWith6551/TbaAccount.sol\":2093:2100  owner() */\n      jump\t// in\n    tag_103:\n        /* \"breeding-nft-usecase/contracts/breedingWith6551/TbaAccount.sol\":2114:2118  hash */\n      dup6\n        /* \"breeding-nft-usecase/contracts/breedingWith6551/TbaAccount.sol\":2132:2141  signature */\n      dup6\n        /* \"breeding-nft-usecase/contracts/breedingWith6551/TbaAccount.sol\":2043:2079  SignatureChecker.isValidSignatureNow */\n      tag_104\n        /* \"breeding-nft-usecase/contracts/breedingWith6551/TbaAccount.sol\":2043:2151  SignatureChecker.isValidSignatureNow(... */\n      jump\t// in\n    tag_102:\n        /* \"breeding-nft-usecase/contracts/breedingWith6551/TbaAccount.sol\":2028:2151  bool isValid = SignatureChecker.isValidSignatureNow(... */\n      swap1\n      pop\n        /* \"breeding-nft-usecase/contracts/breedingWith6551/TbaAccount.sol\":2166:2173  isValid */\n      dup1\n        /* \"breeding-nft-usecase/contracts/breedingWith6551/TbaAccount.sol\":2162:2241  if (isValid) {... */\n      iszero\n      tag_105\n      jumpi\n        /* \"breeding-nft-usecase/contracts/breedingWith6551/TbaAccount.sol\":2196:2230  IERC1271.isValidSignature.selector */\n      shl(0xe0, 0x1626ba7e)\n        /* \"breeding-nft-usecase/contracts/breedingWith6551/TbaAccount.sol\":2189:2230  return IERC1271.isValidSignature.selector */\n      swap2\n      pop\n      pop\n      jump(tag_101)\n        /* \"breeding-nft-usecase/contracts/breedingWith6551/TbaAccount.sol\":2162:2241  if (isValid) {... */\n    tag_105:\n        /* \"breeding-nft-usecase/contracts/breedingWith6551/TbaAccount.sol\":2251:2260  return \"\" */\n      0x00\n      swap2\n      pop\n      pop\n        /* \"breeding-nft-usecase/contracts/breedingWith6551/TbaAccount.sol\":1890:2267  function isValidSignature(... */\n    tag_101:\n      swap3\n      swap2\n      pop\n      pop\n      jump\t// out\n        /* \"breeding-nft-usecase/contracts/breedingWith6551/TbaAccount.sol\":3928:4180  function transfer20(... */\n    tag_43:\n        /* \"breeding-nft-usecase/contracts/breedingWith6551/TbaAccount.sol\":4047:4051  bool */\n      0x00\n        /* \"breeding-nft-usecase/contracts/breedingWith6551/TbaAccount.sol\":4085:4092  owner() */\n      tag_107\n        /* \"breeding-nft-usecase/contracts/breedingWith6551/TbaAccount.sol\":4085:4090  owner */\n      tag_57\n        /* \"breeding-nft-usecase/contracts/breedingWith6551/TbaAccount.sol\":4085:4092  owner() */\n      jump\t// in\n    tag_107:\n        /* \"breeding-nft-usecase/contracts/breedingWith6551/TbaAccount.sol\":4071:4092  msg.sender == owner() */\n      0xffffffffffffffffffffffffffffffffffffffff\n      and\n        /* \"breeding-nft-usecase/contracts/breedingWith6551/TbaAccount.sol\":4071:4081  msg.sender */\n      caller\n        /* \"breeding-nft-usecase/contracts/breedingWith6551/TbaAccount.sol\":4071:4092  msg.sender == owner() */\n      0xffffffffffffffffffffffffffffffffffffffff\n      and\n      eq\n        /* \"breeding-nft-usecase/contracts/breedingWith6551/TbaAccount.sol\":4063:4112  require(msg.sender == owner(), \"Not token owner\") */\n      tag_108\n      jumpi\n      mload(0x40)\n      0x08c379a000000000000000000000000000000000000000000000000000000000\n      dup2\n      mstore\n      0x04\n      add\n      tag_109\n      swap1\n      tag_95\n      jump\t// in\n    tag_109:\n      mload(0x40)\n      dup1\n      swap2\n      sub\n      swap1\n      revert\n    tag_108:\n        /* \"breeding-nft-usecase/contracts/breedingWith6551/TbaAccount.sol\":4136:4151  contractAddress */\n      dup2\n        /* \"breeding-nft-usecase/contracts/breedingWith6551/TbaAccount.sol\":4129:4161  IERC20(contractAddress).transfer */\n      0xffffffffffffffffffffffffffffffffffffffff\n      and\n      0xa9059cbb\n        /* \"breeding-nft-usecase/contracts/breedingWith6551/TbaAccount.sol\":4162:4164  to */\n      dup6\n        /* \"breeding-nft-usecase/contracts/breedingWith6551/TbaAccount.sol\":4166:4172  amount */\n      dup6\n        /* \"breeding-nft-usecase/contracts/breedingWith6551/TbaAccount.sol\":4129:4173  IERC20(contractAddress).transfer(to, amount) */\n      mload(0x40)\n      dup4\n      0xffffffff\n      and\n      0xe0\n      shl\n      dup2\n      mstore\n      0x04\n      add\n      tag_110\n      swap3\n      swap2\n      swap1\n      tag_111\n      jump\t// in\n    tag_110:\n      0x20\n      mload(0x40)\n      dup1\n      dup4\n      sub\n      dup2\n      0x00\n      dup8\n      gas\n      call\n      iszero\n      dup1\n      iszero\n      tag_113\n      jumpi\n      returndatasize\n      0x00\n      dup1\n      returndatacopy\n      revert(0x00, returndatasize)\n    tag_113:\n      pop\n      pop\n      pop\n      pop\n      mload(0x40)\n      returndatasize\n      not(0x1f)\n      0x1f\n      dup3\n      add\n      and\n      dup3\n      add\n      dup1\n      0x40\n      mstore\n      pop\n      dup2\n      add\n      swap1\n      tag_114\n      swap2\n      swap1\n      tag_115\n      jump\t// in\n    tag_114:\n        /* \"breeding-nft-usecase/contracts/breedingWith6551/TbaAccount.sol\":4122:4173  return IERC20(contractAddress).transfer(to, amount) */\n      swap1\n      pop\n        /* \"breeding-nft-usecase/contracts/breedingWith6551/TbaAccount.sol\":3928:4180  function transfer20(... */\n      swap4\n      swap3\n      pop\n      pop\n      pop\n      jump\t// out\n        /* \"breeding-nft-usecase/contracts/breedingWith6551/TbaAccount.sol\":3368:3628  function approve20(... */\n    tag_48:\n        /* \"breeding-nft-usecase/contracts/breedingWith6551/TbaAccount.sol\":3491:3495  bool */\n      0x00\n        /* \"breeding-nft-usecase/contracts/breedingWith6551/TbaAccount.sol\":3529:3536  owner() */\n      tag_117\n        /* \"breeding-nft-usecase/contracts/breedingWith6551/TbaAccount.sol\":3529:3534  owner */\n      tag_57\n        /* \"breeding-nft-usecase/contracts/breedingWith6551/TbaAccount.sol\":3529:3536  owner() */\n      jump\t// in\n    tag_117:\n        /* \"breeding-nft-usecase/contracts/breedingWith6551/TbaAccount.sol\":3515:3536  msg.sender == owner() */\n      0xffffffffffffffffffffffffffffffffffffffff\n      and\n        /* \"breeding-nft-usecase/contracts/breedingWith6551/TbaAccount.sol\":3515:3525  msg.sender */\n      caller\n        /* \"breeding-nft-usecase/contracts/breedingWith6551/TbaAccount.sol\":3515:3536  msg.sender == owner() */\n      0xffffffffffffffffffffffffffffffffffffffff\n      and\n      eq\n        /* \"breeding-nft-usecase/contracts/breedingWith6551/TbaAccount.sol\":3507:3556  require(msg.sender == owner(), \"Not token owner\") */\n      tag_118\n      jumpi\n      mload(0x40)\n      0x08c379a000000000000000000000000000000000000000000000000000000000\n      dup2\n      mstore\n      0x04\n      add\n      tag_119\n      swap1\n      tag_95\n      jump\t// in\n    tag_119:\n      mload(0x40)\n      dup1\n      swap2\n      sub\n      swap1\n      revert\n    tag_118:\n        /* \"breeding-nft-usecase/contracts/breedingWith6551/TbaAccount.sol\":3580:3595  contractAddress */\n      dup2\n        /* \"breeding-nft-usecase/contracts/breedingWith6551/TbaAccount.sol\":3573:3604  IERC20(contractAddress).approve */\n      0xffffffffffffffffffffffffffffffffffffffff\n      and\n      0x095ea7b3\n        /* \"breeding-nft-usecase/contracts/breedingWith6551/TbaAccount.sol\":3605:3612  spender */\n      dup6\n        /* \"breeding-nft-usecase/contracts/breedingWith6551/TbaAccount.sol\":3614:3620  amount */\n      dup6\n        /* \"breeding-nft-usecase/contracts/breedingWith6551/TbaAccount.sol\":3573:3621  IERC20(contractAddress).approve(spender, amount) */\n      mload(0x40)\n      dup4\n      0xffffffff\n      and\n      0xe0\n      shl\n      dup2\n      mstore\n      0x04\n      add\n      tag_120\n      swap3\n      swap2\n      swap1\n      tag_111\n      jump\t// in\n    tag_120:\n      0x20\n      mload(0x40)\n      dup1\n      dup4\n      sub\n      dup2\n      0x00\n      dup8\n      gas\n      call\n      iszero\n      dup1\n      iszero\n      tag_122\n      jumpi\n      returndatasize\n      0x00\n      dup1\n      returndatacopy\n      revert(0x00, returndatasize)\n    tag_122:\n      pop\n      pop\n      pop\n      pop\n      mload(0x40)\n      returndatasize\n      not(0x1f)\n      0x1f\n      dup3\n      add\n      and\n      dup3\n      add\n      dup1\n      0x40\n      mstore\n      pop\n      dup2\n      add\n      swap1\n      tag_123\n      swap2\n      swap1\n      tag_115\n      jump\t// in\n    tag_123:\n        /* \"breeding-nft-usecase/contracts/breedingWith6551/TbaAccount.sol\":3566:3621  return IERC20(contractAddress).approve(spender, amount) */\n      swap1\n      pop\n        /* \"breeding-nft-usecase/contracts/breedingWith6551/TbaAccount.sol\":3368:3628  function approve20(... */\n      swap4\n      swap3\n      pop\n      pop\n      pop\n      jump\t// out\n        /* \"breeding-nft-usecase/contracts/breedingWith6551/TbaAccount.sol\":2564:2841  function transferFrom721(... */\n    tag_54:\n        /* \"breeding-nft-usecase/contracts/breedingWith6551/TbaAccount.sol\":2734:2741  owner() */\n      tag_125\n        /* \"breeding-nft-usecase/contracts/breedingWith6551/TbaAccount.sol\":2734:2739  owner */\n      tag_57\n        /* \"breeding-nft-usecase/contracts/breedingWith6551/TbaAccount.sol\":2734:2741  owner() */\n      jump\t// in\n    tag_125:\n        /* \"breeding-nft-usecase/contracts/breedingWith6551/TbaAccount.sol\":2720:2741  msg.sender == owner() */\n      0xffffffffffffffffffffffffffffffffffffffff\n      and\n        /* \"breeding-nft-usecase/contracts/breedingWith6551/TbaAccount.sol\":2720:2730  msg.sender */\n      caller\n        /* \"breeding-nft-usecase/contracts/breedingWith6551/TbaAccount.sol\":2720:2741  msg.sender == owner() */\n      0xffffffffffffffffffffffffffffffffffffffff\n      and\n      eq\n        /* \"breeding-nft-usecase/contracts/breedingWith6551/TbaAccount.sol\":2712:2761  require(msg.sender == owner(), \"Not token owner\") */\n      tag_126\n      jumpi\n      mload(0x40)\n      0x08c379a000000000000000000000000000000000000000000000000000000000\n      dup2\n      mstore\n      0x04\n      add\n      tag_127\n      swap1\n      tag_95\n      jump\t// in\n    tag_127:\n      mload(0x40)\n      dup1\n      swap2\n      sub\n      swap1\n      revert\n    tag_126:\n        /* \"breeding-nft-usecase/contracts/breedingWith6551/TbaAccount.sol\":2786:2801  contractAddress */\n      dup1\n        /* \"breeding-nft-usecase/contracts/breedingWith6551/TbaAccount.sol\":2778:2815  IERC721(contractAddress).transferFrom */\n      0xffffffffffffffffffffffffffffffffffffffff\n      and\n      0x23b872dd\n        /* \"breeding-nft-usecase/contracts/breedingWith6551/TbaAccount.sol\":2816:2820  from */\n      dup6\n        /* \"breeding-nft-usecase/contracts/breedingWith6551/TbaAccount.sol\":2822:2824  to */\n      dup6\n        /* \"breeding-nft-usecase/contracts/breedingWith6551/TbaAccount.sol\":2826:2833  tokenId */\n      dup6\n        /* \"breeding-nft-usecase/contracts/breedingWith6551/TbaAccount.sol\":2778:2834  IERC721(contractAddress).transferFrom(from, to, tokenId) */\n      mload(0x40)\n      dup5\n      0xffffffff\n      and\n      0xe0\n      shl\n      dup2\n      mstore\n      0x04\n      add\n      tag_128\n      swap4\n      swap3\n      swap2\n      swap1\n      tag_129\n      jump\t// in\n    tag_128:\n      0x00\n      mload(0x40)\n      dup1\n      dup4\n      sub\n      dup2\n      0x00\n      dup8\n      dup1\n      extcodesize\n      iszero\n      dup1\n      iszero\n      tag_130\n      jumpi\n      0x00\n      dup1\n      revert\n    tag_130:\n      pop\n      gas\n      call\n      iszero\n      dup1\n      iszero\n      tag_132\n      jumpi\n      returndatasize\n      0x00\n      dup1\n      returndatacopy\n      revert(0x00, returndatasize)\n    tag_132:\n      pop\n      pop\n      pop\n      pop\n        /* \"breeding-nft-usecase/contracts/breedingWith6551/TbaAccount.sol\":2564:2841  function transferFrom721(... */\n      pop\n      pop\n      pop\n      pop\n      jump\t// out\n        /* \"breeding-nft-usecase/contracts/breedingWith6551/TbaAccount.sol\":1411:1674  function owner() public view returns (address) {... */\n    tag_57:\n        /* \"breeding-nft-usecase/contracts/breedingWith6551/TbaAccount.sol\":1449:1456  address */\n      0x00\n        /* \"breeding-nft-usecase/contracts/breedingWith6551/TbaAccount.sol\":1469:1484  uint256 chainId */\n      dup1\n        /* \"breeding-nft-usecase/contracts/breedingWith6551/TbaAccount.sol\":1486:1507  address tokenContract */\n      0x00\n        /* \"breeding-nft-usecase/contracts/breedingWith6551/TbaAccount.sol\":1509:1524  uint256 tokenId */\n      dup1\n        /* \"breeding-nft-usecase/contracts/breedingWith6551/TbaAccount.sol\":1528:1532  this */\n      address\n        /* \"breeding-nft-usecase/contracts/breedingWith6551/TbaAccount.sol\":1528:1551  this... */\n      0xffffffffffffffffffffffffffffffffffffffff\n      and\n      0xfc0c546a\n        /* \"breeding-nft-usecase/contracts/breedingWith6551/TbaAccount.sol\":1528:1553  this... */\n      mload(0x40)\n      dup2\n      0xffffffff\n      and\n      0xe0\n      shl\n      dup2\n      mstore\n      0x04\n      add\n      0x60\n      mload(0x40)\n      dup1\n      dup4\n      sub\n      dup2\n      dup7\n      gas\n      staticcall\n      iszero\n      dup1\n      iszero\n      tag_135\n      jumpi\n      returndatasize\n      0x00\n      dup1\n      returndatacopy\n      revert(0x00, returndatasize)\n    tag_135:\n      pop\n      pop\n      pop\n      pop\n      mload(0x40)\n      returndatasize\n      not(0x1f)\n      0x1f\n      dup3\n      add\n      and\n      dup3\n      add\n      dup1\n      0x40\n      mstore\n      pop\n      dup2\n      add\n      swap1\n      tag_136\n      swap2\n      swap1\n      tag_137\n      jump\t// in\n    tag_136:\n        /* \"breeding-nft-usecase/contracts/breedingWith6551/TbaAccount.sol\":1468:1553  (uint256 chainId, address tokenContract, uint256 tokenId) = this... */\n      swap3\n      pop\n      swap3\n      pop\n      swap3\n      pop\n        /* \"breeding-nft-usecase/contracts/breedingWith6551/TbaAccount.sol\":1578:1591  block.chainid */\n      chainid\n        /* \"breeding-nft-usecase/contracts/breedingWith6551/TbaAccount.sol\":1567:1574  chainId */\n      dup4\n        /* \"breeding-nft-usecase/contracts/breedingWith6551/TbaAccount.sol\":1567:1591  chainId != block.chainid */\n      eq\n        /* \"breeding-nft-usecase/contracts/breedingWith6551/TbaAccount.sol\":1563:1610  if (chainId != block.chainid) return address(0) */\n      tag_138\n      jumpi\n        /* \"breeding-nft-usecase/contracts/breedingWith6551/TbaAccount.sol\":1608:1609  0 */\n      0x00\n        /* \"breeding-nft-usecase/contracts/breedingWith6551/TbaAccount.sol\":1593:1610  return address(0) */\n      swap4\n      pop\n      pop\n      pop\n      pop\n      jump(tag_133)\n        /* \"breeding-nft-usecase/contracts/breedingWith6551/TbaAccount.sol\":1563:1610  if (chainId != block.chainid) return address(0) */\n    tag_138:\n        /* \"breeding-nft-usecase/contracts/breedingWith6551/TbaAccount.sol\":1636:1649  tokenContract */\n      dup2\n        /* \"breeding-nft-usecase/contracts/breedingWith6551/TbaAccount.sol\":1628:1658  IERC721(tokenContract).ownerOf */\n      0xffffffffffffffffffffffffffffffffffffffff\n      and\n      0x6352211e\n        /* \"breeding-nft-usecase/contracts/breedingWith6551/TbaAccount.sol\":1659:1666  tokenId */\n      dup3\n        /* \"breeding-nft-usecase/contracts/breedingWith6551/TbaAccount.sol\":1628:1667  IERC721(tokenContract).ownerOf(tokenId) */\n      mload(0x40)\n      dup3\n      0xffffffff\n      and\n      0xe0\n      shl\n      dup2\n      mstore\n      0x04\n      add\n      tag_139\n      swap2\n      swap1\n      tag_79\n      jump\t// in\n    tag_139:\n      0x20\n      mload(0x40)\n      dup1\n      dup4\n      sub\n      dup2\n      dup7\n      gas\n      staticcall\n      iszero\n      dup1\n      iszero\n      tag_141\n      jumpi\n      returndatasize\n      0x00\n      dup1\n      returndatacopy\n      revert(0x00, returndatasize)\n    tag_141:\n      pop\n      pop\n      pop\n      pop\n      mload(0x40)\n      returndatasize\n      not(0x1f)\n      0x1f\n      dup3\n      add\n      and\n      dup3\n      add\n      dup1\n      0x40\n      mstore\n      pop\n      dup2\n      add\n      swap1\n      tag_142\n      swap2\n      swap1\n      tag_143\n      jump\t// in\n    tag_142:\n        /* \"breeding-nft-usecase/contracts/breedingWith6551/TbaAccount.sol\":1621:1667  return IERC721(tokenContract).ownerOf(tokenId) */\n      swap4\n      pop\n      pop\n      pop\n      pop\n        /* \"breeding-nft-usecase/contracts/breedingWith6551/TbaAccount.sol\":1411:1674  function owner() public view returns (address) {... */\n    tag_133:\n      swap1\n      jump\t// out\n        /* \"breeding-nft-usecase/contracts/breedingWith6551/TbaAccount.sol\":2847:3086  function approve721(... */\n    tag_63:\n        /* \"breeding-nft-usecase/contracts/breedingWith6551/TbaAccount.sol\":2990:2997  owner() */\n      tag_145\n        /* \"breeding-nft-usecase/contracts/breedingWith6551/TbaAccount.sol\":2990:2995  owner */\n      tag_57\n        /* \"breeding-nft-usecase/contracts/breedingWith6551/TbaAccount.sol\":2990:2997  owner() */\n      jump\t// in\n    tag_145:\n        /* \"breeding-nft-usecase/contracts/breedingWith6551/TbaAccount.sol\":2976:2997  msg.sender == owner() */\n      0xffffffffffffffffffffffffffffffffffffffff\n      and\n        /* \"breeding-nft-usecase/contracts/breedingWith6551/TbaAccount.sol\":2976:2986  msg.sender */\n      caller\n        /* \"breeding-nft-usecase/contracts/breedingWith6551/TbaAccount.sol\":2976:2997  msg.sender == owner() */\n      0xffffffffffffffffffffffffffffffffffffffff\n      and\n      eq\n        /* \"breeding-nft-usecase/contracts/breedingWith6551/TbaAccount.sol\":2968:3017  require(msg.sender == owner(), \"Not token owner\") */\n      tag_146\n      jumpi\n      mload(0x40)\n      0x08c379a000000000000000000000000000000000000000000000000000000000\n      dup2\n      mstore\n      0x04\n      add\n      tag_147\n      swap1\n      tag_95\n      jump\t// in\n    tag_147:\n      mload(0x40)\n      dup1\n      swap2\n      sub\n      swap1\n      revert\n    tag_146:\n        /* \"breeding-nft-usecase/contracts/breedingWith6551/TbaAccount.sol\":3042:3057  contractAddress */\n      dup1\n        /* \"breeding-nft-usecase/contracts/breedingWith6551/TbaAccount.sol\":3034:3066  IERC721(contractAddress).approve */\n      0xffffffffffffffffffffffffffffffffffffffff\n      and\n      0x095ea7b3\n        /* \"breeding-nft-usecase/contracts/breedingWith6551/TbaAccount.sol\":3067:3069  to */\n      dup5\n        /* \"breeding-nft-usecase/contracts/breedingWith6551/TbaAccount.sol\":3071:3078  tokenId */\n      dup5\n        /* \"breeding-nft-usecase/contracts/breedingWith6551/TbaAccount.sol\":3034:3079  IERC721(contractAddress).approve(to, tokenId) */\n      mload(0x40)\n      dup4\n      0xffffffff\n      and\n      0xe0\n      shl\n      dup2\n      mstore\n      0x04\n      add\n      tag_148\n      swap3\n      swap2\n      swap1\n      tag_111\n      jump\t// in\n    tag_148:\n      0x00\n      mload(0x40)\n      dup1\n      dup4\n      sub\n      dup2\n      0x00\n      dup8\n      dup1\n      extcodesize\n      iszero\n      dup1\n      iszero\n      tag_149\n      jumpi\n      0x00\n      dup1\n      revert\n    tag_149:\n      pop\n      gas\n      call\n      iszero\n      dup1\n      iszero\n      tag_151\n      jumpi\n      returndatasize\n      0x00\n      dup1\n      returndatacopy\n      revert(0x00, returndatasize)\n    tag_151:\n      pop\n      pop\n      pop\n      pop\n        /* \"breeding-nft-usecase/contracts/breedingWith6551/TbaAccount.sol\":2847:3086  function approve721(... */\n      pop\n      pop\n      pop\n      jump\t// out\n        /* \"breeding-nft-usecase/contracts/breedingWith6551/TbaAccount.sol\":794:1283  function executeCall(... */\n    tag_67:\n        /* \"breeding-nft-usecase/contracts/breedingWith6551/TbaAccount.sol\":919:938  bytes memory result */\n      0x60\n        /* \"breeding-nft-usecase/contracts/breedingWith6551/TbaAccount.sol\":972:979  owner() */\n      tag_153\n        /* \"breeding-nft-usecase/contracts/breedingWith6551/TbaAccount.sol\":972:977  owner */\n      tag_57\n        /* \"breeding-nft-usecase/contracts/breedingWith6551/TbaAccount.sol\":972:979  owner() */\n      jump\t// in\n    tag_153:\n        /* \"breeding-nft-usecase/contracts/breedingWith6551/TbaAccount.sol\":958:979  msg.sender == owner() */\n      0xffffffffffffffffffffffffffffffffffffffff\n      and\n        /* \"breeding-nft-usecase/contracts/breedingWith6551/TbaAccount.sol\":958:968  msg.sender */\n      caller\n        /* \"breeding-nft-usecase/contracts/breedingWith6551/TbaAccount.sol\":958:979  msg.sender == owner() */\n      0xffffffffffffffffffffffffffffffffffffffff\n      and\n      eq\n        /* \"breeding-nft-usecase/contracts/breedingWith6551/TbaAccount.sol\":950:999  require(msg.sender == owner(), \"Not token owner\") */\n      tag_154\n      jumpi\n      mload(0x40)\n      0x08c379a000000000000000000000000000000000000000000000000000000000\n      dup2\n      mstore\n      0x04\n      add\n      tag_155\n      swap1\n      tag_95\n      jump\t// in\n    tag_155:\n      mload(0x40)\n      dup1\n      swap2\n      sub\n      swap1\n      revert\n    tag_154:\n        /* \"breeding-nft-usecase/contracts/breedingWith6551/TbaAccount.sol\":1012:1017  nonce */\n      0x00\n      dup1\n        /* \"breeding-nft-usecase/contracts/breedingWith6551/TbaAccount.sol\":1010:1017  ++nonce */\n      dup2\n      sload\n      tag_156\n      swap1\n      tag_157\n      jump\t// in\n    tag_156:\n      swap2\n      swap1\n      pop\n      dup2\n      swap1\n      sstore\n      pop\n        /* \"breeding-nft-usecase/contracts/breedingWith6551/TbaAccount.sol\":1057:1062  value */\n      dup4\n        /* \"breeding-nft-usecase/contracts/breedingWith6551/TbaAccount.sol\":1053:1055  to */\n      dup6\n        /* \"breeding-nft-usecase/contracts/breedingWith6551/TbaAccount.sol\":1033:1069  TransactionExecuted(to, value, data) */\n      0xffffffffffffffffffffffffffffffffffffffff\n      and\n      0x47d99ad340f52da66535aff7e10da1ceb85a32bcbd9fa1c42314d194545e14d2\n        /* \"breeding-nft-usecase/contracts/breedingWith6551/TbaAccount.sol\":1064:1068  data */\n      dup6\n      dup6\n        /* \"breeding-nft-usecase/contracts/breedingWith6551/TbaAccount.sol\":1033:1069  TransactionExecuted(to, value, data) */\n      mload(0x40)\n      tag_158\n      swap3\n      swap2\n      swap1\n      tag_159\n      jump\t// in\n    tag_158:\n      mload(0x40)\n      dup1\n      swap2\n      sub\n      swap1\n      log3\n        /* \"breeding-nft-usecase/contracts/breedingWith6551/TbaAccount.sol\":1080:1092  bool success */\n      0x00\n        /* \"breeding-nft-usecase/contracts/breedingWith6551/TbaAccount.sol\":1122:1124  to */\n      dup6\n        /* \"breeding-nft-usecase/contracts/breedingWith6551/TbaAccount.sol\":1122:1129  to.call */\n      0xffffffffffffffffffffffffffffffffffffffff\n      and\n        /* \"breeding-nft-usecase/contracts/breedingWith6551/TbaAccount.sol\":1137:1142  value */\n      dup6\n        /* \"breeding-nft-usecase/contracts/breedingWith6551/TbaAccount.sol\":1144:1148  data */\n      dup6\n      dup6\n        /* \"breeding-nft-usecase/contracts/breedingWith6551/TbaAccount.sol\":1122:1149  to.call{value: value}(data) */\n      mload(0x40)\n      tag_160\n      swap3\n      swap2\n      swap1\n      tag_161\n      jump\t// in\n    tag_160:\n      0x00\n      mload(0x40)\n      dup1\n      dup4\n      sub\n      dup2\n      dup6\n      dup8\n      gas\n      call\n      swap3\n      pop\n      pop\n      pop\n      returndatasize\n      dup1\n      0x00\n      dup2\n      eq\n      tag_164\n      jumpi\n      mload(0x40)\n      swap2\n      pop\n      and(add(returndatasize, 0x3f), not(0x1f))\n      dup3\n      add\n      0x40\n      mstore\n      returndatasize\n      dup3\n      mstore\n      returndatasize\n      0x00\n      0x20\n      dup5\n      add\n      returndatacopy\n      jump(tag_163)\n    tag_164:\n      0x60\n      swap2\n      pop\n    tag_163:\n      pop\n        /* \"breeding-nft-usecase/contracts/breedingWith6551/TbaAccount.sol\":1102:1149  (success, result) = to.call{value: value}(data) */\n      dup1\n      swap4\n      pop\n      dup2\n      swap3\n      pop\n      pop\n      pop\n        /* \"breeding-nft-usecase/contracts/breedingWith6551/TbaAccount.sol\":1165:1172  success */\n      dup1\n        /* \"breeding-nft-usecase/contracts/breedingWith6551/TbaAccount.sol\":1160:1277  if (!success) {... */\n      tag_165\n      jumpi\n        /* \"breeding-nft-usecase/contracts/breedingWith6551/TbaAccount.sol\":1245:1251  result */\n      dup2\n        /* \"breeding-nft-usecase/contracts/breedingWith6551/TbaAccount.sol\":1239:1252  mload(result) */\n      mload\n        /* \"breeding-nft-usecase/contracts/breedingWith6551/TbaAccount.sol\":1234:1236  32 */\n      0x20\n        /* \"breeding-nft-usecase/contracts/breedingWith6551/TbaAccount.sol\":1226:1232  result */\n      dup4\n        /* \"breeding-nft-usecase/contracts/breedingWith6551/TbaAccount.sol\":1222:1237  add(result, 32) */\n      add\n        /* \"breeding-nft-usecase/contracts/breedingWith6551/TbaAccount.sol\":1215:1253  revert(add(result, 32), mload(result)) */\n      revert\n        /* \"breeding-nft-usecase/contracts/breedingWith6551/TbaAccount.sol\":1160:1277  if (!success) {... */\n    tag_165:\n        /* \"breeding-nft-usecase/contracts/breedingWith6551/TbaAccount.sol\":940:1283  {... */\n      pop\n        /* \"breeding-nft-usecase/contracts/breedingWith6551/TbaAccount.sol\":794:1283  function executeCall(... */\n      swap5\n      swap4\n      pop\n      pop\n      pop\n      pop\n      jump\t// out\n        /* \"breeding-nft-usecase/contracts/breedingWith6551/TbaAccount.sol\":3634:3922  function transferFrom20(... */\n    tag_73:\n        /* \"breeding-nft-usecase/contracts/breedingWith6551/TbaAccount.sol\":3779:3783  bool */\n      0x00\n        /* \"breeding-nft-usecase/contracts/breedingWith6551/TbaAccount.sol\":3817:3824  owner() */\n      tag_167\n        /* \"breeding-nft-usecase/contracts/breedingWith6551/TbaAccount.sol\":3817:3822  owner */\n      tag_57\n        /* \"breeding-nft-usecase/contracts/breedingWith6551/TbaAccount.sol\":3817:3824  owner() */\n      jump\t// in\n    tag_167:\n        /* \"breeding-nft-usecase/contracts/breedingWith6551/TbaAccount.sol\":3803:3824  msg.sender == owner() */\n      0xffffffffffffffffffffffffffffffffffffffff\n      and\n        /* \"breeding-nft-usecase/contracts/breedingWith6551/TbaAccount.sol\":3803:3813  msg.sender */\n      caller\n        /* \"breeding-nft-usecase/contracts/breedingWith6551/TbaAccount.sol\":3803:3824  msg.sender == owner() */\n      0xffffffffffffffffffffffffffffffffffffffff\n      and\n      eq\n        /* \"breeding-nft-usecase/contracts/breedingWith6551/TbaAccount.sol\":3795:3844  require(msg.sender == owner(), \"Not token owner\") */\n      tag_168\n      jumpi\n      mload(0x40)\n      0x08c379a000000000000000000000000000000000000000000000000000000000\n      dup2\n      mstore\n      0x04\n      add\n      tag_169\n      swap1\n      tag_95\n      jump\t// in\n    tag_169:\n      mload(0x40)\n      dup1\n      swap2\n      sub\n      swap1\n      revert\n    tag_168:\n        /* \"breeding-nft-usecase/contracts/breedingWith6551/TbaAccount.sol\":3868:3883  contractAddress */\n      dup2\n        /* \"breeding-nft-usecase/contracts/breedingWith6551/TbaAccount.sol\":3861:3897  IERC20(contractAddress).transferFrom */\n      0xffffffffffffffffffffffffffffffffffffffff\n      and\n      0x23b872dd\n        /* \"breeding-nft-usecase/contracts/breedingWith6551/TbaAccount.sol\":3898:3902  from */\n      dup7\n        /* \"breeding-nft-usecase/contracts/breedingWith6551/TbaAccount.sol\":3904:3906  to */\n      dup7\n        /* \"breeding-nft-usecase/contracts/breedingWith6551/TbaAccount.sol\":3908:3914  amount */\n      dup7\n        /* \"breeding-nft-usecase/contracts/breedingWith6551/TbaAccount.sol\":3861:3915  IERC20(contractAddress).transferFrom(from, to, amount) */\n      mload(0x40)\n      dup5\n      0xffffffff\n      and\n      0xe0\n      shl\n      dup2\n      mstore\n      0x04\n      add\n      tag_170\n      swap4\n      swap3\n      swap2\n      swap1\n      tag_129\n      jump\t// in\n    tag_170:\n      0x20\n      mload(0x40)\n      dup1\n      dup4\n      sub\n      dup2\n      0x00\n      dup8\n      gas\n      call\n      iszero\n      dup1\n      iszero\n      tag_172\n      jumpi\n      returndatasize\n      0x00\n      dup1\n      returndatacopy\n      revert(0x00, returndatasize)\n    tag_172:\n      pop\n      pop\n      pop\n      pop\n      mload(0x40)\n      returndatasize\n      not(0x1f)\n      0x1f\n      dup3\n      add\n      and\n      dup3\n      add\n      dup1\n      0x40\n      mstore\n      pop\n      dup2\n      add\n      swap1\n      tag_173\n      swap2\n      swap1\n      tag_115\n      jump\t// in\n    tag_173:\n        /* \"breeding-nft-usecase/contracts/breedingWith6551/TbaAccount.sol\":3854:3915  return IERC20(contractAddress).transferFrom(from, to, amount) */\n      swap1\n      pop\n        /* \"breeding-nft-usecase/contracts/breedingWith6551/TbaAccount.sol\":3634:3922  function transferFrom20(... */\n      swap5\n      swap4\n      pop\n      pop\n      pop\n      pop\n      jump\t// out\n        /* \"breeding-nft-usecase/contracts/breedingWith6551/TbaAccount.sol\":732:752  uint256 public nonce */\n    tag_77:\n      sload(0x00)\n      dup2\n      jump\t// out\n        /* \"breeding-nft-usecase/contracts/breedingWith6551/TbaAccount.sol\":2273:2558  function safeTransferFrom721(... */\n    tag_83:\n        /* \"breeding-nft-usecase/contracts/breedingWith6551/TbaAccount.sol\":2447:2454  owner() */\n      tag_175\n        /* \"breeding-nft-usecase/contracts/breedingWith6551/TbaAccount.sol\":2447:2452  owner */\n      tag_57\n        /* \"breeding-nft-usecase/contracts/breedingWith6551/TbaAccount.sol\":2447:2454  owner() */\n      jump\t// in\n    tag_175:\n        /* \"breeding-nft-usecase/contracts/breedingWith6551/TbaAccount.sol\":2433:2454  msg.sender == owner() */\n      0xffffffffffffffffffffffffffffffffffffffff\n      and\n        /* \"breeding-nft-usecase/contracts/breedingWith6551/TbaAccount.sol\":2433:2443  msg.sender */\n      caller\n        /* \"breeding-nft-usecase/contracts/breedingWith6551/TbaAccount.sol\":2433:2454  msg.sender == owner() */\n      0xffffffffffffffffffffffffffffffffffffffff\n      and\n      eq\n        /* \"breeding-nft-usecase/contracts/breedingWith6551/TbaAccount.sol\":2425:2474  require(msg.sender == owner(), \"Not token owner\") */\n      tag_176\n      jumpi\n      mload(0x40)\n      0x08c379a000000000000000000000000000000000000000000000000000000000\n      dup2\n      mstore\n      0x04\n      add\n      tag_177\n      swap1\n      tag_95\n      jump\t// in\n    tag_177:\n      mload(0x40)\n      dup1\n      swap2\n      sub\n      swap1\n      revert\n    tag_176:\n        /* \"breeding-nft-usecase/contracts/breedingWith6551/TbaAccount.sol\":2499:2514  contractAddress */\n      dup1\n        /* \"breeding-nft-usecase/contracts/breedingWith6551/TbaAccount.sol\":2491:2532  IERC721(contractAddress).safeTransferFrom */\n      0xffffffffffffffffffffffffffffffffffffffff\n      and\n      0x42842e0e\n        /* \"breeding-nft-usecase/contracts/breedingWith6551/TbaAccount.sol\":2533:2537  from */\n      dup6\n        /* \"breeding-nft-usecase/contracts/breedingWith6551/TbaAccount.sol\":2539:2541  to */\n      dup6\n        /* \"breeding-nft-usecase/contracts/breedingWith6551/TbaAccount.sol\":2543:2550  tokenId */\n      dup6\n        /* \"breeding-nft-usecase/contracts/breedingWith6551/TbaAccount.sol\":2491:2551  IERC721(contractAddress).safeTransferFrom(from, to, tokenId) */\n      mload(0x40)\n      dup5\n      0xffffffff\n      and\n      0xe0\n      shl\n      dup2\n      mstore\n      0x04\n      add\n      tag_178\n      swap4\n      swap3\n      swap2\n      swap1\n      tag_129\n      jump\t// in\n    tag_178:\n      0x00\n      mload(0x40)\n      dup1\n      dup4\n      sub\n      dup2\n      0x00\n      dup8\n      dup1\n      extcodesize\n      iszero\n      dup1\n      iszero\n      tag_179\n      jumpi\n      0x00\n      dup1\n      revert\n    tag_179:\n      pop\n      gas\n      call\n      iszero\n      dup1\n      iszero\n      tag_181\n      jumpi\n      returndatasize\n      0x00\n      dup1\n      returndatacopy\n      revert(0x00, returndatasize)\n    tag_181:\n      pop\n      pop\n      pop\n      pop\n        /* \"breeding-nft-usecase/contracts/breedingWith6551/TbaAccount.sol\":2273:2558  function safeTransferFrom721(... */\n      pop\n      pop\n      pop\n      pop\n      jump\t// out\n        /* \"breeding-nft-usecase/contracts/breedingWith6551/TbaAccount.sol\":1289:1405  function token() external view returns (uint256, address, uint256) {... */\n    tag_86:\n        /* \"breeding-nft-usecase/contracts/breedingWith6551/TbaAccount.sol\":1329:1336  uint256 */\n      0x00\n        /* \"breeding-nft-usecase/contracts/breedingWith6551/TbaAccount.sol\":1338:1345  address */\n      dup1\n        /* \"breeding-nft-usecase/contracts/breedingWith6551/TbaAccount.sol\":1347:1354  uint256 */\n      0x00\n        /* \"breeding-nft-usecase/contracts/breedingWith6551/TbaAccount.sol\":1373:1398  ERC6551AccountLib.token() */\n      tag_183\n        /* \"breeding-nft-usecase/contracts/breedingWith6551/TbaAccount.sol\":1373:1396  ERC6551AccountLib.token */\n      tag_184\n        /* \"breeding-nft-usecase/contracts/breedingWith6551/TbaAccount.sol\":1373:1398  ERC6551AccountLib.token() */\n      jump\t// in\n    tag_183:\n        /* \"breeding-nft-usecase/contracts/breedingWith6551/TbaAccount.sol\":1366:1398  return ERC6551AccountLib.token() */\n      swap3\n      pop\n      swap3\n      pop\n      swap3\n      pop\n        /* \"breeding-nft-usecase/contracts/breedingWith6551/TbaAccount.sol\":1289:1405  function token() external view returns (uint256, address, uint256) {... */\n      swap1\n      swap2\n      swap3\n      jump\t// out\n        /* \"@openzeppelin/contracts/utils/cryptography/SignatureChecker.sol\":1039:1407  function isValidSignatureNow(address signer, bytes32 hash, bytes memory signature) internal view returns (bool) {... */\n    tag_104:\n        /* \"@openzeppelin/contracts/utils/cryptography/SignatureChecker.sol\":1145:1149  bool */\n      0x00\n        /* \"@openzeppelin/contracts/utils/cryptography/SignatureChecker.sol\":1162:1179  address recovered */\n      dup1\n        /* \"@openzeppelin/contracts/utils/cryptography/SignatureChecker.sol\":1181:1205  ECDSA.RecoverError error */\n      0x00\n        /* \"@openzeppelin/contracts/utils/cryptography/SignatureChecker.sol\":1211:1244  ECDSA.tryRecover(hash, signature) */\n      tag_186\n        /* \"@openzeppelin/contracts/utils/cryptography/SignatureChecker.sol\":1228:1232  hash */\n      dup6\n        /* \"@openzeppelin/contracts/utils/cryptography/SignatureChecker.sol\":1234:1243  signature */\n      dup6\n        /* \"@openzeppelin/contracts/utils/cryptography/SignatureChecker.sol\":1211:1227  ECDSA.tryRecover */\n      tag_187\n        /* \"@openzeppelin/contracts/utils/cryptography/SignatureChecker.sol\":1211:1244  ECDSA.tryRecover(hash, signature) */\n      jump\t// in\n    tag_186:\n        /* \"@openzeppelin/contracts/utils/cryptography/SignatureChecker.sol\":1161:1244  (address recovered, ECDSA.RecoverError error, ) = ECDSA.tryRecover(hash, signature) */\n      pop\n      swap2\n      pop\n      swap2\n      pop\n        /* \"@openzeppelin/contracts/utils/cryptography/SignatureChecker.sol\":1283:1309  ECDSA.RecoverError.NoError */\n      0x00\n        /* \"@openzeppelin/contracts/utils/cryptography/SignatureChecker.sol\":1274:1309  error == ECDSA.RecoverError.NoError */\n      0x03\n      dup2\n      gt\n      iszero\n      tag_188\n      jumpi\n      tag_189\n      tag_190\n      jump\t// in\n    tag_189:\n    tag_188:\n        /* \"@openzeppelin/contracts/utils/cryptography/SignatureChecker.sol\":1274:1279  error */\n      dup2\n        /* \"@openzeppelin/contracts/utils/cryptography/SignatureChecker.sol\":1274:1309  error == ECDSA.RecoverError.NoError */\n      0x03\n      dup2\n      gt\n      iszero\n      tag_191\n      jumpi\n      tag_192\n      tag_190\n      jump\t// in\n    tag_192:\n    tag_191:\n      eq\n        /* \"@openzeppelin/contracts/utils/cryptography/SignatureChecker.sol\":1274:1332  error == ECDSA.RecoverError.NoError && recovered == signer */\n      dup1\n      iszero\n      tag_193\n      jumpi\n      pop\n        /* \"@openzeppelin/contracts/utils/cryptography/SignatureChecker.sol\":1326:1332  signer */\n      dup6\n        /* \"@openzeppelin/contracts/utils/cryptography/SignatureChecker.sol\":1313:1332  recovered == signer */\n      0xffffffffffffffffffffffffffffffffffffffff\n      and\n        /* \"@openzeppelin/contracts/utils/cryptography/SignatureChecker.sol\":1313:1322  recovered */\n      dup3\n        /* \"@openzeppelin/contracts/utils/cryptography/SignatureChecker.sol\":1313:1332  recovered == signer */\n      0xffffffffffffffffffffffffffffffffffffffff\n      and\n      eq\n        /* \"@openzeppelin/contracts/utils/cryptography/SignatureChecker.sol\":1274:1332  error == ECDSA.RecoverError.NoError && recovered == signer */\n    tag_193:\n        /* \"@openzeppelin/contracts/utils/cryptography/SignatureChecker.sol\":1273:1400  (error == ECDSA.RecoverError.NoError && recovered == signer) ||... */\n      dup1\n      tag_194\n      jumpi\n      pop\n        /* \"@openzeppelin/contracts/utils/cryptography/SignatureChecker.sol\":1349:1400  isValidERC1271SignatureNow(signer, hash, signature) */\n      tag_195\n        /* \"@openzeppelin/contracts/utils/cryptography/SignatureChecker.sol\":1376:1382  signer */\n      dup7\n        /* \"@openzeppelin/contracts/utils/cryptography/SignatureChecker.sol\":1384:1388  hash */\n      dup7\n        /* \"@openzeppelin/contracts/utils/cryptography/SignatureChecker.sol\":1390:1399  signature */\n      dup7\n        /* \"@openzeppelin/contracts/utils/cryptography/SignatureChecker.sol\":1349:1375  isValidERC1271SignatureNow */\n      tag_196\n        /* \"@openzeppelin/contracts/utils/cryptography/SignatureChecker.sol\":1349:1400  isValidERC1271SignatureNow(signer, hash, signature) */\n      jump\t// in\n    tag_195:\n        /* \"@openzeppelin/contracts/utils/cryptography/SignatureChecker.sol\":1273:1400  (error == ECDSA.RecoverError.NoError && recovered == signer) ||... */\n    tag_194:\n        /* \"@openzeppelin/contracts/utils/cryptography/SignatureChecker.sol\":1254:1400  return... */\n      swap3\n      pop\n      pop\n      pop\n        /* \"@openzeppelin/contracts/utils/cryptography/SignatureChecker.sol\":1039:1407  function isValidSignatureNow(address signer, bytes32 hash, bytes memory signature) internal view returns (bool) {... */\n      swap4\n      swap3\n      pop\n      pop\n      pop\n      jump\t// out\n        /* \"breeding-nft-usecase/contracts/breedingWith6551/lib/ERC6551AccountLib.sol\":744:1150  function token()... */\n    tag_184:\n        /* \"breeding-nft-usecase/contracts/breedingWith6551/lib/ERC6551AccountLib.sol\":821:828  uint256 */\n      0x00\n        /* \"breeding-nft-usecase/contracts/breedingWith6551/lib/ERC6551AccountLib.sol\":842:849  address */\n      dup1\n        /* \"breeding-nft-usecase/contracts/breedingWith6551/lib/ERC6551AccountLib.sol\":863:870  uint256 */\n      0x00\n        /* \"breeding-nft-usecase/contracts/breedingWith6551/lib/ERC6551AccountLib.sol\":895:914  bytes memory footer */\n      dup1\n        /* \"breeding-nft-usecase/contracts/breedingWith6551/lib/ERC6551AccountLib.sol\":927:931  0x60 */\n      0x60\n        /* \"breeding-nft-usecase/contracts/breedingWith6551/lib/ERC6551AccountLib.sol\":917:932  new bytes(0x60) */\n      0xffffffffffffffff\n      dup2\n      gt\n      iszero\n      tag_198\n      jumpi\n      tag_199\n      tag_200\n      jump\t// in\n    tag_199:\n    tag_198:\n      mload(0x40)\n      swap1\n      dup1\n      dup3\n      mstore\n      dup1\n      0x1f\n      add\n      not(0x1f)\n      and\n      0x20\n      add\n      dup3\n      add\n      0x40\n      mstore\n      dup1\n      iszero\n      tag_201\n      jumpi\n      dup2\n      0x20\n      add\n      0x01\n      dup3\n      mul\n      dup1\n      calldatasize\n      dup4\n      calldatacopy\n      dup1\n      dup3\n      add\n      swap2\n      pop\n      pop\n      swap1\n      pop\n    tag_201:\n      pop\n        /* \"breeding-nft-usecase/contracts/breedingWith6551/lib/ERC6551AccountLib.sol\":895:932  bytes memory footer = new bytes(0x60) */\n      swap1\n      pop\n        /* \"breeding-nft-usecase/contracts/breedingWith6551/lib/ERC6551AccountLib.sol\":1064:1068  0x60 */\n      0x60\n        /* \"breeding-nft-usecase/contracts/breedingWith6551/lib/ERC6551AccountLib.sol\":1058:1062  0x4d */\n      0x4d\n        /* \"breeding-nft-usecase/contracts/breedingWith6551/lib/ERC6551AccountLib.sol\":1051:1055  0x20 */\n      0x20\n        /* \"breeding-nft-usecase/contracts/breedingWith6551/lib/ERC6551AccountLib.sol\":1043:1049  footer */\n      dup4\n        /* \"breeding-nft-usecase/contracts/breedingWith6551/lib/ERC6551AccountLib.sol\":1039:1056  add(footer, 0x20) */\n      add\n        /* \"breeding-nft-usecase/contracts/breedingWith6551/lib/ERC6551AccountLib.sol\":1028:1037  address() */\n      address\n        /* \"breeding-nft-usecase/contracts/breedingWith6551/lib/ERC6551AccountLib.sol\":1016:1069  extcodecopy(address(), add(footer, 0x20), 0x4d, 0x60) */\n      extcodecopy\n        /* \"breeding-nft-usecase/contracts/breedingWith6551/lib/ERC6551AccountLib.sol\":1107:1113  footer */\n      dup1\n        /* \"breeding-nft-usecase/contracts/breedingWith6551/lib/ERC6551AccountLib.sol\":1096:1143  abi.decode(footer, (uint256, address, uint256)) */\n      dup1\n      0x20\n      add\n      swap1\n      mload\n      dup2\n      add\n      swap1\n      tag_202\n      swap2\n      swap1\n      tag_203\n      jump\t// in\n    tag_202:\n        /* \"breeding-nft-usecase/contracts/breedingWith6551/lib/ERC6551AccountLib.sol\":1089:1143  return abi.decode(footer, (uint256, address, uint256)) */\n      swap4\n      pop\n      swap4\n      pop\n      swap4\n      pop\n      pop\n        /* \"breeding-nft-usecase/contracts/breedingWith6551/lib/ERC6551AccountLib.sol\":744:1150  function token()... */\n      swap1\n      swap2\n      swap3\n      jump\t// out\n        /* \"@openzeppelin/contracts/utils/cryptography/ECDSA.sol\":2129:2895  function tryRecover(bytes32 hash, bytes memory signature) internal pure returns (address, RecoverError, bytes32) {... */\n    tag_187:\n        /* \"@openzeppelin/contracts/utils/cryptography/ECDSA.sol\":2210:2217  address */\n      0x00\n        /* \"@openzeppelin/contracts/utils/cryptography/ECDSA.sol\":2219:2231  RecoverError */\n      dup1\n        /* \"@openzeppelin/contracts/utils/cryptography/ECDSA.sol\":2233:2240  bytes32 */\n      0x00\n        /* \"@openzeppelin/contracts/utils/cryptography/ECDSA.sol\":2276:2278  65 */\n      0x41\n        /* \"@openzeppelin/contracts/utils/cryptography/ECDSA.sol\":2256:2265  signature */\n      dup5\n        /* \"@openzeppelin/contracts/utils/cryptography/ECDSA.sol\":2256:2272  signature.length */\n      mload\n        /* \"@openzeppelin/contracts/utils/cryptography/ECDSA.sol\":2256:2278  signature.length == 65 */\n      sub\n        /* \"@openzeppelin/contracts/utils/cryptography/ECDSA.sol\":2252:2889  if (signature.length == 65) {... */\n      tag_205\n      jumpi\n        /* \"@openzeppelin/contracts/utils/cryptography/ECDSA.sol\":2294:2303  bytes32 r */\n      0x00\n        /* \"@openzeppelin/contracts/utils/cryptography/ECDSA.sol\":2317:2326  bytes32 s */\n      dup1\n        /* \"@openzeppelin/contracts/utils/cryptography/ECDSA.sol\":2340:2347  uint8 v */\n      0x00\n        /* \"@openzeppelin/contracts/utils/cryptography/ECDSA.sol\":2592:2596  0x20 */\n      0x20\n        /* \"@openzeppelin/contracts/utils/cryptography/ECDSA.sol\":2581:2590  signature */\n      dup8\n        /* \"@openzeppelin/contracts/utils/cryptography/ECDSA.sol\":2577:2597  add(signature, 0x20) */\n      add\n        /* \"@openzeppelin/contracts/utils/cryptography/ECDSA.sol\":2571:2598  mload(add(signature, 0x20)) */\n      mload\n        /* \"@openzeppelin/contracts/utils/cryptography/ECDSA.sol\":2566:2598  r := mload(add(signature, 0x20)) */\n      swap3\n      pop\n        /* \"@openzeppelin/contracts/utils/cryptography/ECDSA.sol\":2641:2645  0x40 */\n      0x40\n        /* \"@openzeppelin/contracts/utils/cryptography/ECDSA.sol\":2630:2639  signature */\n      dup8\n        /* \"@openzeppelin/contracts/utils/cryptography/ECDSA.sol\":2626:2646  add(signature, 0x40) */\n      add\n        /* \"@openzeppelin/contracts/utils/cryptography/ECDSA.sol\":2620:2647  mload(add(signature, 0x40)) */\n      mload\n        /* \"@openzeppelin/contracts/utils/cryptography/ECDSA.sol\":2615:2647  s := mload(add(signature, 0x40)) */\n      swap2\n      pop\n        /* \"@openzeppelin/contracts/utils/cryptography/ECDSA.sol\":2698:2702  0x60 */\n      0x60\n        /* \"@openzeppelin/contracts/utils/cryptography/ECDSA.sol\":2687:2696  signature */\n      dup8\n        /* \"@openzeppelin/contracts/utils/cryptography/ECDSA.sol\":2683:2703  add(signature, 0x60) */\n      add\n        /* \"@openzeppelin/contracts/utils/cryptography/ECDSA.sol\":2677:2704  mload(add(signature, 0x60)) */\n      mload\n        /* \"@openzeppelin/contracts/utils/cryptography/ECDSA.sol\":2674:2675  0 */\n      0x00\n        /* \"@openzeppelin/contracts/utils/cryptography/ECDSA.sol\":2669:2705  byte(0, mload(add(signature, 0x60))) */\n      byte\n        /* \"@openzeppelin/contracts/utils/cryptography/ECDSA.sol\":2664:2705  v := byte(0, mload(add(signature, 0x60))) */\n      swap1\n      pop\n        /* \"@openzeppelin/contracts/utils/cryptography/ECDSA.sol\":2739:2764  tryRecover(hash, v, r, s) */\n      tag_206\n        /* \"@openzeppelin/contracts/utils/cryptography/ECDSA.sol\":2750:2754  hash */\n      dup9\n        /* \"@openzeppelin/contracts/utils/cryptography/ECDSA.sol\":2756:2757  v */\n      dup3\n        /* \"@openzeppelin/contracts/utils/cryptography/ECDSA.sol\":2759:2760  r */\n      dup6\n        /* \"@openzeppelin/contracts/utils/cryptography/ECDSA.sol\":2762:2763  s */\n      dup6\n        /* \"@openzeppelin/contracts/utils/cryptography/ECDSA.sol\":2739:2749  tryRecover */\n      tag_207\n        /* \"@openzeppelin/contracts/utils/cryptography/ECDSA.sol\":2739:2764  tryRecover(hash, v, r, s) */\n      jump\t// in\n    tag_206:\n        /* \"@openzeppelin/contracts/utils/cryptography/ECDSA.sol\":2732:2764  return tryRecover(hash, v, r, s) */\n      swap6\n      pop\n      swap6\n      pop\n      swap6\n      pop\n      pop\n      pop\n      pop\n      jump(tag_204)\n        /* \"@openzeppelin/contracts/utils/cryptography/ECDSA.sol\":2252:2889  if (signature.length == 65) {... */\n    tag_205:\n        /* \"@openzeppelin/contracts/utils/cryptography/ECDSA.sol\":2811:2812  0 */\n      0x00\n        /* \"@openzeppelin/contracts/utils/cryptography/ECDSA.sol\":2815:2850  RecoverError.InvalidSignatureLength */\n      0x02\n        /* \"@openzeppelin/contracts/utils/cryptography/ECDSA.sol\":2860:2869  signature */\n      dup6\n        /* \"@openzeppelin/contracts/utils/cryptography/ECDSA.sol\":2860:2876  signature.length */\n      mload\n        /* \"@openzeppelin/contracts/utils/cryptography/ECDSA.sol\":2852:2877  bytes32(signature.length) */\n      0x00\n      shl\n        /* \"@openzeppelin/contracts/utils/cryptography/ECDSA.sol\":2795:2878  return (address(0), RecoverError.InvalidSignatureLength, bytes32(signature.length)) */\n      swap3\n      pop\n      swap3\n      pop\n      swap3\n      pop\n        /* \"@openzeppelin/contracts/utils/cryptography/ECDSA.sol\":2129:2895  function tryRecover(bytes32 hash, bytes memory signature) internal pure returns (address, RecoverError, bytes32) {... */\n    tag_204:\n      swap3\n      pop\n      swap3\n      pop\n      swap3\n      jump\t// out\n        /* \"@openzeppelin/contracts/utils/cryptography/SignatureChecker.sol\":1813:2271  function isValidERC1271SignatureNow(... */\n    tag_196:\n        /* \"@openzeppelin/contracts/utils/cryptography/SignatureChecker.sol\":1956:1960  bool */\n      0x00\n        /* \"@openzeppelin/contracts/utils/cryptography/SignatureChecker.sol\":1973:1985  bool success */\n      dup1\n        /* \"@openzeppelin/contracts/utils/cryptography/SignatureChecker.sol\":1987:2006  bytes memory result */\n      0x00\n        /* \"@openzeppelin/contracts/utils/cryptography/SignatureChecker.sol\":2010:2016  signer */\n      dup6\n        /* \"@openzeppelin/contracts/utils/cryptography/SignatureChecker.sol\":2010:2027  signer.staticcall */\n      0xffffffffffffffffffffffffffffffffffffffff\n      and\n        /* \"@openzeppelin/contracts/utils/cryptography/SignatureChecker.sol\":2084:2088  hash */\n      dup6\n        /* \"@openzeppelin/contracts/utils/cryptography/SignatureChecker.sol\":2090:2099  signature */\n      dup6\n        /* \"@openzeppelin/contracts/utils/cryptography/SignatureChecker.sol\":2041:2101  abi.encodeCall(IERC1271.isValidSignature, (hash, signature)) */\n      add(0x24, mload(0x40))\n      tag_210\n      swap3\n      swap2\n      swap1\n      tag_211\n      jump\t// in\n    tag_210:\n      mload(0x40)\n      0x20\n      dup2\n      dup4\n      sub\n      sub\n      dup2\n      mstore\n      swap1\n      0x40\n      mstore\n      shl(0xe0, 0x1626ba7e)\n      0x20\n      dup3\n      add\n      dup1\n      mload\n      0xffffffffffffffffffffffffffffffffffffffffffffffffffffffff\n      dup4\n      dup2\n      dup4\n      and\n      or\n      dup4\n      mstore\n      pop\n      pop\n      pop\n      pop\n        /* \"@openzeppelin/contracts/utils/cryptography/SignatureChecker.sol\":2010:2111  signer.staticcall(... */\n      mload(0x40)\n      tag_212\n      swap2\n      swap1\n      tag_213\n      jump\t// in\n    tag_212:\n      0x00\n      mload(0x40)\n      dup1\n      dup4\n      sub\n      dup2\n      dup6\n      gas\n      staticcall\n      swap2\n      pop\n      pop\n      returndatasize\n      dup1\n      0x00\n      dup2\n      eq\n      tag_216\n      jumpi\n      mload(0x40)\n      swap2\n      pop\n      and(add(returndatasize, 0x3f), not(0x1f))\n      dup3\n      add\n      0x40\n      mstore\n      returndatasize\n      dup3\n      mstore\n      returndatasize\n      0x00\n      0x20\n      dup5\n      add\n      returndatacopy\n      jump(tag_215)\n    tag_216:\n      0x60\n      swap2\n      pop\n    tag_215:\n      pop\n        /* \"@openzeppelin/contracts/utils/cryptography/SignatureChecker.sol\":1972:2111  (bool success, bytes memory result) = signer.staticcall(... */\n      swap2\n      pop\n      swap2\n      pop\n        /* \"@openzeppelin/contracts/utils/cryptography/SignatureChecker.sol\":2129:2136  success */\n      dup2\n        /* \"@openzeppelin/contracts/utils/cryptography/SignatureChecker.sol\":2129:2171  success &&... */\n      dup1\n      iszero\n      tag_217\n      jumpi\n      pop\n        /* \"@openzeppelin/contracts/utils/cryptography/SignatureChecker.sol\":2169:2171  32 */\n      0x20\n        /* \"@openzeppelin/contracts/utils/cryptography/SignatureChecker.sol\":2152:2158  result */\n      dup2\n        /* \"@openzeppelin/contracts/utils/cryptography/SignatureChecker.sol\":2152:2165  result.length */\n      mload\n        /* \"@openzeppelin/contracts/utils/cryptography/SignatureChecker.sol\":2152:2171  result.length >= 32 */\n      lt\n      iszero\n        /* \"@openzeppelin/contracts/utils/cryptography/SignatureChecker.sol\":2129:2171  success &&... */\n    tag_217:\n        /* \"@openzeppelin/contracts/utils/cryptography/SignatureChecker.sol\":2129:2263  success &&... */\n      dup1\n      iszero\n      tag_218\n      jumpi\n      pop\n        /* \"@openzeppelin/contracts/utils/cryptography/SignatureChecker.sol\":2228:2262  IERC1271.isValidSignature.selector */\n      shl(0xe0, 0x1626ba7e)\n        /* \"@openzeppelin/contracts/utils/cryptography/SignatureChecker.sol\":2220:2263  bytes32(IERC1271.isValidSignature.selector) */\n      not(0xffffffffffffffffffffffffffffffffffffffffffffffffffffffff)\n      and\n        /* \"@openzeppelin/contracts/utils/cryptography/SignatureChecker.sol\":2198:2204  result */\n      dup2\n        /* \"@openzeppelin/contracts/utils/cryptography/SignatureChecker.sol\":2187:2216  abi.decode(result, (bytes32)) */\n      dup1\n      0x20\n      add\n      swap1\n      mload\n      dup2\n      add\n      swap1\n      tag_219\n      swap2\n      swap1\n      tag_220\n      jump\t// in\n    tag_219:\n        /* \"@openzeppelin/contracts/utils/cryptography/SignatureChecker.sol\":2187:2263  abi.decode(result, (bytes32)) == bytes32(IERC1271.isValidSignature.selector) */\n      eq\n        /* \"@openzeppelin/contracts/utils/cryptography/SignatureChecker.sol\":2129:2263  success &&... */\n    tag_218:\n        /* \"@openzeppelin/contracts/utils/cryptography/SignatureChecker.sol\":2121:2264  return (success &&... */\n      swap3\n      pop\n      pop\n      pop\n        /* \"@openzeppelin/contracts/utils/cryptography/SignatureChecker.sol\":1813:2271  function isValidERC1271SignatureNow(... */\n      swap4\n      swap3\n      pop\n      pop\n      pop\n      jump\t// out\n        /* \"@openzeppelin/contracts/utils/cryptography/ECDSA.sol\":5140:6670  function tryRecover(... */\n    tag_207:\n        /* \"@openzeppelin/contracts/utils/cryptography/ECDSA.sol\":5266:5273  address */\n      0x00\n        /* \"@openzeppelin/contracts/utils/cryptography/ECDSA.sol\":5275:5287  RecoverError */\n      dup1\n        /* \"@openzeppelin/contracts/utils/cryptography/ECDSA.sol\":5289:5296  bytes32 */\n      0x00\n        /* \"@openzeppelin/contracts/utils/cryptography/ECDSA.sol\":6199:6265  0x7FFFFFFFFFFFFFFFFFFFFFFFFFFFFFFF5D576E7357A4501DDFE92F46681B20A0 */\n      0x7fffffffffffffffffffffffffffffff5d576e7357a4501ddfe92f46681b20a0\n        /* \"@openzeppelin/contracts/utils/cryptography/ECDSA.sol\":6194:6195  s */\n      dup5\n        /* \"@openzeppelin/contracts/utils/cryptography/ECDSA.sol\":6186:6196  uint256(s) */\n      0x00\n      shr\n        /* \"@openzeppelin/contracts/utils/cryptography/ECDSA.sol\":6186:6265  uint256(s) > 0x7FFFFFFFFFFFFFFFFFFFFFFFFFFFFFFF5D576E7357A4501DDFE92F46681B20A0 */\n      gt\n        /* \"@openzeppelin/contracts/utils/cryptography/ECDSA.sol\":6182:6346  if (uint256(s) > 0x7FFFFFFFFFFFFFFFFFFFFFFFFFFFFFFF5D576E7357A4501DDFE92F46681B20A0) {... */\n      iszero\n      tag_222\n      jumpi\n        /* \"@openzeppelin/contracts/utils/cryptography/ECDSA.sol\":6297:6298  0 */\n      0x00\n        /* \"@openzeppelin/contracts/utils/cryptography/ECDSA.sol\":6301:6331  RecoverError.InvalidSignatureS */\n      0x03\n        /* \"@openzeppelin/contracts/utils/cryptography/ECDSA.sol\":6333:6334  s */\n      dup6\n        /* \"@openzeppelin/contracts/utils/cryptography/ECDSA.sol\":6281:6335  return (address(0), RecoverError.InvalidSignatureS, s) */\n      swap3\n      pop\n      swap3\n      pop\n      swap3\n      pop\n      jump(tag_221)\n        /* \"@openzeppelin/contracts/utils/cryptography/ECDSA.sol\":6182:6346  if (uint256(s) > 0x7FFFFFFFFFFFFFFFFFFFFFFFFFFFFFFF5D576E7357A4501DDFE92F46681B20A0) {... */\n    tag_222:\n        /* \"@openzeppelin/contracts/utils/cryptography/ECDSA.sol\":6440:6454  address signer */\n      0x00\n        /* \"@openzeppelin/contracts/utils/cryptography/ECDSA.sol\":6457:6481  ecrecover(hash, v, r, s) */\n      0x01\n        /* \"@openzeppelin/contracts/utils/cryptography/ECDSA.sol\":6467:6471  hash */\n      dup9\n        /* \"@openzeppelin/contracts/utils/cryptography/ECDSA.sol\":6473:6474  v */\n      dup9\n        /* \"@openzeppelin/contracts/utils/cryptography/ECDSA.sol\":6476:6477  r */\n      dup9\n        /* \"@openzeppelin/contracts/utils/cryptography/ECDSA.sol\":6479:6480  s */\n      dup9\n        /* \"@openzeppelin/contracts/utils/cryptography/ECDSA.sol\":6457:6481  ecrecover(hash, v, r, s) */\n      mload(0x40)\n      0x00\n      dup2\n      mstore\n      0x20\n      add\n      0x40\n      mstore\n      mload(0x40)\n      tag_223\n      swap5\n      swap4\n      swap3\n      swap2\n      swap1\n      tag_224\n      jump\t// in\n    tag_223:\n      0x20\n      mload(0x40)\n      0x20\n      dup2\n      sub\n      swap1\n      dup1\n      dup5\n      sub\n      swap1\n      dup6\n      gas\n      staticcall\n      iszero\n      dup1\n      iszero\n      tag_226\n      jumpi\n      returndatasize\n      0x00\n      dup1\n      returndatacopy\n      revert(0x00, returndatasize)\n    tag_226:\n      pop\n      pop\n      pop\n      mload(sub(mload(0x40), 0x20))\n        /* \"@openzeppelin/contracts/utils/cryptography/ECDSA.sol\":6440:6481  address signer = ecrecover(hash, v, r, s) */\n      swap1\n      pop\n        /* \"@openzeppelin/contracts/utils/cryptography/ECDSA.sol\":6513:6514  0 */\n      0x00\n        /* \"@openzeppelin/contracts/utils/cryptography/ECDSA.sol\":6495:6515  signer == address(0) */\n      0xffffffffffffffffffffffffffffffffffffffff\n      and\n        /* \"@openzeppelin/contracts/utils/cryptography/ECDSA.sol\":6495:6501  signer */\n      dup2\n        /* \"@openzeppelin/contracts/utils/cryptography/ECDSA.sol\":6495:6515  signer == address(0) */\n      0xffffffffffffffffffffffffffffffffffffffff\n      and\n      sub\n        /* \"@openzeppelin/contracts/utils/cryptography/ECDSA.sol\":6491:6604  if (signer == address(0)) {... */\n      tag_227\n      jumpi\n        /* \"@openzeppelin/contracts/utils/cryptography/ECDSA.sol\":6547:6548  0 */\n      0x00\n        /* \"@openzeppelin/contracts/utils/cryptography/ECDSA.sol\":6551:6580  RecoverError.InvalidSignature */\n      0x01\n        /* \"@openzeppelin/contracts/utils/cryptography/ECDSA.sol\":6590:6591  0 */\n      0x00\n        /* \"@openzeppelin/contracts/utils/cryptography/ECDSA.sol\":6582:6592  bytes32(0) */\n      dup1\n      shl\n        /* \"@openzeppelin/contracts/utils/cryptography/ECDSA.sol\":6531:6593  return (address(0), RecoverError.InvalidSignature, bytes32(0)) */\n      swap4\n      pop\n      swap4\n      pop\n      swap4\n      pop\n      pop\n      jump(tag_221)\n        /* \"@openzeppelin/contracts/utils/cryptography/ECDSA.sol\":6491:6604  if (signer == address(0)) {... */\n    tag_227:\n        /* \"@openzeppelin/contracts/utils/cryptography/ECDSA.sol\":6622:6628  signer */\n      dup1\n        /* \"@openzeppelin/contracts/utils/cryptography/ECDSA.sol\":6630:6650  RecoverError.NoError */\n      0x00\n        /* \"@openzeppelin/contracts/utils/cryptography/ECDSA.sol\":6660:6661  0 */\n      dup1\n        /* \"@openzeppelin/contracts/utils/cryptography/ECDSA.sol\":6652:6662  bytes32(0) */\n      0x00\n      shl\n        /* \"@openzeppelin/contracts/utils/cryptography/ECDSA.sol\":6614:6663  return (signer, RecoverError.NoError, bytes32(0)) */\n      swap4\n      pop\n      swap4\n      pop\n      swap4\n      pop\n      pop\n        /* \"@openzeppelin/contracts/utils/cryptography/ECDSA.sol\":5140:6670  function tryRecover(... */\n    tag_221:\n      swap5\n      pop\n      swap5\n      pop\n      swap5\n      swap2\n      pop\n      pop\n      jump\t// out\n        /* \"#utility.yul\":7:82   */\n    tag_228:\n        /* \"#utility.yul\":40:46   */\n      0x00\n        /* \"#utility.yul\":73:75   */\n      0x40\n        /* \"#utility.yul\":67:76   */\n      mload\n        /* \"#utility.yul\":57:76   */\n      swap1\n      pop\n        /* \"#utility.yul\":7:82   */\n      swap1\n      jump\t// out\n        /* \"#utility.yul\":88:205   */\n    tag_229:\n        /* \"#utility.yul\":197:198   */\n      0x00\n        /* \"#utility.yul\":194:195   */\n      dup1\n        /* \"#utility.yul\":187:199   */\n      revert\n        /* \"#utility.yul\":211:328   */\n    tag_230:\n        /* \"#utility.yul\":320:321   */\n      0x00\n        /* \"#utility.yul\":317:318   */\n      dup1\n        /* \"#utility.yul\":310:322   */\n      revert\n        /* \"#utility.yul\":334:483   */\n    tag_231:\n        /* \"#utility.yul\":370:377   */\n      0x00\n        /* \"#utility.yul\":410:476   */\n      0xffffffff00000000000000000000000000000000000000000000000000000000\n        /* \"#utility.yul\":403:408   */\n      dup3\n        /* \"#utility.yul\":399:477   */\n      and\n        /* \"#utility.yul\":388:477   */\n      swap1\n      pop\n        /* \"#utility.yul\":334:483   */\n      swap2\n      swap1\n      pop\n      jump\t// out\n        /* \"#utility.yul\":489:609   */\n    tag_232:\n        /* \"#utility.yul\":561:584   */\n      tag_291\n        /* \"#utility.yul\":578:583   */\n      dup2\n        /* \"#utility.yul\":561:584   */\n      tag_231\n      jump\t// in\n    tag_291:\n        /* \"#utility.yul\":554:559   */\n      dup2\n        /* \"#utility.yul\":551:585   */\n      eq\n        /* \"#utility.yul\":541:603   */\n      tag_292\n      jumpi\n        /* \"#utility.yul\":599:600   */\n      0x00\n        /* \"#utility.yul\":596:597   */\n      dup1\n        /* \"#utility.yul\":589:601   */\n      revert\n        /* \"#utility.yul\":541:603   */\n    tag_292:\n        /* \"#utility.yul\":489:609   */\n      pop\n      jump\t// out\n        /* \"#utility.yul\":615:752   */\n    tag_233:\n        /* \"#utility.yul\":660:665   */\n      0x00\n        /* \"#utility.yul\":698:704   */\n      dup2\n        /* \"#utility.yul\":685:705   */\n      calldataload\n        /* \"#utility.yul\":676:705   */\n      swap1\n      pop\n        /* \"#utility.yul\":714:746   */\n      tag_294\n        /* \"#utility.yul\":740:745   */\n      dup2\n        /* \"#utility.yul\":714:746   */\n      tag_232\n      jump\t// in\n    tag_294:\n        /* \"#utility.yul\":615:752   */\n      swap3\n      swap2\n      pop\n      pop\n      jump\t// out\n        /* \"#utility.yul\":758:1085   */\n    tag_23:\n        /* \"#utility.yul\":816:822   */\n      0x00\n        /* \"#utility.yul\":865:867   */\n      0x20\n        /* \"#utility.yul\":853:862   */\n      dup3\n        /* \"#utility.yul\":844:851   */\n      dup5\n        /* \"#utility.yul\":840:863   */\n      sub\n        /* \"#utility.yul\":836:868   */\n      slt\n        /* \"#utility.yul\":833:952   */\n      iszero\n      tag_296\n      jumpi\n        /* \"#utility.yul\":871:950   */\n      tag_297\n      tag_229\n      jump\t// in\n    tag_297:\n        /* \"#utility.yul\":833:952   */\n    tag_296:\n        /* \"#utility.yul\":991:992   */\n      0x00\n        /* \"#utility.yul\":1016:1068   */\n      tag_298\n        /* \"#utility.yul\":1060:1067   */\n      dup5\n        /* \"#utility.yul\":1051:1057   */\n      dup3\n        /* \"#utility.yul\":1040:1049   */\n      dup6\n        /* \"#utility.yul\":1036:1058   */\n      add\n        /* \"#utility.yul\":1016:1068   */\n      tag_233\n      jump\t// in\n    tag_298:\n        /* \"#utility.yul\":1006:1068   */\n      swap2\n      pop\n        /* \"#utility.yul\":962:1078   */\n      pop\n        /* \"#utility.yul\":758:1085   */\n      swap3\n      swap2\n      pop\n      pop\n      jump\t// out\n        /* \"#utility.yul\":1091:1181   */\n    tag_234:\n        /* \"#utility.yul\":1125:1132   */\n      0x00\n        /* \"#utility.yul\":1168:1173   */\n      dup2\n        /* \"#utility.yul\":1161:1174   */\n      iszero\n        /* \"#utility.yul\":1154:1175   */\n      iszero\n        /* \"#utility.yul\":1143:1175   */\n      swap1\n      pop\n        /* \"#utility.yul\":1091:1181   */\n      swap2\n      swap1\n      pop\n      jump\t// out\n        /* \"#utility.yul\":1187:1296   */\n    tag_235:\n        /* \"#utility.yul\":1268:1289   */\n      tag_301\n        /* \"#utility.yul\":1283:1288   */\n      dup2\n        /* \"#utility.yul\":1268:1289   */\n      tag_234\n      jump\t// in\n    tag_301:\n        /* \"#utility.yul\":1263:1266   */\n      dup3\n        /* \"#utility.yul\":1256:1290   */\n      mstore\n        /* \"#utility.yul\":1187:1296   */\n      pop\n      pop\n      jump\t// out\n        /* \"#utility.yul\":1302:1512   */\n    tag_26:\n        /* \"#utility.yul\":1389:1393   */\n      0x00\n        /* \"#utility.yul\":1427:1429   */\n      0x20\n        /* \"#utility.yul\":1416:1425   */\n      dup3\n        /* \"#utility.yul\":1412:1430   */\n      add\n        /* \"#utility.yul\":1404:1430   */\n      swap1\n      pop\n        /* \"#utility.yul\":1440:1505   */\n      tag_303\n        /* \"#utility.yul\":1502:1503   */\n      0x00\n        /* \"#utility.yul\":1491:1500   */\n      dup4\n        /* \"#utility.yul\":1487:1504   */\n      add\n        /* \"#utility.yul\":1478:1484   */\n      dup5\n        /* \"#utility.yul\":1440:1505   */\n      tag_235\n      jump\t// in\n    tag_303:\n        /* \"#utility.yul\":1302:1512   */\n      swap3\n      swap2\n      pop\n      pop\n      jump\t// out\n        /* \"#utility.yul\":1518:1644   */\n    tag_236:\n        /* \"#utility.yul\":1555:1562   */\n      0x00\n        /* \"#utility.yul\":1595:1637   */\n      0xffffffffffffffffffffffffffffffffffffffff\n        /* \"#utility.yul\":1588:1593   */\n      dup3\n        /* \"#utility.yul\":1584:1638   */\n      and\n        /* \"#utility.yul\":1573:1638   */\n      swap1\n      pop\n        /* \"#utility.yul\":1518:1644   */\n      swap2\n      swap1\n      pop\n      jump\t// out\n        /* \"#utility.yul\":1650:1746   */\n    tag_237:\n        /* \"#utility.yul\":1687:1694   */\n      0x00\n        /* \"#utility.yul\":1716:1740   */\n      tag_306\n        /* \"#utility.yul\":1734:1739   */\n      dup3\n        /* \"#utility.yul\":1716:1740   */\n      tag_236\n      jump\t// in\n    tag_306:\n        /* \"#utility.yul\":1705:1740   */\n      swap1\n      pop\n        /* \"#utility.yul\":1650:1746   */\n      swap2\n      swap1\n      pop\n      jump\t// out\n        /* \"#utility.yul\":1752:1874   */\n    tag_238:\n        /* \"#utility.yul\":1825:1849   */\n      tag_308\n        /* \"#utility.yul\":1843:1848   */\n      dup2\n        /* \"#utility.yul\":1825:1849   */\n      tag_237\n      jump\t// in\n    tag_308:\n        /* \"#utility.yul\":1818:1823   */\n      dup2\n        /* \"#utility.yul\":1815:1850   */\n      eq\n        /* \"#utility.yul\":1805:1868   */\n      tag_309\n      jumpi\n        /* \"#utility.yul\":1864:1865   */\n      0x00\n        /* \"#utility.yul\":1861:1862   */\n      dup1\n        /* \"#utility.yul\":1854:1866   */\n      revert\n        /* \"#utility.yul\":1805:1868   */\n    tag_309:\n        /* \"#utility.yul\":1752:1874   */\n      pop\n      jump\t// out\n        /* \"#utility.yul\":1880:2019   */\n    tag_239:\n        /* \"#utility.yul\":1926:1931   */\n      0x00\n        /* \"#utility.yul\":1964:1970   */\n      dup2\n        /* \"#utility.yul\":1951:1971   */\n      calldataload\n        /* \"#utility.yul\":1942:1971   */\n      swap1\n      pop\n        /* \"#utility.yul\":1980:2013   */\n      tag_311\n        /* \"#utility.yul\":2007:2012   */\n      dup2\n        /* \"#utility.yul\":1980:2013   */\n      tag_238\n      jump\t// in\n    tag_311:\n        /* \"#utility.yul\":1880:2019   */\n      swap3\n      swap2\n      pop\n      pop\n      jump\t// out\n        /* \"#utility.yul\":2025:2141   */\n    tag_240:\n        /* \"#utility.yul\":2095:2116   */\n      tag_313\n        /* \"#utility.yul\":2110:2115   */\n      dup2\n        /* \"#utility.yul\":2095:2116   */\n      tag_234\n      jump\t// in\n    tag_313:\n        /* \"#utility.yul\":2088:2093   */\n      dup2\n        /* \"#utility.yul\":2085:2117   */\n      eq\n        /* \"#utility.yul\":2075:2135   */\n      tag_314\n      jumpi\n        /* \"#utility.yul\":2131:2132   */\n      0x00\n        /* \"#utility.yul\":2128:2129   */\n      dup1\n        /* \"#utility.yul\":2121:2133   */\n      revert\n        /* \"#utility.yul\":2075:2135   */\n    tag_314:\n        /* \"#utility.yul\":2025:2141   */\n      pop\n      jump\t// out\n        /* \"#utility.yul\":2147:2280   */\n    tag_241:\n        /* \"#utility.yul\":2190:2195   */\n      0x00\n        /* \"#utility.yul\":2228:2234   */\n      dup2\n        /* \"#utility.yul\":2215:2235   */\n      calldataload\n        /* \"#utility.yul\":2206:2235   */\n      swap1\n      pop\n        /* \"#utility.yul\":2244:2274   */\n      tag_316\n        /* \"#utility.yul\":2268:2273   */\n      dup2\n        /* \"#utility.yul\":2244:2274   */\n      tag_240\n      jump\t// in\n    tag_316:\n        /* \"#utility.yul\":2147:2280   */\n      swap3\n      swap2\n      pop\n      pop\n      jump\t// out\n        /* \"#utility.yul\":2286:2899   */\n    tag_30:\n        /* \"#utility.yul\":2360:2366   */\n      0x00\n        /* \"#utility.yul\":2368:2374   */\n      dup1\n        /* \"#utility.yul\":2376:2382   */\n      0x00\n        /* \"#utility.yul\":2425:2427   */\n      0x60\n        /* \"#utility.yul\":2413:2422   */\n      dup5\n        /* \"#utility.yul\":2404:2411   */\n      dup7\n        /* \"#utility.yul\":2400:2423   */\n      sub\n        /* \"#utility.yul\":2396:2428   */\n      slt\n        /* \"#utility.yul\":2393:2512   */\n      iszero\n      tag_318\n      jumpi\n        /* \"#utility.yul\":2431:2510   */\n      tag_319\n      tag_229\n      jump\t// in\n    tag_319:\n        /* \"#utility.yul\":2393:2512   */\n    tag_318:\n        /* \"#utility.yul\":2551:2552   */\n      0x00\n        /* \"#utility.yul\":2576:2629   */\n      tag_320\n        /* \"#utility.yul\":2621:2628   */\n      dup7\n        /* \"#utility.yul\":2612:2618   */\n      dup3\n        /* \"#utility.yul\":2601:2610   */\n      dup8\n        /* \"#utility.yul\":2597:2619   */\n      add\n        /* \"#utility.yul\":2576:2629   */\n      tag_239\n      jump\t// in\n    tag_320:\n        /* \"#utility.yul\":2566:2629   */\n      swap4\n      pop\n        /* \"#utility.yul\":2522:2639   */\n      pop\n        /* \"#utility.yul\":2678:2680   */\n      0x20\n        /* \"#utility.yul\":2704:2754   */\n      tag_321\n        /* \"#utility.yul\":2746:2753   */\n      dup7\n        /* \"#utility.yul\":2737:2743   */\n      dup3\n        /* \"#utility.yul\":2726:2735   */\n      dup8\n        /* \"#utility.yul\":2722:2744   */\n      add\n        /* \"#utility.yul\":2704:2754   */\n      tag_241\n      jump\t// in\n    tag_321:\n        /* \"#utility.yul\":2694:2754   */\n      swap3\n      pop\n        /* \"#utility.yul\":2649:2764   */\n      pop\n        /* \"#utility.yul\":2803:2805   */\n      0x40\n        /* \"#utility.yul\":2829:2882   */\n      tag_322\n        /* \"#utility.yul\":2874:2881   */\n      dup7\n        /* \"#utility.yul\":2865:2871   */\n      dup3\n        /* \"#utility.yul\":2854:2863   */\n      dup8\n        /* \"#utility.yul\":2850:2872   */\n      add\n        /* \"#utility.yul\":2829:2882   */\n      tag_239\n      jump\t// in\n    tag_322:\n        /* \"#utility.yul\":2819:2882   */\n      swap2\n      pop\n        /* \"#utility.yul\":2774:2892   */\n      pop\n        /* \"#utility.yul\":2286:2899   */\n      swap3\n      pop\n      swap3\n      pop\n      swap3\n      jump\t// out\n        /* \"#utility.yul\":2905:2982   */\n    tag_242:\n        /* \"#utility.yul\":2942:2949   */\n      0x00\n        /* \"#utility.yul\":2971:2976   */\n      dup2\n        /* \"#utility.yul\":2960:2976   */\n      swap1\n      pop\n        /* \"#utility.yul\":2905:2982   */\n      swap2\n      swap1\n      pop\n      jump\t// out\n        /* \"#utility.yul\":2988:3110   */\n    tag_243:\n        /* \"#utility.yul\":3061:3085   */\n      tag_325\n        /* \"#utility.yul\":3079:3084   */\n      dup2\n        /* \"#utility.yul\":3061:3085   */\n      tag_242\n      jump\t// in\n    tag_325:\n        /* \"#utility.yul\":3054:3059   */\n      dup2\n        /* \"#utility.yul\":3051:3086   */\n      eq\n        /* \"#utility.yul\":3041:3104   */\n      tag_326\n      jumpi\n        /* \"#utility.yul\":3100:3101   */\n      0x00\n        /* \"#utility.yul\":3097:3098   */\n      dup1\n        /* \"#utility.yul\":3090:3102   */\n      revert\n        /* \"#utility.yul\":3041:3104   */\n    tag_326:\n        /* \"#utility.yul\":2988:3110   */\n      pop\n      jump\t// out\n        /* \"#utility.yul\":3116:3255   */\n    tag_244:\n        /* \"#utility.yul\":3162:3167   */\n      0x00\n        /* \"#utility.yul\":3200:3206   */\n      dup2\n        /* \"#utility.yul\":3187:3207   */\n      calldataload\n        /* \"#utility.yul\":3178:3207   */\n      swap1\n      pop\n        /* \"#utility.yul\":3216:3249   */\n      tag_328\n        /* \"#utility.yul\":3243:3248   */\n      dup2\n        /* \"#utility.yul\":3216:3249   */\n      tag_243\n      jump\t// in\n    tag_328:\n        /* \"#utility.yul\":3116:3255   */\n      swap3\n      swap2\n      pop\n      pop\n      jump\t// out\n        /* \"#utility.yul\":3261:3378   */\n    tag_245:\n        /* \"#utility.yul\":3370:3371   */\n      0x00\n        /* \"#utility.yul\":3367:3368   */\n      dup1\n        /* \"#utility.yul\":3360:3372   */\n      revert\n        /* \"#utility.yul\":3384:3501   */\n    tag_246:\n        /* \"#utility.yul\":3493:3494   */\n      0x00\n        /* \"#utility.yul\":3490:3491   */\n      dup1\n        /* \"#utility.yul\":3483:3495   */\n      revert\n        /* \"#utility.yul\":3507:3609   */\n    tag_247:\n        /* \"#utility.yul\":3548:3554   */\n      0x00\n        /* \"#utility.yul\":3599:3601   */\n      0x1f\n        /* \"#utility.yul\":3595:3602   */\n      not\n        /* \"#utility.yul\":3590:3592   */\n      0x1f\n        /* \"#utility.yul\":3583:3588   */\n      dup4\n        /* \"#utility.yul\":3579:3593   */\n      add\n        /* \"#utility.yul\":3575:3603   */\n      and\n        /* \"#utility.yul\":3565:3603   */\n      swap1\n      pop\n        /* \"#utility.yul\":3507:3609   */\n      swap2\n      swap1\n      pop\n      jump\t// out\n        /* \"#utility.yul\":3615:3795   */\n    tag_200:\n        /* \"#utility.yul\":3663:3740   */\n      0x4e487b7100000000000000000000000000000000000000000000000000000000\n        /* \"#utility.yul\":3660:3661   */\n      0x00\n        /* \"#utility.yul\":3653:3741   */\n      mstore\n        /* \"#utility.yul\":3760:3764   */\n      0x41\n        /* \"#utility.yul\":3757:3758   */\n      0x04\n        /* \"#utility.yul\":3750:3765   */\n      mstore\n        /* \"#utility.yul\":3784:3788   */\n      0x24\n        /* \"#utility.yul\":3781:3782   */\n      0x00\n        /* \"#utility.yul\":3774:3789   */\n      revert\n        /* \"#utility.yul\":3801:4082   */\n    tag_248:\n        /* \"#utility.yul\":3884:3911   */\n      tag_334\n        /* \"#utility.yul\":3906:3910   */\n      dup3\n        /* \"#utility.yul\":3884:3911   */\n      tag_247\n      jump\t// in\n    tag_334:\n        /* \"#utility.yul\":3876:3882   */\n      dup2\n        /* \"#utility.yul\":3872:3912   */\n      add\n        /* \"#utility.yul\":4014:4020   */\n      dup2\n        /* \"#utility.yul\":4002:4012   */\n      dup2\n        /* \"#utility.yul\":3999:4021   */\n      lt\n        /* \"#utility.yul\":3978:3996   */\n      0xffffffffffffffff\n        /* \"#utility.yul\":3966:3976   */\n      dup3\n        /* \"#utility.yul\":3963:3997   */\n      gt\n        /* \"#utility.yul\":3960:4022   */\n      or\n        /* \"#utility.yul\":3957:4045   */\n      iszero\n      tag_335\n      jumpi\n        /* \"#utility.yul\":4025:4043   */\n      tag_336\n      tag_200\n      jump\t// in\n    tag_336:\n        /* \"#utility.yul\":3957:4045   */\n    tag_335:\n        /* \"#utility.yul\":4065:4075   */\n      dup1\n        /* \"#utility.yul\":4061:4063   */\n      0x40\n        /* \"#utility.yul\":4054:4076   */\n      mstore\n        /* \"#utility.yul\":3844:4082   */\n      pop\n        /* \"#utility.yul\":3801:4082   */\n      pop\n      pop\n      jump\t// out\n        /* \"#utility.yul\":4088:4217   */\n    tag_249:\n        /* \"#utility.yul\":4122:4128   */\n      0x00\n        /* \"#utility.yul\":4149:4169   */\n      tag_338\n      tag_228\n      jump\t// in\n    tag_338:\n        /* \"#utility.yul\":4139:4169   */\n      swap1\n      pop\n        /* \"#utility.yul\":4178:4211   */\n      tag_339\n        /* \"#utility.yul\":4206:4210   */\n      dup3\n        /* \"#utility.yul\":4198:4204   */\n      dup3\n        /* \"#utility.yul\":4178:4211   */\n      tag_248\n      jump\t// in\n    tag_339:\n        /* \"#utility.yul\":4088:4217   */\n      swap2\n      swap1\n      pop\n      jump\t// out\n        /* \"#utility.yul\":4223:4530   */\n    tag_250:\n        /* \"#utility.yul\":4284:4288   */\n      0x00\n        /* \"#utility.yul\":4374:4392   */\n      0xffffffffffffffff\n        /* \"#utility.yul\":4366:4372   */\n      dup3\n        /* \"#utility.yul\":4363:4393   */\n      gt\n        /* \"#utility.yul\":4360:4416   */\n      iszero\n      tag_341\n      jumpi\n        /* \"#utility.yul\":4396:4414   */\n      tag_342\n      tag_200\n      jump\t// in\n    tag_342:\n        /* \"#utility.yul\":4360:4416   */\n    tag_341:\n        /* \"#utility.yul\":4434:4463   */\n      tag_343\n        /* \"#utility.yul\":4456:4462   */\n      dup3\n        /* \"#utility.yul\":4434:4463   */\n      tag_247\n      jump\t// in\n    tag_343:\n        /* \"#utility.yul\":4426:4463   */\n      swap1\n      pop\n        /* \"#utility.yul\":4518:4522   */\n      0x20\n        /* \"#utility.yul\":4512:4516   */\n      dup2\n        /* \"#utility.yul\":4508:4523   */\n      add\n        /* \"#utility.yul\":4500:4523   */\n      swap1\n      pop\n        /* \"#utility.yul\":4223:4530   */\n      swap2\n      swap1\n      pop\n      jump\t// out\n        /* \"#utility.yul\":4536:4682   */\n    tag_251:\n        /* \"#utility.yul\":4633:4639   */\n      dup3\n        /* \"#utility.yul\":4628:4631   */\n      dup2\n        /* \"#utility.yul\":4623:4626   */\n      dup4\n        /* \"#utility.yul\":4610:4640   */\n      calldatacopy\n        /* \"#utility.yul\":4674:4675   */\n      0x00\n        /* \"#utility.yul\":4665:4671   */\n      dup4\n        /* \"#utility.yul\":4660:4663   */\n      dup4\n        /* \"#utility.yul\":4656:4672   */\n      add\n        /* \"#utility.yul\":4649:4676   */\n      mstore\n        /* \"#utility.yul\":4536:4682   */\n      pop\n      pop\n      pop\n      jump\t// out\n        /* \"#utility.yul\":4688:5111   */\n    tag_252:\n        /* \"#utility.yul\":4765:4770   */\n      0x00\n        /* \"#utility.yul\":4790:4855   */\n      tag_346\n        /* \"#utility.yul\":4806:4854   */\n      tag_347\n        /* \"#utility.yul\":4847:4853   */\n      dup5\n        /* \"#utility.yul\":4806:4854   */\n      tag_250\n      jump\t// in\n    tag_347:\n        /* \"#utility.yul\":4790:4855   */\n      tag_249\n      jump\t// in\n    tag_346:\n        /* \"#utility.yul\":4781:4855   */\n      swap1\n      pop\n        /* \"#utility.yul\":4878:4884   */\n      dup3\n        /* \"#utility.yul\":4871:4876   */\n      dup2\n        /* \"#utility.yul\":4864:4885   */\n      mstore\n        /* \"#utility.yul\":4916:4920   */\n      0x20\n        /* \"#utility.yul\":4909:4914   */\n      dup2\n        /* \"#utility.yul\":4905:4921   */\n      add\n        /* \"#utility.yul\":4954:4957   */\n      dup5\n        /* \"#utility.yul\":4945:4951   */\n      dup5\n        /* \"#utility.yul\":4940:4943   */\n      dup5\n        /* \"#utility.yul\":4936:4952   */\n      add\n        /* \"#utility.yul\":4933:4958   */\n      gt\n        /* \"#utility.yul\":4930:5042   */\n      iszero\n      tag_348\n      jumpi\n        /* \"#utility.yul\":4961:5040   */\n      tag_349\n      tag_246\n      jump\t// in\n    tag_349:\n        /* \"#utility.yul\":4930:5042   */\n    tag_348:\n        /* \"#utility.yul\":5051:5105   */\n      tag_350\n        /* \"#utility.yul\":5098:5104   */\n      dup5\n        /* \"#utility.yul\":5093:5096   */\n      dup3\n        /* \"#utility.yul\":5088:5091   */\n      dup6\n        /* \"#utility.yul\":5051:5105   */\n      tag_251\n      jump\t// in\n    tag_350:\n        /* \"#utility.yul\":4771:5111   */\n      pop\n        /* \"#utility.yul\":4688:5111   */\n      swap4\n      swap3\n      pop\n      pop\n      pop\n      jump\t// out\n        /* \"#utility.yul\":5130:5468   */\n    tag_253:\n        /* \"#utility.yul\":5185:5190   */\n      0x00\n        /* \"#utility.yul\":5234:5237   */\n      dup3\n        /* \"#utility.yul\":5227:5231   */\n      0x1f\n        /* \"#utility.yul\":5219:5225   */\n      dup4\n        /* \"#utility.yul\":5215:5232   */\n      add\n        /* \"#utility.yul\":5211:5238   */\n      slt\n        /* \"#utility.yul\":5201:5323   */\n      tag_352\n      jumpi\n        /* \"#utility.yul\":5242:5321   */\n      tag_353\n      tag_245\n      jump\t// in\n    tag_353:\n        /* \"#utility.yul\":5201:5323   */\n    tag_352:\n        /* \"#utility.yul\":5359:5365   */\n      dup2\n        /* \"#utility.yul\":5346:5366   */\n      calldataload\n        /* \"#utility.yul\":5384:5462   */\n      tag_354\n        /* \"#utility.yul\":5458:5461   */\n      dup5\n        /* \"#utility.yul\":5450:5456   */\n      dup3\n        /* \"#utility.yul\":5443:5447   */\n      0x20\n        /* \"#utility.yul\":5435:5441   */\n      dup7\n        /* \"#utility.yul\":5431:5448   */\n      add\n        /* \"#utility.yul\":5384:5462   */\n      tag_252\n      jump\t// in\n    tag_354:\n        /* \"#utility.yul\":5375:5462   */\n      swap2\n      pop\n        /* \"#utility.yul\":5191:5468   */\n      pop\n        /* \"#utility.yul\":5130:5468   */\n      swap3\n      swap2\n      pop\n      pop\n      jump\t// out\n        /* \"#utility.yul\":5474:6126   */\n    tag_35:\n        /* \"#utility.yul\":5551:5557   */\n      0x00\n        /* \"#utility.yul\":5559:5565   */\n      dup1\n        /* \"#utility.yul\":5608:5610   */\n      0x40\n        /* \"#utility.yul\":5596:5605   */\n      dup4\n        /* \"#utility.yul\":5587:5594   */\n      dup6\n        /* \"#utility.yul\":5583:5606   */\n      sub\n        /* \"#utility.yul\":5579:5611   */\n      slt\n        /* \"#utility.yul\":5576:5695   */\n      iszero\n      tag_356\n      jumpi\n        /* \"#utility.yul\":5614:5693   */\n      tag_357\n      tag_229\n      jump\t// in\n    tag_357:\n        /* \"#utility.yul\":5576:5695   */\n    tag_356:\n        /* \"#utility.yul\":5734:5735   */\n      0x00\n        /* \"#utility.yul\":5759:5812   */\n      tag_358\n        /* \"#utility.yul\":5804:5811   */\n      dup6\n        /* \"#utility.yul\":5795:5801   */\n      dup3\n        /* \"#utility.yul\":5784:5793   */\n      dup7\n        /* \"#utility.yul\":5780:5802   */\n      add\n        /* \"#utility.yul\":5759:5812   */\n      tag_244\n      jump\t// in\n    tag_358:\n        /* \"#utility.yul\":5749:5812   */\n      swap3\n      pop\n        /* \"#utility.yul\":5705:5822   */\n      pop\n        /* \"#utility.yul\":5889:5891   */\n      0x20\n        /* \"#utility.yul\":5878:5887   */\n      dup4\n        /* \"#utility.yul\":5874:5892   */\n      add\n        /* \"#utility.yul\":5861:5893   */\n      calldataload\n        /* \"#utility.yul\":5920:5938   */\n      0xffffffffffffffff\n        /* \"#utility.yul\":5912:5918   */\n      dup2\n        /* \"#utility.yul\":5909:5939   */\n      gt\n        /* \"#utility.yul\":5906:6023   */\n      iszero\n      tag_359\n      jumpi\n        /* \"#utility.yul\":5942:6021   */\n      tag_360\n      tag_230\n      jump\t// in\n    tag_360:\n        /* \"#utility.yul\":5906:6023   */\n    tag_359:\n        /* \"#utility.yul\":6047:6109   */\n      tag_361\n        /* \"#utility.yul\":6101:6108   */\n      dup6\n        /* \"#utility.yul\":6092:6098   */\n      dup3\n        /* \"#utility.yul\":6081:6090   */\n      dup7\n        /* \"#utility.yul\":6077:6099   */\n      add\n        /* \"#utility.yul\":6047:6109   */\n      tag_253\n      jump\t// in\n    tag_361:\n        /* \"#utility.yul\":6037:6109   */\n      swap2\n      pop\n        /* \"#utility.yul\":5832:6119   */\n      pop\n        /* \"#utility.yul\":5474:6126   */\n      swap3\n      pop\n      swap3\n      swap1\n      pop\n      jump\t// out\n        /* \"#utility.yul\":6132:6247   */\n    tag_254:\n        /* \"#utility.yul\":6217:6240   */\n      tag_363\n        /* \"#utility.yul\":6234:6239   */\n      dup2\n        /* \"#utility.yul\":6217:6240   */\n      tag_231\n      jump\t// in\n    tag_363:\n        /* \"#utility.yul\":6212:6215   */\n      dup3\n        /* \"#utility.yul\":6205:6241   */\n      mstore\n        /* \"#utility.yul\":6132:6247   */\n      pop\n      pop\n      jump\t// out\n        /* \"#utility.yul\":6253:6471   */\n    tag_38:\n        /* \"#utility.yul\":6344:6348   */\n      0x00\n        /* \"#utility.yul\":6382:6384   */\n      0x20\n        /* \"#utility.yul\":6371:6380   */\n      dup3\n        /* \"#utility.yul\":6367:6385   */\n      add\n        /* \"#utility.yul\":6359:6385   */\n      swap1\n      pop\n        /* \"#utility.yul\":6395:6464   */\n      tag_365\n        /* \"#utility.yul\":6461:6462   */\n      0x00\n        /* \"#utility.yul\":6450:6459   */\n      dup4\n        /* \"#utility.yul\":6446:6463   */\n      add\n        /* \"#utility.yul\":6437:6443   */\n      dup5\n        /* \"#utility.yul\":6395:6464   */\n      tag_254\n      jump\t// in\n    tag_365:\n        /* \"#utility.yul\":6253:6471   */\n      swap3\n      swap2\n      pop\n      pop\n      jump\t// out\n        /* \"#utility.yul\":6477:6554   */\n    tag_255:\n        /* \"#utility.yul\":6514:6521   */\n      0x00\n        /* \"#utility.yul\":6543:6548   */\n      dup2\n        /* \"#utility.yul\":6532:6548   */\n      swap1\n      pop\n        /* \"#utility.yul\":6477:6554   */\n      swap2\n      swap1\n      pop\n      jump\t// out\n        /* \"#utility.yul\":6560:6682   */\n    tag_256:\n        /* \"#utility.yul\":6633:6657   */\n      tag_368\n        /* \"#utility.yul\":6651:6656   */\n      dup2\n        /* \"#utility.yul\":6633:6657   */\n      tag_255\n      jump\t// in\n    tag_368:\n        /* \"#utility.yul\":6626:6631   */\n      dup2\n        /* \"#utility.yul\":6623:6658   */\n      eq\n        /* \"#utility.yul\":6613:6676   */\n      tag_369\n      jumpi\n        /* \"#utility.yul\":6672:6673   */\n      0x00\n        /* \"#utility.yul\":6669:6670   */\n      dup1\n        /* \"#utility.yul\":6662:6674   */\n      revert\n        /* \"#utility.yul\":6613:6676   */\n    tag_369:\n        /* \"#utility.yul\":6560:6682   */\n      pop\n      jump\t// out\n        /* \"#utility.yul\":6688:6827   */\n    tag_257:\n        /* \"#utility.yul\":6734:6739   */\n      0x00\n        /* \"#utility.yul\":6772:6778   */\n      dup2\n        /* \"#utility.yul\":6759:6779   */\n      calldataload\n        /* \"#utility.yul\":6750:6779   */\n      swap1\n      pop\n        /* \"#utility.yul\":6788:6821   */\n      tag_371\n        /* \"#utility.yul\":6815:6820   */\n      dup2\n        /* \"#utility.yul\":6788:6821   */\n      tag_256\n      jump\t// in\n    tag_371:\n        /* \"#utility.yul\":6688:6827   */\n      swap3\n      swap2\n      pop\n      pop\n      jump\t// out\n        /* \"#utility.yul\":6833:7452   */\n    tag_42:\n        /* \"#utility.yul\":6910:6916   */\n      0x00\n        /* \"#utility.yul\":6918:6924   */\n      dup1\n        /* \"#utility.yul\":6926:6932   */\n      0x00\n        /* \"#utility.yul\":6975:6977   */\n      0x60\n        /* \"#utility.yul\":6963:6972   */\n      dup5\n        /* \"#utility.yul\":6954:6961   */\n      dup7\n        /* \"#utility.yul\":6950:6973   */\n      sub\n        /* \"#utility.yul\":6946:6978   */\n      slt\n        /* \"#utility.yul\":6943:7062   */\n      iszero\n      tag_373\n      jumpi\n        /* \"#utility.yul\":6981:7060   */\n      tag_374\n      tag_229\n      jump\t// in\n    tag_374:\n        /* \"#utility.yul\":6943:7062   */\n    tag_373:\n        /* \"#utility.yul\":7101:7102   */\n      0x00\n        /* \"#utility.yul\":7126:7179   */\n      tag_375\n        /* \"#utility.yul\":7171:7178   */\n      dup7\n        /* \"#utility.yul\":7162:7168   */\n      dup3\n        /* \"#utility.yul\":7151:7160   */\n      dup8\n        /* \"#utility.yul\":7147:7169   */\n      add\n        /* \"#utility.yul\":7126:7179   */\n      tag_239\n      jump\t// in\n    tag_375:\n        /* \"#utility.yul\":7116:7179   */\n      swap4\n      pop\n        /* \"#utility.yul\":7072:7189   */\n      pop\n        /* \"#utility.yul\":7228:7230   */\n      0x20\n        /* \"#utility.yul\":7254:7307   */\n      tag_376\n        /* \"#utility.yul\":7299:7306   */\n      dup7\n        /* \"#utility.yul\":7290:7296   */\n      dup3\n        /* \"#utility.yul\":7279:7288   */\n      dup8\n        /* \"#utility.yul\":7275:7297   */\n      add\n        /* \"#utility.yul\":7254:7307   */\n      tag_257\n      jump\t// in\n    tag_376:\n        /* \"#utility.yul\":7244:7307   */\n      swap3\n      pop\n        /* \"#utility.yul\":7199:7317   */\n      pop\n        /* \"#utility.yul\":7356:7358   */\n      0x40\n        /* \"#utility.yul\":7382:7435   */\n      tag_377\n        /* \"#utility.yul\":7427:7434   */\n      dup7\n        /* \"#utility.yul\":7418:7424   */\n      dup3\n        /* \"#utility.yul\":7407:7416   */\n      dup8\n        /* \"#utility.yul\":7403:7425   */\n      add\n        /* \"#utility.yul\":7382:7435   */\n      tag_239\n      jump\t// in\n    tag_377:\n        /* \"#utility.yul\":7372:7435   */\n      swap2\n      pop\n        /* \"#utility.yul\":7327:7445   */\n      pop\n        /* \"#utility.yul\":6833:7452   */\n      swap3\n      pop\n      swap3\n      pop\n      swap3\n      jump\t// out\n        /* \"#utility.yul\":7458:8223   */\n    tag_53:\n        /* \"#utility.yul\":7544:7550   */\n      0x00\n        /* \"#utility.yul\":7552:7558   */\n      dup1\n        /* \"#utility.yul\":7560:7566   */\n      0x00\n        /* \"#utility.yul\":7568:7574   */\n      dup1\n        /* \"#utility.yul\":7617:7620   */\n      0x80\n        /* \"#utility.yul\":7605:7614   */\n      dup6\n        /* \"#utility.yul\":7596:7603   */\n      dup8\n        /* \"#utility.yul\":7592:7615   */\n      sub\n        /* \"#utility.yul\":7588:7621   */\n      slt\n        /* \"#utility.yul\":7585:7705   */\n      iszero\n      tag_379\n      jumpi\n        /* \"#utility.yul\":7624:7703   */\n      tag_380\n      tag_229\n      jump\t// in\n    tag_380:\n        /* \"#utility.yul\":7585:7705   */\n    tag_379:\n        /* \"#utility.yul\":7744:7745   */\n      0x00\n        /* \"#utility.yul\":7769:7822   */\n      tag_381\n        /* \"#utility.yul\":7814:7821   */\n      dup8\n        /* \"#utility.yul\":7805:7811   */\n      dup3\n        /* \"#utility.yul\":7794:7803   */\n      dup9\n        /* \"#utility.yul\":7790:7812   */\n      add\n        /* \"#utility.yul\":7769:7822   */\n      tag_239\n      jump\t// in\n    tag_381:\n        /* \"#utility.yul\":7759:7822   */\n      swap5\n      pop\n        /* \"#utility.yul\":7715:7832   */\n      pop\n        /* \"#utility.yul\":7871:7873   */\n      0x20\n        /* \"#utility.yul\":7897:7950   */\n      tag_382\n        /* \"#utility.yul\":7942:7949   */\n      dup8\n        /* \"#utility.yul\":7933:7939   */\n      dup3\n        /* \"#utility.yul\":7922:7931   */\n      dup9\n        /* \"#utility.yul\":7918:7940   */\n      add\n        /* \"#utility.yul\":7897:7950   */\n      tag_239\n      jump\t// in\n    tag_382:\n        /* \"#utility.yul\":7887:7950   */\n      swap4\n      pop\n        /* \"#utility.yul\":7842:7960   */\n      pop\n        /* \"#utility.yul\":7999:8001   */\n      0x40\n        /* \"#utility.yul\":8025:8078   */\n      tag_383\n        /* \"#utility.yul\":8070:8077   */\n      dup8\n        /* \"#utility.yul\":8061:8067   */\n      dup3\n        /* \"#utility.yul\":8050:8059   */\n      dup9\n        /* \"#utility.yul\":8046:8068   */\n      add\n        /* \"#utility.yul\":8025:8078   */\n      tag_257\n      jump\t// in\n    tag_383:\n        /* \"#utility.yul\":8015:8078   */\n      swap3\n      pop\n        /* \"#utility.yul\":7970:8088   */\n      pop\n        /* \"#utility.yul\":8127:8129   */\n      0x60\n        /* \"#utility.yul\":8153:8206   */\n      tag_384\n        /* \"#utility.yul\":8198:8205   */\n      dup8\n        /* \"#utility.yul\":8189:8195   */\n      dup3\n        /* \"#utility.yul\":8178:8187   */\n      dup9\n        /* \"#utility.yul\":8174:8196   */\n      add\n        /* \"#utility.yul\":8153:8206   */\n      tag_239\n      jump\t// in\n    tag_384:\n        /* \"#utility.yul\":8143:8206   */\n      swap2\n      pop\n        /* \"#utility.yul\":8098:8216   */\n      pop\n        /* \"#utility.yul\":7458:8223   */\n      swap3\n      swap6\n      swap2\n      swap5\n      pop\n      swap3\n      pop\n      jump\t// out\n        /* \"#utility.yul\":8229:8347   */\n    tag_258:\n        /* \"#utility.yul\":8316:8340   */\n      tag_386\n        /* \"#utility.yul\":8334:8339   */\n      dup2\n        /* \"#utility.yul\":8316:8340   */\n      tag_237\n      jump\t// in\n    tag_386:\n        /* \"#utility.yul\":8311:8314   */\n      dup3\n        /* \"#utility.yul\":8304:8341   */\n      mstore\n        /* \"#utility.yul\":8229:8347   */\n      pop\n      pop\n      jump\t// out\n        /* \"#utility.yul\":8353:8575   */\n    tag_59:\n        /* \"#utility.yul\":8446:8450   */\n      0x00\n        /* \"#utility.yul\":8484:8486   */\n      0x20\n        /* \"#utility.yul\":8473:8482   */\n      dup3\n        /* \"#utility.yul\":8469:8487   */\n      add\n        /* \"#utility.yul\":8461:8487   */\n      swap1\n      pop\n        /* \"#utility.yul\":8497:8568   */\n      tag_388\n        /* \"#utility.yul\":8565:8566   */\n      0x00\n        /* \"#utility.yul\":8554:8563   */\n      dup4\n        /* \"#utility.yul\":8550:8567   */\n      add\n        /* \"#utility.yul\":8541:8547   */\n      dup5\n        /* \"#utility.yul\":8497:8568   */\n      tag_258\n      jump\t// in\n    tag_388:\n        /* \"#utility.yul\":8353:8575   */\n      swap3\n      swap2\n      pop\n      pop\n      jump\t// out\n        /* \"#utility.yul\":8581:8698   */\n    tag_259:\n        /* \"#utility.yul\":8690:8691   */\n      0x00\n        /* \"#utility.yul\":8687:8688   */\n      dup1\n        /* \"#utility.yul\":8680:8692   */\n      revert\n        /* \"#utility.yul\":8704:8821   */\n    tag_260:\n        /* \"#utility.yul\":8813:8814   */\n      0x00\n        /* \"#utility.yul\":8810:8811   */\n      dup1\n        /* \"#utility.yul\":8803:8815   */\n      revert\n        /* \"#utility.yul\":8840:9392   */\n    tag_261:\n        /* \"#utility.yul\":8897:8905   */\n      0x00\n        /* \"#utility.yul\":8907:8913   */\n      dup1\n        /* \"#utility.yul\":8957:8960   */\n      dup4\n        /* \"#utility.yul\":8950:8954   */\n      0x1f\n        /* \"#utility.yul\":8942:8948   */\n      dup5\n        /* \"#utility.yul\":8938:8955   */\n      add\n        /* \"#utility.yul\":8934:8961   */\n      slt\n        /* \"#utility.yul\":8924:9046   */\n      tag_392\n      jumpi\n        /* \"#utility.yul\":8965:9044   */\n      tag_393\n      tag_245\n      jump\t// in\n    tag_393:\n        /* \"#utility.yul\":8924:9046   */\n    tag_392:\n        /* \"#utility.yul\":9078:9084   */\n      dup3\n        /* \"#utility.yul\":9065:9085   */\n      calldataload\n        /* \"#utility.yul\":9055:9085   */\n      swap1\n      pop\n        /* \"#utility.yul\":9108:9126   */\n      0xffffffffffffffff\n        /* \"#utility.yul\":9100:9106   */\n      dup2\n        /* \"#utility.yul\":9097:9127   */\n      gt\n        /* \"#utility.yul\":9094:9211   */\n      iszero\n      tag_394\n      jumpi\n        /* \"#utility.yul\":9130:9209   */\n      tag_395\n      tag_259\n      jump\t// in\n    tag_395:\n        /* \"#utility.yul\":9094:9211   */\n    tag_394:\n        /* \"#utility.yul\":9244:9248   */\n      0x20\n        /* \"#utility.yul\":9236:9242   */\n      dup4\n        /* \"#utility.yul\":9232:9249   */\n      add\n        /* \"#utility.yul\":9220:9249   */\n      swap2\n      pop\n        /* \"#utility.yul\":9298:9301   */\n      dup4\n        /* \"#utility.yul\":9290:9294   */\n      0x01\n        /* \"#utility.yul\":9282:9288   */\n      dup3\n        /* \"#utility.yul\":9278:9295   */\n      mul\n        /* \"#utility.yul\":9268:9276   */\n      dup4\n        /* \"#utility.yul\":9264:9296   */\n      add\n        /* \"#utility.yul\":9261:9302   */\n      gt\n        /* \"#utility.yul\":9258:9386   */\n      iszero\n      tag_396\n      jumpi\n        /* \"#utility.yul\":9305:9384   */\n      tag_397\n      tag_260\n      jump\t// in\n    tag_397:\n        /* \"#utility.yul\":9258:9386   */\n    tag_396:\n        /* \"#utility.yul\":8840:9392   */\n      swap3\n      pop\n      swap3\n      swap1\n      pop\n      jump\t// out\n        /* \"#utility.yul\":9398:10215   */\n    tag_66:\n        /* \"#utility.yul\":9486:9492   */\n      0x00\n        /* \"#utility.yul\":9494:9500   */\n      dup1\n        /* \"#utility.yul\":9502:9508   */\n      0x00\n        /* \"#utility.yul\":9510:9516   */\n      dup1\n        /* \"#utility.yul\":9559:9561   */\n      0x60\n        /* \"#utility.yul\":9547:9556   */\n      dup6\n        /* \"#utility.yul\":9538:9545   */\n      dup8\n        /* \"#utility.yul\":9534:9557   */\n      sub\n        /* \"#utility.yul\":9530:9562   */\n      slt\n        /* \"#utility.yul\":9527:9646   */\n      iszero\n      tag_399\n      jumpi\n        /* \"#utility.yul\":9565:9644   */\n      tag_400\n      tag_229\n      jump\t// in\n    tag_400:\n        /* \"#utility.yul\":9527:9646   */\n    tag_399:\n        /* \"#utility.yul\":9685:9686   */\n      0x00\n        /* \"#utility.yul\":9710:9763   */\n      tag_401\n        /* \"#utility.yul\":9755:9762   */\n      dup8\n        /* \"#utility.yul\":9746:9752   */\n      dup3\n        /* \"#utility.yul\":9735:9744   */\n      dup9\n        /* \"#utility.yul\":9731:9753   */\n      add\n        /* \"#utility.yul\":9710:9763   */\n      tag_239\n      jump\t// in\n    tag_401:\n        /* \"#utility.yul\":9700:9763   */\n      swap5\n      pop\n        /* \"#utility.yul\":9656:9773   */\n      pop\n        /* \"#utility.yul\":9812:9814   */\n      0x20\n        /* \"#utility.yul\":9838:9891   */\n      tag_402\n        /* \"#utility.yul\":9883:9890   */\n      dup8\n        /* \"#utility.yul\":9874:9880   */\n      dup3\n        /* \"#utility.yul\":9863:9872   */\n      dup9\n        /* \"#utility.yul\":9859:9881   */\n      add\n        /* \"#utility.yul\":9838:9891   */\n      tag_257\n      jump\t// in\n    tag_402:\n        /* \"#utility.yul\":9828:9891   */\n      swap4\n      pop\n        /* \"#utility.yul\":9783:9901   */\n      pop\n        /* \"#utility.yul\":9968:9970   */\n      0x40\n        /* \"#utility.yul\":9957:9966   */\n      dup6\n        /* \"#utility.yul\":9953:9971   */\n      add\n        /* \"#utility.yul\":9940:9972   */\n      calldataload\n        /* \"#utility.yul\":9999:10017   */\n      0xffffffffffffffff\n        /* \"#utility.yul\":9991:9997   */\n      dup2\n        /* \"#utility.yul\":9988:10018   */\n      gt\n        /* \"#utility.yul\":9985:10102   */\n      iszero\n      tag_403\n      jumpi\n        /* \"#utility.yul\":10021:10100   */\n      tag_404\n      tag_230\n      jump\t// in\n    tag_404:\n        /* \"#utility.yul\":9985:10102   */\n    tag_403:\n        /* \"#utility.yul\":10134:10198   */\n      tag_405\n        /* \"#utility.yul\":10190:10197   */\n      dup8\n        /* \"#utility.yul\":10181:10187   */\n      dup3\n        /* \"#utility.yul\":10170:10179   */\n      dup9\n        /* \"#utility.yul\":10166:10188   */\n      add\n        /* \"#utility.yul\":10134:10198   */\n      tag_261\n      jump\t// in\n    tag_405:\n        /* \"#utility.yul\":10116:10198   */\n      swap3\n      pop\n      swap3\n      pop\n        /* \"#utility.yul\":9911:10208   */\n      pop\n        /* \"#utility.yul\":9398:10215   */\n      swap3\n      swap6\n      swap2\n      swap5\n      pop\n      swap3\n      pop\n      jump\t// out\n        /* \"#utility.yul\":10221:10319   */\n    tag_262:\n        /* \"#utility.yul\":10272:10278   */\n      0x00\n        /* \"#utility.yul\":10306:10311   */\n      dup2\n        /* \"#utility.yul\":10300:10312   */\n      mload\n        /* \"#utility.yul\":10290:10312   */\n      swap1\n      pop\n        /* \"#utility.yul\":10221:10319   */\n      swap2\n      swap1\n      pop\n      jump\t// out\n        /* \"#utility.yul\":10325:10493   */\n    tag_263:\n        /* \"#utility.yul\":10408:10419   */\n      0x00\n        /* \"#utility.yul\":10442:10448   */\n      dup3\n        /* \"#utility.yul\":10437:10440   */\n      dup3\n        /* \"#utility.yul\":10430:10449   */\n      mstore\n        /* \"#utility.yul\":10482:10486   */\n      0x20\n        /* \"#utility.yul\":10477:10480   */\n      dup3\n        /* \"#utility.yul\":10473:10487   */\n      add\n        /* \"#utility.yul\":10458:10487   */\n      swap1\n      pop\n        /* \"#utility.yul\":10325:10493   */\n      swap3\n      swap2\n      pop\n      pop\n      jump\t// out\n        /* \"#utility.yul\":10499:10745   */\n    tag_264:\n        /* \"#utility.yul\":10580:10581   */\n      0x00\n        /* \"#utility.yul\":10590:10703   */\n    tag_409:\n        /* \"#utility.yul\":10604:10610   */\n      dup4\n        /* \"#utility.yul\":10601:10602   */\n      dup2\n        /* \"#utility.yul\":10598:10611   */\n      lt\n        /* \"#utility.yul\":10590:10703   */\n      iszero\n      tag_411\n      jumpi\n        /* \"#utility.yul\":10689:10690   */\n      dup1\n        /* \"#utility.yul\":10684:10687   */\n      dup3\n        /* \"#utility.yul\":10680:10691   */\n      add\n        /* \"#utility.yul\":10674:10692   */\n      mload\n        /* \"#utility.yul\":10670:10671   */\n      dup2\n        /* \"#utility.yul\":10665:10668   */\n      dup5\n        /* \"#utility.yul\":10661:10672   */\n      add\n        /* \"#utility.yul\":10654:10693   */\n      mstore\n        /* \"#utility.yul\":10626:10628   */\n      0x20\n        /* \"#utility.yul\":10623:10624   */\n      dup2\n        /* \"#utility.yul\":10619:10629   */\n      add\n        /* \"#utility.yul\":10614:10629   */\n      swap1\n      pop\n        /* \"#utility.yul\":10590:10703   */\n      jump(tag_409)\n    tag_411:\n        /* \"#utility.yul\":10737:10738   */\n      0x00\n        /* \"#utility.yul\":10728:10734   */\n      dup5\n        /* \"#utility.yul\":10723:10726   */\n      dup5\n        /* \"#utility.yul\":10719:10735   */\n      add\n        /* \"#utility.yul\":10712:10739   */\n      mstore\n        /* \"#utility.yul\":10561:10745   */\n      pop\n        /* \"#utility.yul\":10499:10745   */\n      pop\n      pop\n      pop\n      jump\t// out\n        /* \"#utility.yul\":10751:11124   */\n    tag_265:\n        /* \"#utility.yul\":10837:10840   */\n      0x00\n        /* \"#utility.yul\":10865:10903   */\n      tag_413\n        /* \"#utility.yul\":10897:10902   */\n      dup3\n        /* \"#utility.yul\":10865:10903   */\n      tag_262\n      jump\t// in\n    tag_413:\n        /* \"#utility.yul\":10919:10989   */\n      tag_414\n        /* \"#utility.yul\":10982:10988   */\n      dup2\n        /* \"#utility.yul\":10977:10980   */\n      dup6\n        /* \"#utility.yul\":10919:10989   */\n      tag_263\n      jump\t// in\n    tag_414:\n        /* \"#utility.yul\":10912:10989   */\n      swap4\n      pop\n        /* \"#utility.yul\":10998:11063   */\n      tag_415\n        /* \"#utility.yul\":11056:11062   */\n      dup2\n        /* \"#utility.yul\":11051:11054   */\n      dup6\n        /* \"#utility.yul\":11044:11048   */\n      0x20\n        /* \"#utility.yul\":11037:11042   */\n      dup7\n        /* \"#utility.yul\":11033:11049   */\n      add\n        /* \"#utility.yul\":10998:11063   */\n      tag_264\n      jump\t// in\n    tag_415:\n        /* \"#utility.yul\":11088:11117   */\n      tag_416\n        /* \"#utility.yul\":11110:11116   */\n      dup2\n        /* \"#utility.yul\":11088:11117   */\n      tag_247\n      jump\t// in\n    tag_416:\n        /* \"#utility.yul\":11083:11086   */\n      dup5\n        /* \"#utility.yul\":11079:11118   */\n      add\n        /* \"#utility.yul\":11072:11118   */\n      swap2\n      pop\n        /* \"#utility.yul\":10841:11124   */\n      pop\n        /* \"#utility.yul\":10751:11124   */\n      swap3\n      swap2\n      pop\n      pop\n      jump\t// out\n        /* \"#utility.yul\":11130:11439   */\n    tag_69:\n        /* \"#utility.yul\":11241:11245   */\n      0x00\n        /* \"#utility.yul\":11279:11281   */\n      0x20\n        /* \"#utility.yul\":11268:11277   */\n      dup3\n        /* \"#utility.yul\":11264:11282   */\n      add\n        /* \"#utility.yul\":11256:11282   */\n      swap1\n      pop\n        /* \"#utility.yul\":11328:11337   */\n      dup2\n        /* \"#utility.yul\":11322:11326   */\n      dup2\n        /* \"#utility.yul\":11318:11338   */\n      sub\n        /* \"#utility.yul\":11314:11315   */\n      0x00\n        /* \"#utility.yul\":11303:11312   */\n      dup4\n        /* \"#utility.yul\":11299:11316   */\n      add\n        /* \"#utility.yul\":11292:11339   */\n      mstore\n        /* \"#utility.yul\":11356:11432   */\n      tag_418\n        /* \"#utility.yul\":11427:11431   */\n      dup2\n        /* \"#utility.yul\":11418:11424   */\n      dup5\n        /* \"#utility.yul\":11356:11432   */\n      tag_265\n      jump\t// in\n    tag_418:\n        /* \"#utility.yul\":11348:11432   */\n      swap1\n      pop\n        /* \"#utility.yul\":11130:11439   */\n      swap3\n      swap2\n      pop\n      pop\n      jump\t// out\n        /* \"#utility.yul\":11445:11563   */\n    tag_266:\n        /* \"#utility.yul\":11532:11556   */\n      tag_420\n        /* \"#utility.yul\":11550:11555   */\n      dup2\n        /* \"#utility.yul\":11532:11556   */\n      tag_255\n      jump\t// in\n    tag_420:\n        /* \"#utility.yul\":11527:11530   */\n      dup3\n        /* \"#utility.yul\":11520:11557   */\n      mstore\n        /* \"#utility.yul\":11445:11563   */\n      pop\n      pop\n      jump\t// out\n        /* \"#utility.yul\":11569:11791   */\n    tag_79:\n        /* \"#utility.yul\":11662:11666   */\n      0x00\n        /* \"#utility.yul\":11700:11702   */\n      0x20\n        /* \"#utility.yul\":11689:11698   */\n      dup3\n        /* \"#utility.yul\":11685:11703   */\n      add\n        /* \"#utility.yul\":11677:11703   */\n      swap1\n      pop\n        /* \"#utility.yul\":11713:11784   */\n      tag_422\n        /* \"#utility.yul\":11781:11782   */\n      0x00\n        /* \"#utility.yul\":11770:11779   */\n      dup4\n        /* \"#utility.yul\":11766:11783   */\n      add\n        /* \"#utility.yul\":11757:11763   */\n      dup5\n        /* \"#utility.yul\":11713:11784   */\n      tag_266\n      jump\t// in\n    tag_422:\n        /* \"#utility.yul\":11569:11791   */\n      swap3\n      swap2\n      pop\n      pop\n      jump\t// out\n        /* \"#utility.yul\":11797:12239   */\n    tag_88:\n        /* \"#utility.yul\":11946:11950   */\n      0x00\n        /* \"#utility.yul\":11984:11986   */\n      0x60\n        /* \"#utility.yul\":11973:11982   */\n      dup3\n        /* \"#utility.yul\":11969:11987   */\n      add\n        /* \"#utility.yul\":11961:11987   */\n      swap1\n      pop\n        /* \"#utility.yul\":11997:12068   */\n      tag_424\n        /* \"#utility.yul\":12065:12066   */\n      0x00\n        /* \"#utility.yul\":12054:12063   */\n      dup4\n        /* \"#utility.yul\":12050:12067   */\n      add\n        /* \"#utility.yul\":12041:12047   */\n      dup7\n        /* \"#utility.yul\":11997:12068   */\n      tag_266\n      jump\t// in\n    tag_424:\n        /* \"#utility.yul\":12078:12150   */\n      tag_425\n        /* \"#utility.yul\":12146:12148   */\n      0x20\n        /* \"#utility.yul\":12135:12144   */\n      dup4\n        /* \"#utility.yul\":12131:12149   */\n      add\n        /* \"#utility.yul\":12122:12128   */\n      dup6\n        /* \"#utility.yul\":12078:12150   */\n      tag_258\n      jump\t// in\n    tag_425:\n        /* \"#utility.yul\":12160:12232   */\n      tag_426\n        /* \"#utility.yul\":12228:12230   */\n      0x40\n        /* \"#utility.yul\":12217:12226   */\n      dup4\n        /* \"#utility.yul\":12213:12231   */\n      add\n        /* \"#utility.yul\":12204:12210   */\n      dup5\n        /* \"#utility.yul\":12160:12232   */\n      tag_266\n      jump\t// in\n    tag_426:\n        /* \"#utility.yul\":11797:12239   */\n      swap5\n      swap4\n      pop\n      pop\n      pop\n      pop\n      jump\t// out\n        /* \"#utility.yul\":12245:12414   */\n    tag_267:\n        /* \"#utility.yul\":12329:12340   */\n      0x00\n        /* \"#utility.yul\":12363:12369   */\n      dup3\n        /* \"#utility.yul\":12358:12361   */\n      dup3\n        /* \"#utility.yul\":12351:12370   */\n      mstore\n        /* \"#utility.yul\":12403:12407   */\n      0x20\n        /* \"#utility.yul\":12398:12401   */\n      dup3\n        /* \"#utility.yul\":12394:12408   */\n      add\n        /* \"#utility.yul\":12379:12408   */\n      swap1\n      pop\n        /* \"#utility.yul\":12245:12414   */\n      swap3\n      swap2\n      pop\n      pop\n      jump\t// out\n        /* \"#utility.yul\":12420:12585   */\n    tag_268:\n        /* \"#utility.yul\":12560:12577   */\n      0x4e6f7420746f6b656e206f776e65720000000000000000000000000000000000\n        /* \"#utility.yul\":12556:12557   */\n      0x00\n        /* \"#utility.yul\":12548:12554   */\n      dup3\n        /* \"#utility.yul\":12544:12558   */\n      add\n        /* \"#utility.yul\":12537:12578   */\n      mstore\n        /* \"#utility.yul\":12420:12585   */\n      pop\n      jump\t// out\n        /* \"#utility.yul\":12591:12957   */\n    tag_269:\n        /* \"#utility.yul\":12733:12736   */\n      0x00\n        /* \"#utility.yul\":12754:12821   */\n      tag_430\n        /* \"#utility.yul\":12818:12820   */\n      0x0f\n        /* \"#utility.yul\":12813:12816   */\n      dup4\n        /* \"#utility.yul\":12754:12821   */\n      tag_267\n      jump\t// in\n    tag_430:\n        /* \"#utility.yul\":12747:12821   */\n      swap2\n      pop\n        /* \"#utility.yul\":12830:12923   */\n      tag_431\n        /* \"#utility.yul\":12919:12922   */\n      dup3\n        /* \"#utility.yul\":12830:12923   */\n      tag_268\n      jump\t// in\n    tag_431:\n        /* \"#utility.yul\":12948:12950   */\n      0x20\n        /* \"#utility.yul\":12943:12946   */\n      dup3\n        /* \"#utility.yul\":12939:12951   */\n      add\n        /* \"#utility.yul\":12932:12951   */\n      swap1\n      pop\n        /* \"#utility.yul\":12591:12957   */\n      swap2\n      swap1\n      pop\n      jump\t// out\n        /* \"#utility.yul\":12963:13382   */\n    tag_95:\n        /* \"#utility.yul\":13129:13133   */\n      0x00\n        /* \"#utility.yul\":13167:13169   */\n      0x20\n        /* \"#utility.yul\":13156:13165   */\n      dup3\n        /* \"#utility.yul\":13152:13170   */\n      add\n        /* \"#utility.yul\":13144:13170   */\n      swap1\n      pop\n        /* \"#utility.yul\":13216:13225   */\n      dup2\n        /* \"#utility.yul\":13210:13214   */\n      dup2\n        /* \"#utility.yul\":13206:13226   */\n      sub\n        /* \"#utility.yul\":13202:13203   */\n      0x00\n        /* \"#utility.yul\":13191:13200   */\n      dup4\n        /* \"#utility.yul\":13187:13204   */\n      add\n        /* \"#utility.yul\":13180:13227   */\n      mstore\n        /* \"#utility.yul\":13244:13375   */\n      tag_433\n        /* \"#utility.yul\":13370:13374   */\n      dup2\n        /* \"#utility.yul\":13244:13375   */\n      tag_269\n      jump\t// in\n    tag_433:\n        /* \"#utility.yul\":13236:13375   */\n      swap1\n      pop\n        /* \"#utility.yul\":12963:13382   */\n      swap2\n      swap1\n      pop\n      jump\t// out\n        /* \"#utility.yul\":13388:13708   */\n    tag_97:\n        /* \"#utility.yul\":13503:13507   */\n      0x00\n        /* \"#utility.yul\":13541:13543   */\n      0x40\n        /* \"#utility.yul\":13530:13539   */\n      dup3\n        /* \"#utility.yul\":13526:13544   */\n      add\n        /* \"#utility.yul\":13518:13544   */\n      swap1\n      pop\n        /* \"#utility.yul\":13554:13625   */\n      tag_435\n        /* \"#utility.yul\":13622:13623   */\n      0x00\n        /* \"#utility.yul\":13611:13620   */\n      dup4\n        /* \"#utility.yul\":13607:13624   */\n      add\n        /* \"#utility.yul\":13598:13604   */\n      dup6\n        /* \"#utility.yul\":13554:13625   */\n      tag_258\n      jump\t// in\n    tag_435:\n        /* \"#utility.yul\":13635:13701   */\n      tag_436\n        /* \"#utility.yul\":13697:13699   */\n      0x20\n        /* \"#utility.yul\":13686:13695   */\n      dup4\n        /* \"#utility.yul\":13682:13700   */\n      add\n        /* \"#utility.yul\":13673:13679   */\n      dup5\n        /* \"#utility.yul\":13635:13701   */\n      tag_235\n      jump\t// in\n    tag_436:\n        /* \"#utility.yul\":13388:13708   */\n      swap4\n      swap3\n      pop\n      pop\n      pop\n      jump\t// out\n        /* \"#utility.yul\":13714:14046   */\n    tag_111:\n        /* \"#utility.yul\":13835:13839   */\n      0x00\n        /* \"#utility.yul\":13873:13875   */\n      0x40\n        /* \"#utility.yul\":13862:13871   */\n      dup3\n        /* \"#utility.yul\":13858:13876   */\n      add\n        /* \"#utility.yul\":13850:13876   */\n      swap1\n      pop\n        /* \"#utility.yul\":13886:13957   */\n      tag_438\n        /* \"#utility.yul\":13954:13955   */\n      0x00\n        /* \"#utility.yul\":13943:13952   */\n      dup4\n        /* \"#utility.yul\":13939:13956   */\n      add\n        /* \"#utility.yul\":13930:13936   */\n      dup6\n        /* \"#utility.yul\":13886:13957   */\n      tag_258\n      jump\t// in\n    tag_438:\n        /* \"#utility.yul\":13967:14039   */\n      tag_439\n        /* \"#utility.yul\":14035:14037   */\n      0x20\n        /* \"#utility.yul\":14024:14033   */\n      dup4\n        /* \"#utility.yul\":14020:14038   */\n      add\n        /* \"#utility.yul\":14011:14017   */\n      dup5\n        /* \"#utility.yul\":13967:14039   */\n      tag_266\n      jump\t// in\n    tag_439:\n        /* \"#utility.yul\":13714:14046   */\n      swap4\n      swap3\n      pop\n      pop\n      pop\n      jump\t// out\n        /* \"#utility.yul\":14052:14189   */\n    tag_270:\n        /* \"#utility.yul\":14106:14111   */\n      0x00\n        /* \"#utility.yul\":14137:14143   */\n      dup2\n        /* \"#utility.yul\":14131:14144   */\n      mload\n        /* \"#utility.yul\":14122:14144   */\n      swap1\n      pop\n        /* \"#utility.yul\":14153:14183   */\n      tag_441\n        /* \"#utility.yul\":14177:14182   */\n      dup2\n        /* \"#utility.yul\":14153:14183   */\n      tag_240\n      jump\t// in\n    tag_441:\n        /* \"#utility.yul\":14052:14189   */\n      swap3\n      swap2\n      pop\n      pop\n      jump\t// out\n        /* \"#utility.yul\":14195:14540   */\n    tag_115:\n        /* \"#utility.yul\":14262:14268   */\n      0x00\n        /* \"#utility.yul\":14311:14313   */\n      0x20\n        /* \"#utility.yul\":14299:14308   */\n      dup3\n        /* \"#utility.yul\":14290:14297   */\n      dup5\n        /* \"#utility.yul\":14286:14309   */\n      sub\n        /* \"#utility.yul\":14282:14314   */\n      slt\n        /* \"#utility.yul\":14279:14398   */\n      iszero\n      tag_443\n      jumpi\n        /* \"#utility.yul\":14317:14396   */\n      tag_444\n      tag_229\n      jump\t// in\n    tag_444:\n        /* \"#utility.yul\":14279:14398   */\n    tag_443:\n        /* \"#utility.yul\":14437:14438   */\n      0x00\n        /* \"#utility.yul\":14462:14523   */\n      tag_445\n        /* \"#utility.yul\":14515:14522   */\n      dup5\n        /* \"#utility.yul\":14506:14512   */\n      dup3\n        /* \"#utility.yul\":14495:14504   */\n      dup6\n        /* \"#utility.yul\":14491:14513   */\n      add\n        /* \"#utility.yul\":14462:14523   */\n      tag_270\n      jump\t// in\n    tag_445:\n        /* \"#utility.yul\":14452:14523   */\n      swap2\n      pop\n        /* \"#utility.yul\":14408:14533   */\n      pop\n        /* \"#utility.yul\":14195:14540   */\n      swap3\n      swap2\n      pop\n      pop\n      jump\t// out\n        /* \"#utility.yul\":14546:14988   */\n    tag_129:\n        /* \"#utility.yul\":14695:14699   */\n      0x00\n        /* \"#utility.yul\":14733:14735   */\n      0x60\n        /* \"#utility.yul\":14722:14731   */\n      dup3\n        /* \"#utility.yul\":14718:14736   */\n      add\n        /* \"#utility.yul\":14710:14736   */\n      swap1\n      pop\n        /* \"#utility.yul\":14746:14817   */\n      tag_447\n        /* \"#utility.yul\":14814:14815   */\n      0x00\n        /* \"#utility.yul\":14803:14812   */\n      dup4\n        /* \"#utility.yul\":14799:14816   */\n      add\n        /* \"#utility.yul\":14790:14796   */\n      dup7\n        /* \"#utility.yul\":14746:14817   */\n      tag_258\n      jump\t// in\n    tag_447:\n        /* \"#utility.yul\":14827:14899   */\n      tag_448\n        /* \"#utility.yul\":14895:14897   */\n      0x20\n        /* \"#utility.yul\":14884:14893   */\n      dup4\n        /* \"#utility.yul\":14880:14898   */\n      add\n        /* \"#utility.yul\":14871:14877   */\n      dup6\n        /* \"#utility.yul\":14827:14899   */\n      tag_258\n      jump\t// in\n    tag_448:\n        /* \"#utility.yul\":14909:14981   */\n      tag_449\n        /* \"#utility.yul\":14977:14979   */\n      0x40\n        /* \"#utility.yul\":14966:14975   */\n      dup4\n        /* \"#utility.yul\":14962:14980   */\n      add\n        /* \"#utility.yul\":14953:14959   */\n      dup5\n        /* \"#utility.yul\":14909:14981   */\n      tag_266\n      jump\t// in\n    tag_449:\n        /* \"#utility.yul\":14546:14988   */\n      swap5\n      swap4\n      pop\n      pop\n      pop\n      pop\n      jump\t// out\n        /* \"#utility.yul\":14994:15137   */\n    tag_271:\n        /* \"#utility.yul\":15051:15056   */\n      0x00\n        /* \"#utility.yul\":15082:15088   */\n      dup2\n        /* \"#utility.yul\":15076:15089   */\n      mload\n        /* \"#utility.yul\":15067:15089   */\n      swap1\n      pop\n        /* \"#utility.yul\":15098:15131   */\n      tag_451\n        /* \"#utility.yul\":15125:15130   */\n      dup2\n        /* \"#utility.yul\":15098:15131   */\n      tag_256\n      jump\t// in\n    tag_451:\n        /* \"#utility.yul\":14994:15137   */\n      swap3\n      swap2\n      pop\n      pop\n      jump\t// out\n        /* \"#utility.yul\":15143:15286   */\n    tag_272:\n        /* \"#utility.yul\":15200:15205   */\n      0x00\n        /* \"#utility.yul\":15231:15237   */\n      dup2\n        /* \"#utility.yul\":15225:15238   */\n      mload\n        /* \"#utility.yul\":15216:15238   */\n      swap1\n      pop\n        /* \"#utility.yul\":15247:15280   */\n      tag_453\n        /* \"#utility.yul\":15274:15279   */\n      dup2\n        /* \"#utility.yul\":15247:15280   */\n      tag_238\n      jump\t// in\n    tag_453:\n        /* \"#utility.yul\":15143:15286   */\n      swap3\n      swap2\n      pop\n      pop\n      jump\t// out\n        /* \"#utility.yul\":15292:15955   */\n    tag_137:\n        /* \"#utility.yul\":15380:15386   */\n      0x00\n        /* \"#utility.yul\":15388:15394   */\n      dup1\n        /* \"#utility.yul\":15396:15402   */\n      0x00\n        /* \"#utility.yul\":15445:15447   */\n      0x60\n        /* \"#utility.yul\":15433:15442   */\n      dup5\n        /* \"#utility.yul\":15424:15431   */\n      dup7\n        /* \"#utility.yul\":15420:15443   */\n      sub\n        /* \"#utility.yul\":15416:15448   */\n      slt\n        /* \"#utility.yul\":15413:15532   */\n      iszero\n      tag_455\n      jumpi\n        /* \"#utility.yul\":15451:15530   */\n      tag_456\n      tag_229\n      jump\t// in\n    tag_456:\n        /* \"#utility.yul\":15413:15532   */\n    tag_455:\n        /* \"#utility.yul\":15571:15572   */\n      0x00\n        /* \"#utility.yul\":15596:15660   */\n      tag_457\n        /* \"#utility.yul\":15652:15659   */\n      dup7\n        /* \"#utility.yul\":15643:15649   */\n      dup3\n        /* \"#utility.yul\":15632:15641   */\n      dup8\n        /* \"#utility.yul\":15628:15650   */\n      add\n        /* \"#utility.yul\":15596:15660   */\n      tag_271\n      jump\t// in\n    tag_457:\n        /* \"#utility.yul\":15586:15660   */\n      swap4\n      pop\n        /* \"#utility.yul\":15542:15670   */\n      pop\n        /* \"#utility.yul\":15709:15711   */\n      0x20\n        /* \"#utility.yul\":15735:15799   */\n      tag_458\n        /* \"#utility.yul\":15791:15798   */\n      dup7\n        /* \"#utility.yul\":15782:15788   */\n      dup3\n        /* \"#utility.yul\":15771:15780   */\n      dup8\n        /* \"#utility.yul\":15767:15789   */\n      add\n        /* \"#utility.yul\":15735:15799   */\n      tag_272\n      jump\t// in\n    tag_458:\n        /* \"#utility.yul\":15725:15799   */\n      swap3\n      pop\n        /* \"#utility.yul\":15680:15809   */\n      pop\n        /* \"#utility.yul\":15848:15850   */\n      0x40\n        /* \"#utility.yul\":15874:15938   */\n      tag_459\n        /* \"#utility.yul\":15930:15937   */\n      dup7\n        /* \"#utility.yul\":15921:15927   */\n      dup3\n        /* \"#utility.yul\":15910:15919   */\n      dup8\n        /* \"#utility.yul\":15906:15928   */\n      add\n        /* \"#utility.yul\":15874:15938   */\n      tag_271\n      jump\t// in\n    tag_459:\n        /* \"#utility.yul\":15864:15938   */\n      swap2\n      pop\n        /* \"#utility.yul\":15819:15948   */\n      pop\n        /* \"#utility.yul\":15292:15955   */\n      swap3\n      pop\n      swap3\n      pop\n      swap3\n      jump\t// out\n        /* \"#utility.yul\":15961:16312   */\n    tag_143:\n        /* \"#utility.yul\":16031:16037   */\n      0x00\n        /* \"#utility.yul\":16080:16082   */\n      0x20\n        /* \"#utility.yul\":16068:16077   */\n      dup3\n        /* \"#utility.yul\":16059:16066   */\n      dup5\n        /* \"#utility.yul\":16055:16078   */\n      sub\n        /* \"#utility.yul\":16051:16083   */\n      slt\n        /* \"#utility.yul\":16048:16167   */\n      iszero\n      tag_461\n      jumpi\n        /* \"#utility.yul\":16086:16165   */\n      tag_462\n      tag_229\n      jump\t// in\n    tag_462:\n        /* \"#utility.yul\":16048:16167   */\n    tag_461:\n        /* \"#utility.yul\":16206:16207   */\n      0x00\n        /* \"#utility.yul\":16231:16295   */\n      tag_463\n        /* \"#utility.yul\":16287:16294   */\n      dup5\n        /* \"#utility.yul\":16278:16284   */\n      dup3\n        /* \"#utility.yul\":16267:16276   */\n      dup6\n        /* \"#utility.yul\":16263:16285   */\n      add\n        /* \"#utility.yul\":16231:16295   */\n      tag_272\n      jump\t// in\n    tag_463:\n        /* \"#utility.yul\":16221:16295   */\n      swap2\n      pop\n        /* \"#utility.yul\":16177:16305   */\n      pop\n        /* \"#utility.yul\":15961:16312   */\n      swap3\n      swap2\n      pop\n      pop\n      jump\t// out\n        /* \"#utility.yul\":16318:16498   */\n    tag_273:\n        /* \"#utility.yul\":16366:16443   */\n      0x4e487b7100000000000000000000000000000000000000000000000000000000\n        /* \"#utility.yul\":16363:16364   */\n      0x00\n        /* \"#utility.yul\":16356:16444   */\n      mstore\n        /* \"#utility.yul\":16463:16467   */\n      0x11\n        /* \"#utility.yul\":16460:16461   */\n      0x04\n        /* \"#utility.yul\":16453:16468   */\n      mstore\n        /* \"#utility.yul\":16487:16491   */\n      0x24\n        /* \"#utility.yul\":16484:16485   */\n      0x00\n        /* \"#utility.yul\":16477:16492   */\n      revert\n        /* \"#utility.yul\":16504:16737   */\n    tag_157:\n        /* \"#utility.yul\":16543:16546   */\n      0x00\n        /* \"#utility.yul\":16566:16590   */\n      tag_466\n        /* \"#utility.yul\":16584:16589   */\n      dup3\n        /* \"#utility.yul\":16566:16590   */\n      tag_255\n      jump\t// in\n    tag_466:\n        /* \"#utility.yul\":16557:16590   */\n      swap2\n      pop\n        /* \"#utility.yul\":16612:16678   */\n      0xffffffffffffffffffffffffffffffffffffffffffffffffffffffffffffffff\n        /* \"#utility.yul\":16605:16610   */\n      dup3\n        /* \"#utility.yul\":16602:16679   */\n      sub\n        /* \"#utility.yul\":16599:16702   */\n      tag_467\n      jumpi\n        /* \"#utility.yul\":16682:16700   */\n      tag_468\n      tag_273\n      jump\t// in\n    tag_468:\n        /* \"#utility.yul\":16599:16702   */\n    tag_467:\n        /* \"#utility.yul\":16729:16730   */\n      0x01\n        /* \"#utility.yul\":16722:16727   */\n      dup3\n        /* \"#utility.yul\":16718:16731   */\n      add\n        /* \"#utility.yul\":16711:16731   */\n      swap1\n      pop\n        /* \"#utility.yul\":16504:16737   */\n      swap2\n      swap1\n      pop\n      jump\t// out\n        /* \"#utility.yul\":16765:17079   */\n    tag_274:\n        /* \"#utility.yul\":16861:16864   */\n      0x00\n        /* \"#utility.yul\":16882:16952   */\n      tag_470\n        /* \"#utility.yul\":16945:16951   */\n      dup4\n        /* \"#utility.yul\":16940:16943   */\n      dup6\n        /* \"#utility.yul\":16882:16952   */\n      tag_263\n      jump\t// in\n    tag_470:\n        /* \"#utility.yul\":16875:16952   */\n      swap4\n      pop\n        /* \"#utility.yul\":16962:17018   */\n      tag_471\n        /* \"#utility.yul\":17011:17017   */\n      dup4\n        /* \"#utility.yul\":17006:17009   */\n      dup6\n        /* \"#utility.yul\":16999:17004   */\n      dup5\n        /* \"#utility.yul\":16962:17018   */\n      tag_251\n      jump\t// in\n    tag_471:\n        /* \"#utility.yul\":17043:17072   */\n      tag_472\n        /* \"#utility.yul\":17065:17071   */\n      dup4\n        /* \"#utility.yul\":17043:17072   */\n      tag_247\n      jump\t// in\n    tag_472:\n        /* \"#utility.yul\":17038:17041   */\n      dup5\n        /* \"#utility.yul\":17034:17073   */\n      add\n        /* \"#utility.yul\":17027:17073   */\n      swap1\n      pop\n        /* \"#utility.yul\":16765:17079   */\n      swap4\n      swap3\n      pop\n      pop\n      pop\n      jump\t// out\n        /* \"#utility.yul\":17085:17414   */\n    tag_159:\n        /* \"#utility.yul\":17206:17210   */\n      0x00\n        /* \"#utility.yul\":17244:17246   */\n      0x20\n        /* \"#utility.yul\":17233:17242   */\n      dup3\n        /* \"#utility.yul\":17229:17247   */\n      add\n        /* \"#utility.yul\":17221:17247   */\n      swap1\n      pop\n        /* \"#utility.yul\":17293:17302   */\n      dup2\n        /* \"#utility.yul\":17287:17291   */\n      dup2\n        /* \"#utility.yul\":17283:17303   */\n      sub\n        /* \"#utility.yul\":17279:17280   */\n      0x00\n        /* \"#utility.yul\":17268:17277   */\n      dup4\n        /* \"#utility.yul\":17264:17281   */\n      add\n        /* \"#utility.yul\":17257:17304   */\n      mstore\n        /* \"#utility.yul\":17321:17407   */\n      tag_474\n        /* \"#utility.yul\":17402:17406   */\n      dup2\n        /* \"#utility.yul\":17393:17399   */\n      dup5\n        /* \"#utility.yul\":17385:17391   */\n      dup7\n        /* \"#utility.yul\":17321:17407   */\n      tag_274\n      jump\t// in\n    tag_474:\n        /* \"#utility.yul\":17313:17407   */\n      swap1\n      pop\n        /* \"#utility.yul\":17085:17414   */\n      swap4\n      swap3\n      pop\n      pop\n      pop\n      jump\t// out\n        /* \"#utility.yul\":17420:17567   */\n    tag_275:\n        /* \"#utility.yul\":17521:17532   */\n      0x00\n        /* \"#utility.yul\":17558:17561   */\n      dup2\n        /* \"#utility.yul\":17543:17561   */\n      swap1\n      pop\n        /* \"#utility.yul\":17420:17567   */\n      swap3\n      swap2\n      pop\n      pop\n      jump\t// out\n        /* \"#utility.yul\":17595:17922   */\n    tag_276:\n        /* \"#utility.yul\":17709:17712   */\n      0x00\n        /* \"#utility.yul\":17730:17818   */\n      tag_477\n        /* \"#utility.yul\":17811:17817   */\n      dup4\n        /* \"#utility.yul\":17806:17809   */\n      dup6\n        /* \"#utility.yul\":17730:17818   */\n      tag_275\n      jump\t// in\n    tag_477:\n        /* \"#utility.yul\":17723:17818   */\n      swap4\n      pop\n        /* \"#utility.yul\":17828:17884   */\n      tag_478\n        /* \"#utility.yul\":17877:17883   */\n      dup4\n        /* \"#utility.yul\":17872:17875   */\n      dup6\n        /* \"#utility.yul\":17865:17870   */\n      dup5\n        /* \"#utility.yul\":17828:17884   */\n      tag_251\n      jump\t// in\n    tag_478:\n        /* \"#utility.yul\":17909:17915   */\n      dup3\n        /* \"#utility.yul\":17904:17907   */\n      dup5\n        /* \"#utility.yul\":17900:17916   */\n      add\n        /* \"#utility.yul\":17893:17916   */\n      swap1\n      pop\n        /* \"#utility.yul\":17595:17922   */\n      swap4\n      swap3\n      pop\n      pop\n      pop\n      jump\t// out\n        /* \"#utility.yul\":17928:18219   */\n    tag_161:\n        /* \"#utility.yul\":18068:18071   */\n      0x00\n        /* \"#utility.yul\":18090:18193   */\n      tag_480\n        /* \"#utility.yul\":18189:18192   */\n      dup3\n        /* \"#utility.yul\":18180:18186   */\n      dup5\n        /* \"#utility.yul\":18172:18178   */\n      dup7\n        /* \"#utility.yul\":18090:18193   */\n      tag_276\n      jump\t// in\n    tag_480:\n        /* \"#utility.yul\":18083:18193   */\n      swap2\n      pop\n        /* \"#utility.yul\":18210:18213   */\n      dup2\n        /* \"#utility.yul\":18203:18213   */\n      swap1\n      pop\n        /* \"#utility.yul\":17928:18219   */\n      swap4\n      swap3\n      pop\n      pop\n      pop\n      jump\t// out\n        /* \"#utility.yul\":18225:18405   */\n    tag_190:\n        /* \"#utility.yul\":18273:18350   */\n      0x4e487b7100000000000000000000000000000000000000000000000000000000\n        /* \"#utility.yul\":18270:18271   */\n      0x00\n        /* \"#utility.yul\":18263:18351   */\n      mstore\n        /* \"#utility.yul\":18370:18374   */\n      0x21\n        /* \"#utility.yul\":18367:18368   */\n      0x04\n        /* \"#utility.yul\":18360:18375   */\n      mstore\n        /* \"#utility.yul\":18394:18398   */\n      0x24\n        /* \"#utility.yul\":18391:18392   */\n      0x00\n        /* \"#utility.yul\":18384:18399   */\n      revert\n        /* \"#utility.yul\":18411:18515   */\n    tag_277:\n        /* \"#utility.yul\":18456:18463   */\n      0x00\n        /* \"#utility.yul\":18485:18509   */\n      tag_483\n        /* \"#utility.yul\":18503:18508   */\n      dup3\n        /* \"#utility.yul\":18485:18509   */\n      tag_236\n      jump\t// in\n    tag_483:\n        /* \"#utility.yul\":18474:18509   */\n      swap1\n      pop\n        /* \"#utility.yul\":18411:18515   */\n      swap2\n      swap1\n      pop\n      jump\t// out\n        /* \"#utility.yul\":18521:18659   */\n    tag_278:\n        /* \"#utility.yul\":18602:18634   */\n      tag_485\n        /* \"#utility.yul\":18628:18633   */\n      dup2\n        /* \"#utility.yul\":18602:18634   */\n      tag_277\n      jump\t// in\n    tag_485:\n        /* \"#utility.yul\":18595:18600   */\n      dup2\n        /* \"#utility.yul\":18592:18635   */\n      eq\n        /* \"#utility.yul\":18582:18653   */\n      tag_486\n      jumpi\n        /* \"#utility.yul\":18649:18650   */\n      0x00\n        /* \"#utility.yul\":18646:18647   */\n      dup1\n        /* \"#utility.yul\":18639:18651   */\n      revert\n        /* \"#utility.yul\":18582:18653   */\n    tag_486:\n        /* \"#utility.yul\":18521:18659   */\n      pop\n      jump\t// out\n        /* \"#utility.yul\":18665:18824   */\n    tag_279:\n        /* \"#utility.yul\":18730:18735   */\n      0x00\n        /* \"#utility.yul\":18761:18767   */\n      dup2\n        /* \"#utility.yul\":18755:18768   */\n      mload\n        /* \"#utility.yul\":18746:18768   */\n      swap1\n      pop\n        /* \"#utility.yul\":18777:18818   */\n      tag_488\n        /* \"#utility.yul\":18812:18817   */\n      dup2\n        /* \"#utility.yul\":18777:18818   */\n      tag_278\n      jump\t// in\n    tag_488:\n        /* \"#utility.yul\":18665:18824   */\n      swap3\n      swap2\n      pop\n      pop\n      jump\t// out\n        /* \"#utility.yul\":18830:19509   */\n    tag_203:\n        /* \"#utility.yul\":18926:18932   */\n      0x00\n        /* \"#utility.yul\":18934:18940   */\n      dup1\n        /* \"#utility.yul\":18942:18948   */\n      0x00\n        /* \"#utility.yul\":18991:18993   */\n      0x60\n        /* \"#utility.yul\":18979:18988   */\n      dup5\n        /* \"#utility.yul\":18970:18977   */\n      dup7\n        /* \"#utility.yul\":18966:18989   */\n      sub\n        /* \"#utility.yul\":18962:18994   */\n      slt\n        /* \"#utility.yul\":18959:19078   */\n      iszero\n      tag_490\n      jumpi\n        /* \"#utility.yul\":18997:19076   */\n      tag_491\n      tag_229\n      jump\t// in\n    tag_491:\n        /* \"#utility.yul\":18959:19078   */\n    tag_490:\n        /* \"#utility.yul\":19117:19118   */\n      0x00\n        /* \"#utility.yul\":19142:19206   */\n      tag_492\n        /* \"#utility.yul\":19198:19205   */\n      dup7\n        /* \"#utility.yul\":19189:19195   */\n      dup3\n        /* \"#utility.yul\":19178:19187   */\n      dup8\n        /* \"#utility.yul\":19174:19196   */\n      add\n        /* \"#utility.yul\":19142:19206   */\n      tag_271\n      jump\t// in\n    tag_492:\n        /* \"#utility.yul\":19132:19206   */\n      swap4\n      pop\n        /* \"#utility.yul\":19088:19216   */\n      pop\n        /* \"#utility.yul\":19255:19257   */\n      0x20\n        /* \"#utility.yul\":19281:19353   */\n      tag_493\n        /* \"#utility.yul\":19345:19352   */\n      dup7\n        /* \"#utility.yul\":19336:19342   */\n      dup3\n        /* \"#utility.yul\":19325:19334   */\n      dup8\n        /* \"#utility.yul\":19321:19343   */\n      add\n        /* \"#utility.yul\":19281:19353   */\n      tag_279\n      jump\t// in\n    tag_493:\n        /* \"#utility.yul\":19271:19353   */\n      swap3\n      pop\n        /* \"#utility.yul\":19226:19363   */\n      pop\n        /* \"#utility.yul\":19402:19404   */\n      0x40\n        /* \"#utility.yul\":19428:19492   */\n      tag_494\n        /* \"#utility.yul\":19484:19491   */\n      dup7\n        /* \"#utility.yul\":19475:19481   */\n      dup3\n        /* \"#utility.yul\":19464:19473   */\n      dup8\n        /* \"#utility.yul\":19460:19482   */\n      add\n        /* \"#utility.yul\":19428:19492   */\n      tag_271\n      jump\t// in\n    tag_494:\n        /* \"#utility.yul\":19418:19492   */\n      swap2\n      pop\n        /* \"#utility.yul\":19373:19502   */\n      pop\n        /* \"#utility.yul\":18830:19509   */\n      swap3\n      pop\n      swap3\n      pop\n      swap3\n      jump\t// out\n        /* \"#utility.yul\":19515:19633   */\n    tag_280:\n        /* \"#utility.yul\":19602:19626   */\n      tag_496\n        /* \"#utility.yul\":19620:19625   */\n      dup2\n        /* \"#utility.yul\":19602:19626   */\n      tag_242\n      jump\t// in\n    tag_496:\n        /* \"#utility.yul\":19597:19600   */\n      dup3\n        /* \"#utility.yul\":19590:19627   */\n      mstore\n        /* \"#utility.yul\":19515:19633   */\n      pop\n      pop\n      jump\t// out\n        /* \"#utility.yul\":19639:20058   */\n    tag_211:\n        /* \"#utility.yul\":19778:19782   */\n      0x00\n        /* \"#utility.yul\":19816:19818   */\n      0x40\n        /* \"#utility.yul\":19805:19814   */\n      dup3\n        /* \"#utility.yul\":19801:19819   */\n      add\n        /* \"#utility.yul\":19793:19819   */\n      swap1\n      pop\n        /* \"#utility.yul\":19829:19900   */\n      tag_498\n        /* \"#utility.yul\":19897:19898   */\n      0x00\n        /* \"#utility.yul\":19886:19895   */\n      dup4\n        /* \"#utility.yul\":19882:19899   */\n      add\n        /* \"#utility.yul\":19873:19879   */\n      dup6\n        /* \"#utility.yul\":19829:19900   */\n      tag_280\n      jump\t// in\n    tag_498:\n        /* \"#utility.yul\":19947:19956   */\n      dup2\n        /* \"#utility.yul\":19941:19945   */\n      dup2\n        /* \"#utility.yul\":19937:19957   */\n      sub\n        /* \"#utility.yul\":19932:19934   */\n      0x20\n        /* \"#utility.yul\":19921:19930   */\n      dup4\n        /* \"#utility.yul\":19917:19935   */\n      add\n        /* \"#utility.yul\":19910:19958   */\n      mstore\n        /* \"#utility.yul\":19975:20051   */\n      tag_499\n        /* \"#utility.yul\":20046:20050   */\n      dup2\n        /* \"#utility.yul\":20037:20043   */\n      dup5\n        /* \"#utility.yul\":19975:20051   */\n      tag_265\n      jump\t// in\n    tag_499:\n        /* \"#utility.yul\":19967:20051   */\n      swap1\n      pop\n        /* \"#utility.yul\":19639:20058   */\n      swap4\n      swap3\n      pop\n      pop\n      pop\n      jump\t// out\n        /* \"#utility.yul\":20064:20450   */\n    tag_281:\n        /* \"#utility.yul\":20168:20171   */\n      0x00\n        /* \"#utility.yul\":20196:20234   */\n      tag_501\n        /* \"#utility.yul\":20228:20233   */\n      dup3\n        /* \"#utility.yul\":20196:20234   */\n      tag_262\n      jump\t// in\n    tag_501:\n        /* \"#utility.yul\":20250:20338   */\n      tag_502\n        /* \"#utility.yul\":20331:20337   */\n      dup2\n        /* \"#utility.yul\":20326:20329   */\n      dup6\n        /* \"#utility.yul\":20250:20338   */\n      tag_275\n      jump\t// in\n    tag_502:\n        /* \"#utility.yul\":20243:20338   */\n      swap4\n      pop\n        /* \"#utility.yul\":20347:20412   */\n      tag_503\n        /* \"#utility.yul\":20405:20411   */\n      dup2\n        /* \"#utility.yul\":20400:20403   */\n      dup6\n        /* \"#utility.yul\":20393:20397   */\n      0x20\n        /* \"#utility.yul\":20386:20391   */\n      dup7\n        /* \"#utility.yul\":20382:20398   */\n      add\n        /* \"#utility.yul\":20347:20412   */\n      tag_264\n      jump\t// in\n    tag_503:\n        /* \"#utility.yul\":20437:20443   */\n      dup1\n        /* \"#utility.yul\":20432:20435   */\n      dup5\n        /* \"#utility.yul\":20428:20444   */\n      add\n        /* \"#utility.yul\":20421:20444   */\n      swap2\n      pop\n        /* \"#utility.yul\":20172:20450   */\n      pop\n        /* \"#utility.yul\":20064:20450   */\n      swap3\n      swap2\n      pop\n      pop\n      jump\t// out\n        /* \"#utility.yul\":20456:20727   */\n    tag_213:\n        /* \"#utility.yul\":20586:20589   */\n      0x00\n        /* \"#utility.yul\":20608:20701   */\n      tag_505\n        /* \"#utility.yul\":20697:20700   */\n      dup3\n        /* \"#utility.yul\":20688:20694   */\n      dup5\n        /* \"#utility.yul\":20608:20701   */\n      tag_281\n      jump\t// in\n    tag_505:\n        /* \"#utility.yul\":20601:20701   */\n      swap2\n      pop\n        /* \"#utility.yul\":20718:20721   */\n      dup2\n        /* \"#utility.yul\":20711:20721   */\n      swap1\n      pop\n        /* \"#utility.yul\":20456:20727   */\n      swap3\n      swap2\n      pop\n      pop\n      jump\t// out\n        /* \"#utility.yul\":20733:20876   */\n    tag_282:\n        /* \"#utility.yul\":20790:20795   */\n      0x00\n        /* \"#utility.yul\":20821:20827   */\n      dup2\n        /* \"#utility.yul\":20815:20828   */\n      mload\n        /* \"#utility.yul\":20806:20828   */\n      swap1\n      pop\n        /* \"#utility.yul\":20837:20870   */\n      tag_507\n        /* \"#utility.yul\":20864:20869   */\n      dup2\n        /* \"#utility.yul\":20837:20870   */\n      tag_243\n      jump\t// in\n    tag_507:\n        /* \"#utility.yul\":20733:20876   */\n      swap3\n      swap2\n      pop\n      pop\n      jump\t// out\n        /* \"#utility.yul\":20882:21233   */\n    tag_220:\n        /* \"#utility.yul\":20952:20958   */\n      0x00\n        /* \"#utility.yul\":21001:21003   */\n      0x20\n        /* \"#utility.yul\":20989:20998   */\n      dup3\n        /* \"#utility.yul\":20980:20987   */\n      dup5\n        /* \"#utility.yul\":20976:20999   */\n      sub\n        /* \"#utility.yul\":20972:21004   */\n      slt\n        /* \"#utility.yul\":20969:21088   */\n      iszero\n      tag_509\n      jumpi\n        /* \"#utility.yul\":21007:21086   */\n      tag_510\n      tag_229\n      jump\t// in\n    tag_510:\n        /* \"#utility.yul\":20969:21088   */\n    tag_509:\n        /* \"#utility.yul\":21127:21128   */\n      0x00\n        /* \"#utility.yul\":21152:21216   */\n      tag_511\n        /* \"#utility.yul\":21208:21215   */\n      dup5\n        /* \"#utility.yul\":21199:21205   */\n      dup3\n        /* \"#utility.yul\":21188:21197   */\n      dup6\n        /* \"#utility.yul\":21184:21206   */\n      add\n        /* \"#utility.yul\":21152:21216   */\n      tag_282\n      jump\t// in\n    tag_511:\n        /* \"#utility.yul\":21142:21216   */\n      swap2\n      pop\n        /* \"#utility.yul\":21098:21226   */\n      pop\n        /* \"#utility.yul\":20882:21233   */\n      swap3\n      swap2\n      pop\n      pop\n      jump\t// out\n        /* \"#utility.yul\":21239:21325   */\n    tag_283:\n        /* \"#utility.yul\":21274:21281   */\n      0x00\n        /* \"#utility.yul\":21314:21318   */\n      0xff\n        /* \"#utility.yul\":21307:21312   */\n      dup3\n        /* \"#utility.yul\":21303:21319   */\n      and\n        /* \"#utility.yul\":21292:21319   */\n      swap1\n      pop\n        /* \"#utility.yul\":21239:21325   */\n      swap2\n      swap1\n      pop\n      jump\t// out\n        /* \"#utility.yul\":21331:21443   */\n    tag_284:\n        /* \"#utility.yul\":21414:21436   */\n      tag_514\n        /* \"#utility.yul\":21430:21435   */\n      dup2\n        /* \"#utility.yul\":21414:21436   */\n      tag_283\n      jump\t// in\n    tag_514:\n        /* \"#utility.yul\":21409:21412   */\n      dup3\n        /* \"#utility.yul\":21402:21437   */\n      mstore\n        /* \"#utility.yul\":21331:21443   */\n      pop\n      pop\n      jump\t// out\n        /* \"#utility.yul\":21449:21994   */\n    tag_224:\n        /* \"#utility.yul\":21622:21626   */\n      0x00\n        /* \"#utility.yul\":21660:21663   */\n      0x80\n        /* \"#utility.yul\":21649:21658   */\n      dup3\n        /* \"#utility.yul\":21645:21664   */\n      add\n        /* \"#utility.yul\":21637:21664   */\n      swap1\n      pop\n        /* \"#utility.yul\":21674:21745   */\n      tag_516\n        /* \"#utility.yul\":21742:21743   */\n      0x00\n        /* \"#utility.yul\":21731:21740   */\n      dup4\n        /* \"#utility.yul\":21727:21744   */\n      add\n        /* \"#utility.yul\":21718:21724   */\n      dup8\n        /* \"#utility.yul\":21674:21745   */\n      tag_280\n      jump\t// in\n    tag_516:\n        /* \"#utility.yul\":21755:21823   */\n      tag_517\n        /* \"#utility.yul\":21819:21821   */\n      0x20\n        /* \"#utility.yul\":21808:21817   */\n      dup4\n        /* \"#utility.yul\":21804:21822   */\n      add\n        /* \"#utility.yul\":21795:21801   */\n      dup7\n        /* \"#utility.yul\":21755:21823   */\n      tag_284\n      jump\t// in\n    tag_517:\n        /* \"#utility.yul\":21833:21905   */\n      tag_518\n        /* \"#utility.yul\":21901:21903   */\n      0x40\n        /* \"#utility.yul\":21890:21899   */\n      dup4\n        /* \"#utility.yul\":21886:21904   */\n      add\n        /* \"#utility.yul\":21877:21883   */\n      dup6\n        /* \"#utility.yul\":21833:21905   */\n      tag_280\n      jump\t// in\n    tag_518:\n        /* \"#utility.yul\":21915:21987   */\n      tag_519\n        /* \"#utility.yul\":21983:21985   */\n      0x60\n        /* \"#utility.yul\":21972:21981   */\n      dup4\n        /* \"#utility.yul\":21968:21986   */\n      add\n        /* \"#utility.yul\":21959:21965   */\n      dup5\n        /* \"#utility.yul\":21915:21987   */\n      tag_280\n      jump\t// in\n    tag_519:\n        /* \"#utility.yul\":21449:21994   */\n      swap6\n      swap5\n      pop\n      pop\n      pop\n      pop\n      pop\n      jump\t// out\n\n    auxdata: 0xa2646970667358221220c7f66930f9b9d30926376a2378e18c84188657c9ac6cb4b1cdd063479d8095cc64736f6c63430008180033\n}\n",
				"bytecode": {
					"linkReferences": {},
					"object": "608060405234801561000f575f80fd5b50611c118061001d5f395ff3fe6080604052600436106100c5575f3560e01c80638da5cb5b1161007e578063a127f00c11610058578063a127f00c14610292578063affed0e0146102ce578063edf2e40b146102f8578063fc0c546a14610320576100cc565b80638da5cb5b14610210578063954d4b8b1461023a5780639e5d4c4914610262576100cc565b806301ffc9a7146100d057806308c225681461010c5780631626ba7e146101345780634e51f2d9146101705780635f017832146101ac57806380348fc9146101e8576100cc565b366100cc57005b5f80fd5b3480156100db575f80fd5b506100f660048036038101906100f19190611127565b61034c565b604051610103919061116c565b60405180910390f35b348015610117575f80fd5b50610132600480360381019061012d9190611209565b61041d565b005b34801561013f575f80fd5b5061015a600480360381019061015591906113c8565b6104ff565b6040516101679190611431565b60405180910390f35b34801561017b575f80fd5b506101966004803603810190610191919061147d565b610536565b6040516101a3919061116c565b60405180910390f35b3480156101b7575f80fd5b506101d260048036038101906101cd919061147d565b610630565b6040516101df919061116c565b60405180910390f35b3480156101f3575f80fd5b5061020e600480360381019061020991906114cd565b61072a565b005b34801561021b575f80fd5b5061022461080f565b6040516102319190611540565b60405180910390f35b348015610245575f80fd5b50610260600480360381019061025b919061147d565b610919565b005b61027c600480360381019061027791906115b6565b6109fb565b60405161028991906116a1565b60405180910390f35b34801561029d575f80fd5b506102b860048036038101906102b391906114cd565b610b5e565b6040516102c5919061116c565b60405180910390f35b3480156102d9575f80fd5b506102e2610c5b565b6040516102ef91906116d0565b60405180910390f35b348015610303575f80fd5b5061031e600480360381019061031991906114cd565b610c60565b005b34801561032b575f80fd5b50610334610d45565b604051610343939291906116e9565b60405180910390f35b5f7f01ffc9a7000000000000000000000000000000000000000000000000000000007bffffffffffffffffffffffffffffffffffffffffffffffffffffffff1916827bffffffffffffffffffffffffffffffffffffffffffffffffffffffff1916148061041657507f400a0398000000000000000000000000000000000000000000000000000000007bffffffffffffffffffffffffffffffffffffffffffffffffffffffff1916827bffffffffffffffffffffffffffffffffffffffffffffffffffffffff1916145b9050919050565b61042561080f565b73ffffffffffffffffffffffffffffffffffffffff163373ffffffffffffffffffffffffffffffffffffffff1614610492576040517f08c379a000000000000000000000000000000000000000000000000000000000815260040161048990611778565b60405180910390fd5b8073ffffffffffffffffffffffffffffffffffffffff1663a22cb46584846040518363ffffffff1660e01b81526004016104cd929190611796565b5f604051808303815f87803b1580156104e4575f80fd5b505af11580156104f6573d5f803e3d5ffd5b50505050505050565b5f8061051361050c61080f565b8585610d5b565b9050801561052b57631626ba7e60e01b915050610530565b5f9150505b92915050565b5f61053f61080f565b73ffffffffffffffffffffffffffffffffffffffff163373ffffffffffffffffffffffffffffffffffffffff16146105ac576040517f08c379a00000000000000000000000000000000000000000000000000000000081526004016105a390611778565b60405180910390fd5b8173ffffffffffffffffffffffffffffffffffffffff1663a9059cbb85856040518363ffffffff1660e01b81526004016105e79291906117bd565b6020604051808303815f875af1158015610603573d5f803e3d5ffd5b505050506040513d601f19601f8201168201806040525081019061062791906117f8565b90509392505050565b5f61063961080f565b73ffffffffffffffffffffffffffffffffffffffff163373ffffffffffffffffffffffffffffffffffffffff16146106a6576040517f08c379a000000000000000000000000000000000000000000000000000000000815260040161069d90611778565b60405180910390fd5b8173ffffffffffffffffffffffffffffffffffffffff1663095ea7b385856040518363ffffffff1660e01b81526004016106e19291906117bd565b6020604051808303815f875af11580156106fd573d5f803e3d5ffd5b505050506040513d601f19601f8201168201806040525081019061072191906117f8565b90509392505050565b61073261080f565b73ffffffffffffffffffffffffffffffffffffffff163373ffffffffffffffffffffffffffffffffffffffff161461079f576040517f08c379a000000000000000000000000000000000000000000000000000000000815260040161079690611778565b60405180910390fd5b8073ffffffffffffffffffffffffffffffffffffffff166323b872dd8585856040518463ffffffff1660e01b81526004016107dc93929190611823565b5f604051808303815f87803b1580156107f3575f80fd5b505af1158015610805573d5f803e3d5ffd5b5050505050505050565b5f805f803073ffffffffffffffffffffffffffffffffffffffff1663fc0c546a6040518163ffffffff1660e01b8152600401606060405180830381865afa15801561085c573d5f803e3d5ffd5b505050506040513d601f19601f820116820180604052508101906108809190611880565b925092509250468314610898575f9350505050610916565b8173ffffffffffffffffffffffffffffffffffffffff16636352211e826040518263ffffffff1660e01b81526004016108d191906116d0565b602060405180830381865afa1580156108ec573d5f803e3d5ffd5b505050506040513d601f19601f8201168201806040525081019061091091906118d0565b93505050505b90565b61092161080f565b73ffffffffffffffffffffffffffffffffffffffff163373ffffffffffffffffffffffffffffffffffffffff161461098e576040517f08c379a000000000000000000000000000000000000000000000000000000000815260040161098590611778565b60405180910390fd5b8073ffffffffffffffffffffffffffffffffffffffff1663095ea7b384846040518363ffffffff1660e01b81526004016109c99291906117bd565b5f604051808303815f87803b1580156109e0575f80fd5b505af11580156109f2573d5f803e3d5ffd5b50505050505050565b6060610a0561080f565b73ffffffffffffffffffffffffffffffffffffffff163373ffffffffffffffffffffffffffffffffffffffff1614610a72576040517f08c379a0000000000000000000000000000000000000000000000000000000008152600401610a6990611778565b60405180910390fd5b5f808154610a7f90611928565b91905081905550838573ffffffffffffffffffffffffffffffffffffffff167f47d99ad340f52da66535aff7e10da1ceb85a32bcbd9fa1c42314d194545e14d28585604051610acf92919061199b565b60405180910390a35f8573ffffffffffffffffffffffffffffffffffffffff16858585604051610b009291906119eb565b5f6040518083038185875af1925050503d805f8114610b3a576040519150601f19603f3d011682016040523d82523d5f602084013e610b3f565b606091505b50809350819250505080610b5557815160208301fd5b50949350505050565b5f610b6761080f565b73ffffffffffffffffffffffffffffffffffffffff163373ffffffffffffffffffffffffffffffffffffffff1614610bd4576040517f08c379a0000000000000000000000000000000000000000000000000000000008152600401610bcb90611778565b60405180910390fd5b8173ffffffffffffffffffffffffffffffffffffffff166323b872dd8686866040518463ffffffff1660e01b8152600401610c1193929190611823565b6020604051808303815f875af1158015610c2d573d5f803e3d5ffd5b505050506040513d601f19601f82011682018060405250810190610c5191906117f8565b9050949350505050565b5f5481565b610c6861080f565b73ffffffffffffffffffffffffffffffffffffffff163373ffffffffffffffffffffffffffffffffffffffff1614610cd5576040517f08c379a0000000000000000000000000000000000000000000000000000000008152600401610ccc90611778565b60405180910390fd5b8073ffffffffffffffffffffffffffffffffffffffff166342842e0e8585856040518463ffffffff1660e01b8152600401610d1293929190611823565b5f604051808303815f87803b158015610d29575f80fd5b505af1158015610d3b573d5f803e3d5ffd5b5050505050505050565b5f805f610d50610de8565b925092509250909192565b5f805f610d688585610e66565b50915091505f6003811115610d8057610d7f611a03565b5b816003811115610d9357610d92611a03565b5b148015610dcb57508573ffffffffffffffffffffffffffffffffffffffff168273ffffffffffffffffffffffffffffffffffffffff16145b80610ddd5750610ddc868686610ebb565b5b925050509392505050565b5f805f80606067ffffffffffffffff811115610e0757610e066112a4565b5b6040519080825280601f01601f191660200182016040528015610e395781602001600182028036833780820191505090505b5090506060604d60208301303c80806020019051810190610e5a9190611a6b565b93509350935050909192565b5f805f6041845103610ea6575f805f602087015192506040870151915060608701515f1a9050610e9888828585610fda565b955095509550505050610eb4565b5f600285515f1b9250925092505b9250925092565b5f805f8573ffffffffffffffffffffffffffffffffffffffff168585604051602401610ee8929190611aca565b604051602081830303815290604052631626ba7e60e01b6020820180517bffffffffffffffffffffffffffffffffffffffffffffffffffffffff8381831617835250505050604051610f3a9190611b28565b5f60405180830381855afa9150503d805f8114610f72576040519150601f19603f3d011682016040523d82523d5f602084013e610f77565b606091505b5091509150818015610f8b57506020815110155b8015610fcf5750631626ba7e60e01b7bffffffffffffffffffffffffffffffffffffffffffffffffffffffff191681806020019051810190610fcd9190611b52565b145b925050509392505050565b5f805f7f7fffffffffffffffffffffffffffffff5d576e7357a4501ddfe92f46681b20a0845f1c1115611016575f6003859250925092506110b7565b5f6001888888886040515f81526020016040526040516110399493929190611b98565b6020604051602081039080840390855afa158015611059573d5f803e3d5ffd5b5050506020604051035190505f73ffffffffffffffffffffffffffffffffffffffff168173ffffffffffffffffffffffffffffffffffffffff16036110aa575f60015f801b935093509350506110b7565b805f805f1b935093509350505b9450945094915050565b5f604051905090565b5f80fd5b5f80fd5b5f7fffffffff0000000000000000000000000000000000000000000000000000000082169050919050565b611106816110d2565b8114611110575f80fd5b50565b5f81359050611121816110fd565b92915050565b5f6020828403121561113c5761113b6110ca565b5b5f61114984828501611113565b91505092915050565b5f8115159050919050565b61116681611152565b82525050565b5f60208201905061117f5f83018461115d565b92915050565b5f73ffffffffffffffffffffffffffffffffffffffff82169050919050565b5f6111ae82611185565b9050919050565b6111be816111a4565b81146111c8575f80fd5b50565b5f813590506111d9816111b5565b92915050565b6111e881611152565b81146111f2575f80fd5b50565b5f81359050611203816111df565b92915050565b5f805f606084860312156112205761121f6110ca565b5b5f61122d868287016111cb565b935050602061123e868287016111f5565b925050604061124f868287016111cb565b9150509250925092565b5f819050919050565b61126b81611259565b8114611275575f80fd5b50565b5f8135905061128681611262565b92915050565b5f80fd5b5f80fd5b5f601f19601f8301169050919050565b7f4e487b71000000000000000000000000000000000000000000000000000000005f52604160045260245ffd5b6112da82611294565b810181811067ffffffffffffffff821117156112f9576112f86112a4565b5b80604052505050565b5f61130b6110c1565b905061131782826112d1565b919050565b5f67ffffffffffffffff821115611336576113356112a4565b5b61133f82611294565b9050602081019050919050565b828183375f83830152505050565b5f61136c6113678461131c565b611302565b90508281526020810184848401111561138857611387611290565b5b61139384828561134c565b509392505050565b5f82601f8301126113af576113ae61128c565b5b81356113bf84826020860161135a565b91505092915050565b5f80604083850312156113de576113dd6110ca565b5b5f6113eb85828601611278565b925050602083013567ffffffffffffffff81111561140c5761140b6110ce565b5b6114188582860161139b565b9150509250929050565b61142b816110d2565b82525050565b5f6020820190506114445f830184611422565b92915050565b5f819050919050565b61145c8161144a565b8114611466575f80fd5b50565b5f8135905061147781611453565b92915050565b5f805f60608486031215611494576114936110ca565b5b5f6114a1868287016111cb565b93505060206114b286828701611469565b92505060406114c3868287016111cb565b9150509250925092565b5f805f80608085870312156114e5576114e46110ca565b5b5f6114f2878288016111cb565b9450506020611503878288016111cb565b935050604061151487828801611469565b9250506060611525878288016111cb565b91505092959194509250565b61153a816111a4565b82525050565b5f6020820190506115535f830184611531565b92915050565b5f80fd5b5f80fd5b5f8083601f8401126115765761157561128c565b5b8235905067ffffffffffffffff81111561159357611592611559565b5b6020830191508360018202830111156115af576115ae61155d565b5b9250929050565b5f805f80606085870312156115ce576115cd6110ca565b5b5f6115db878288016111cb565b94505060206115ec87828801611469565b935050604085013567ffffffffffffffff81111561160d5761160c6110ce565b5b61161987828801611561565b925092505092959194509250565b5f81519050919050565b5f82825260208201905092915050565b5f5b8381101561165e578082015181840152602081019050611643565b5f8484015250505050565b5f61167382611627565b61167d8185611631565b935061168d818560208601611641565b61169681611294565b840191505092915050565b5f6020820190508181035f8301526116b98184611669565b905092915050565b6116ca8161144a565b82525050565b5f6020820190506116e35f8301846116c1565b92915050565b5f6060820190506116fc5f8301866116c1565b6117096020830185611531565b61171660408301846116c1565b949350505050565b5f82825260208201905092915050565b7f4e6f7420746f6b656e206f776e657200000000000000000000000000000000005f82015250565b5f611762600f8361171e565b915061176d8261172e565b602082019050919050565b5f6020820190508181035f83015261178f81611756565b9050919050565b5f6040820190506117a95f830185611531565b6117b6602083018461115d565b9392505050565b5f6040820190506117d05f830185611531565b6117dd60208301846116c1565b9392505050565b5f815190506117f2816111df565b92915050565b5f6020828403121561180d5761180c6110ca565b5b5f61181a848285016117e4565b91505092915050565b5f6060820190506118365f830186611531565b6118436020830185611531565b61185060408301846116c1565b949350505050565b5f8151905061186681611453565b92915050565b5f8151905061187a816111b5565b92915050565b5f805f60608486031215611897576118966110ca565b5b5f6118a486828701611858565b93505060206118b58682870161186c565b92505060406118c686828701611858565b9150509250925092565b5f602082840312156118e5576118e46110ca565b5b5f6118f28482850161186c565b91505092915050565b7f4e487b71000000000000000000000000000000000000000000000000000000005f52601160045260245ffd5b5f6119328261144a565b91507fffffffffffffffffffffffffffffffffffffffffffffffffffffffffffffffff8203611964576119636118fb565b5b600182019050919050565b5f61197a8385611631565b935061198783858461134c565b61199083611294565b840190509392505050565b5f6020820190508181035f8301526119b481848661196f565b90509392505050565b5f81905092915050565b5f6119d283856119bd565b93506119df83858461134c565b82840190509392505050565b5f6119f78284866119c7565b91508190509392505050565b7f4e487b71000000000000000000000000000000000000000000000000000000005f52602160045260245ffd5b5f611a3a82611185565b9050919050565b611a4a81611a30565b8114611a54575f80fd5b50565b5f81519050611a6581611a41565b92915050565b5f805f60608486031215611a8257611a816110ca565b5b5f611a8f86828701611858565b9350506020611aa086828701611a57565b9250506040611ab186828701611858565b9150509250925092565b611ac481611259565b82525050565b5f604082019050611add5f830185611abb565b8181036020830152611aef8184611669565b90509392505050565b5f611b0282611627565b611b0c81856119bd565b9350611b1c818560208601611641565b80840191505092915050565b5f611b338284611af8565b915081905092915050565b5f81519050611b4c81611262565b92915050565b5f60208284031215611b6757611b666110ca565b5b5f611b7484828501611b3e565b91505092915050565b5f60ff82169050919050565b611b9281611b7d565b82525050565b5f608082019050611bab5f830187611abb565b611bb86020830186611b89565b611bc56040830185611abb565b611bd26060830184611abb565b9594505050505056fea2646970667358221220c7f66930f9b9d30926376a2378e18c84188657c9ac6cb4b1cdd063479d8095cc64736f6c63430008180033",
					"opcodes": "PUSH1 0x80 PUSH1 0x40 MSTORE CALLVALUE DUP1 ISZERO PUSH2 0xF JUMPI PUSH0 DUP1 REVERT JUMPDEST POP PUSH2 0x1C11 DUP1 PUSH2 0x1D PUSH0 CODECOPY PUSH0 RETURN INVALID PUSH1 0x80 PUSH1 0x40 MSTORE PUSH1 0x4 CALLDATASIZE LT PUSH2 0xC5 JUMPI PUSH0 CALLDATALOAD PUSH1 0xE0 SHR DUP1 PUSH4 0x8DA5CB5B GT PUSH2 0x7E JUMPI DUP1 PUSH4 0xA127F00C GT PUSH2 0x58 JUMPI DUP1 PUSH4 0xA127F00C EQ PUSH2 0x292 JUMPI DUP1 PUSH4 0xAFFED0E0 EQ PUSH2 0x2CE JUMPI DUP1 PUSH4 0xEDF2E40B EQ PUSH2 0x2F8 JUMPI DUP1 PUSH4 0xFC0C546A EQ PUSH2 0x320 JUMPI PUSH2 0xCC JUMP JUMPDEST DUP1 PUSH4 0x8DA5CB5B EQ PUSH2 0x210 JUMPI DUP1 PUSH4 0x954D4B8B EQ PUSH2 0x23A JUMPI DUP1 PUSH4 0x9E5D4C49 EQ PUSH2 0x262 JUMPI PUSH2 0xCC JUMP JUMPDEST DUP1 PUSH4 0x1FFC9A7 EQ PUSH2 0xD0 JUMPI DUP1 PUSH4 0x8C22568 EQ PUSH2 0x10C JUMPI DUP1 PUSH4 0x1626BA7E EQ PUSH2 0x134 JUMPI DUP1 PUSH4 0x4E51F2D9 EQ PUSH2 0x170 JUMPI DUP1 PUSH4 0x5F017832 EQ PUSH2 0x1AC JUMPI DUP1 PUSH4 0x80348FC9 EQ PUSH2 0x1E8 JUMPI PUSH2 0xCC JUMP JUMPDEST CALLDATASIZE PUSH2 0xCC JUMPI STOP JUMPDEST PUSH0 DUP1 REVERT JUMPDEST CALLVALUE DUP1 ISZERO PUSH2 0xDB JUMPI PUSH0 DUP1 REVERT JUMPDEST POP PUSH2 0xF6 PUSH1 0x4 DUP1 CALLDATASIZE SUB DUP2 ADD SWAP1 PUSH2 0xF1 SWAP2 SWAP1 PUSH2 0x1127 JUMP JUMPDEST PUSH2 0x34C JUMP JUMPDEST PUSH1 0x40 MLOAD PUSH2 0x103 SWAP2 SWAP1 PUSH2 0x116C JUMP JUMPDEST PUSH1 0x40 MLOAD DUP1 SWAP2 SUB SWAP1 RETURN JUMPDEST CALLVALUE DUP1 ISZERO PUSH2 0x117 JUMPI PUSH0 DUP1 REVERT JUMPDEST POP PUSH2 0x132 PUSH1 0x4 DUP1 CALLDATASIZE SUB DUP2 ADD SWAP1 PUSH2 0x12D SWAP2 SWAP1 PUSH2 0x1209 JUMP JUMPDEST PUSH2 0x41D JUMP JUMPDEST STOP JUMPDEST CALLVALUE DUP1 ISZERO PUSH2 0x13F JUMPI PUSH0 DUP1 REVERT JUMPDEST POP PUSH2 0x15A PUSH1 0x4 DUP1 CALLDATASIZE SUB DUP2 ADD SWAP1 PUSH2 0x155 SWAP2 SWAP1 PUSH2 0x13C8 JUMP JUMPDEST PUSH2 0x4FF JUMP JUMPDEST PUSH1 0x40 MLOAD PUSH2 0x167 SWAP2 SWAP1 PUSH2 0x1431 JUMP JUMPDEST PUSH1 0x40 MLOAD DUP1 SWAP2 SUB SWAP1 RETURN JUMPDEST CALLVALUE DUP1 ISZERO PUSH2 0x17B JUMPI PUSH0 DUP1 REVERT JUMPDEST POP PUSH2 0x196 PUSH1 0x4 DUP1 CALLDATASIZE SUB DUP2 ADD SWAP1 PUSH2 0x191 SWAP2 SWAP1 PUSH2 0x147D JUMP JUMPDEST PUSH2 0x536 JUMP JUMPDEST PUSH1 0x40 MLOAD PUSH2 0x1A3 SWAP2 SWAP1 PUSH2 0x116C JUMP JUMPDEST PUSH1 0x40 MLOAD DUP1 SWAP2 SUB SWAP1 RETURN JUMPDEST CALLVALUE DUP1 ISZERO PUSH2 0x1B7 JUMPI PUSH0 DUP1 REVERT JUMPDEST POP PUSH2 0x1D2 PUSH1 0x4 DUP1 CALLDATASIZE SUB DUP2 ADD SWAP1 PUSH2 0x1CD SWAP2 SWAP1 PUSH2 0x147D JUMP JUMPDEST PUSH2 0x630 JUMP JUMPDEST PUSH1 0x40 MLOAD PUSH2 0x1DF SWAP2 SWAP1 PUSH2 0x116C JUMP JUMPDEST PUSH1 0x40 MLOAD DUP1 SWAP2 SUB SWAP1 RETURN JUMPDEST CALLVALUE DUP1 ISZERO PUSH2 0x1F3 JUMPI PUSH0 DUP1 REVERT JUMPDEST POP PUSH2 0x20E PUSH1 0x4 DUP1 CALLDATASIZE SUB DUP2 ADD SWAP1 PUSH2 0x209 SWAP2 SWAP1 PUSH2 0x14CD JUMP JUMPDEST PUSH2 0x72A JUMP JUMPDEST STOP JUMPDEST CALLVALUE DUP1 ISZERO PUSH2 0x21B JUMPI PUSH0 DUP1 REVERT JUMPDEST POP PUSH2 0x224 PUSH2 0x80F JUMP JUMPDEST PUSH1 0x40 MLOAD PUSH2 0x231 SWAP2 SWAP1 PUSH2 0x1540 JUMP JUMPDEST PUSH1 0x40 MLOAD DUP1 SWAP2 SUB SWAP1 RETURN JUMPDEST CALLVALUE DUP1 ISZERO PUSH2 0x245 JUMPI PUSH0 DUP1 REVERT JUMPDEST POP PUSH2 0x260 PUSH1 0x4 DUP1 CALLDATASIZE SUB DUP2 ADD SWAP1 PUSH2 0x25B SWAP2 SWAP1 PUSH2 0x147D JUMP JUMPDEST PUSH2 0x919 JUMP JUMPDEST STOP JUMPDEST PUSH2 0x27C PUSH1 0x4 DUP1 CALLDATASIZE SUB DUP2 ADD SWAP1 PUSH2 0x277 SWAP2 SWAP1 PUSH2 0x15B6 JUMP JUMPDEST PUSH2 0x9FB JUMP JUMPDEST PUSH1 0x40 MLOAD PUSH2 0x289 SWAP2 SWAP1 PUSH2 0x16A1 JUMP JUMPDEST PUSH1 0x40 MLOAD DUP1 SWAP2 SUB SWAP1 RETURN JUMPDEST CALLVALUE DUP1 ISZERO PUSH2 0x29D JUMPI PUSH0 DUP1 REVERT JUMPDEST POP PUSH2 0x2B8 PUSH1 0x4 DUP1 CALLDATASIZE SUB DUP2 ADD SWAP1 PUSH2 0x2B3 SWAP2 SWAP1 PUSH2 0x14CD JUMP JUMPDEST PUSH2 0xB5E JUMP JUMPDEST PUSH1 0x40 MLOAD PUSH2 0x2C5 SWAP2 SWAP1 PUSH2 0x116C JUMP JUMPDEST PUSH1 0x40 MLOAD DUP1 SWAP2 SUB SWAP1 RETURN JUMPDEST CALLVALUE DUP1 ISZERO PUSH2 0x2D9 JUMPI PUSH0 DUP1 REVERT JUMPDEST POP PUSH2 0x2E2 PUSH2 0xC5B JUMP JUMPDEST PUSH1 0x40 MLOAD PUSH2 0x2EF SWAP2 SWAP1 PUSH2 0x16D0 JUMP JUMPDEST PUSH1 0x40 MLOAD DUP1 SWAP2 SUB SWAP1 RETURN JUMPDEST CALLVALUE DUP1 ISZERO PUSH2 0x303 JUMPI PUSH0 DUP1 REVERT JUMPDEST POP PUSH2 0x31E PUSH1 0x4 DUP1 CALLDATASIZE SUB DUP2 ADD SWAP1 PUSH2 0x319 SWAP2 SWAP1 PUSH2 0x14CD JUMP JUMPDEST PUSH2 0xC60 JUMP JUMPDEST STOP JUMPDEST CALLVALUE DUP1 ISZERO PUSH2 0x32B JUMPI PUSH0 DUP1 REVERT JUMPDEST POP PUSH2 0x334 PUSH2 0xD45 JUMP JUMPDEST PUSH1 0x40 MLOAD PUSH2 0x343 SWAP4 SWAP3 SWAP2 SWAP1 PUSH2 0x16E9 JUMP JUMPDEST PUSH1 0x40 MLOAD DUP1 SWAP2 SUB SWAP1 RETURN JUMPDEST PUSH0 PUSH32 0x1FFC9A700000000000000000000000000000000000000000000000000000000 PUSH28 0xFFFFFFFFFFFFFFFFFFFFFFFFFFFFFFFFFFFFFFFFFFFFFFFFFFFFFFFF NOT AND DUP3 PUSH28 0xFFFFFFFFFFFFFFFFFFFFFFFFFFFFFFFFFFFFFFFFFFFFFFFFFFFFFFFF NOT AND EQ DUP1 PUSH2 0x416 JUMPI POP PUSH32 0x400A039800000000000000000000000000000000000000000000000000000000 PUSH28 0xFFFFFFFFFFFFFFFFFFFFFFFFFFFFFFFFFFFFFFFFFFFFFFFFFFFFFFFF NOT AND DUP3 PUSH28 0xFFFFFFFFFFFFFFFFFFFFFFFFFFFFFFFFFFFFFFFFFFFFFFFFFFFFFFFF NOT AND EQ JUMPDEST SWAP1 POP SWAP2 SWAP1 POP JUMP JUMPDEST PUSH2 0x425 PUSH2 0x80F JUMP JUMPDEST PUSH20 0xFFFFFFFFFFFFFFFFFFFFFFFFFFFFFFFFFFFFFFFF AND CALLER PUSH20 0xFFFFFFFFFFFFFFFFFFFFFFFFFFFFFFFFFFFFFFFF AND EQ PUSH2 0x492 JUMPI PUSH1 0x40 MLOAD PUSH32 0x8C379A000000000000000000000000000000000000000000000000000000000 DUP2 MSTORE PUSH1 0x4 ADD PUSH2 0x489 SWAP1 PUSH2 0x1778 JUMP JUMPDEST PUSH1 0x40 MLOAD DUP1 SWAP2 SUB SWAP1 REVERT JUMPDEST DUP1 PUSH20 0xFFFFFFFFFFFFFFFFFFFFFFFFFFFFFFFFFFFFFFFF AND PUSH4 0xA22CB465 DUP5 DUP5 PUSH1 0x40 MLOAD DUP4 PUSH4 0xFFFFFFFF AND PUSH1 0xE0 SHL DUP2 MSTORE PUSH1 0x4 ADD PUSH2 0x4CD SWAP3 SWAP2 SWAP1 PUSH2 0x1796 JUMP JUMPDEST PUSH0 PUSH1 0x40 MLOAD DUP1 DUP4 SUB DUP2 PUSH0 DUP8 DUP1 EXTCODESIZE ISZERO DUP1 ISZERO PUSH2 0x4E4 JUMPI PUSH0 DUP1 REVERT JUMPDEST POP GAS CALL ISZERO DUP1 ISZERO PUSH2 0x4F6 JUMPI RETURNDATASIZE PUSH0 DUP1 RETURNDATACOPY RETURNDATASIZE PUSH0 REVERT JUMPDEST POP POP POP POP POP POP POP JUMP JUMPDEST PUSH0 DUP1 PUSH2 0x513 PUSH2 0x50C PUSH2 0x80F JUMP JUMPDEST DUP6 DUP6 PUSH2 0xD5B JUMP JUMPDEST SWAP1 POP DUP1 ISZERO PUSH2 0x52B JUMPI PUSH4 0x1626BA7E PUSH1 0xE0 SHL SWAP2 POP POP PUSH2 0x530 JUMP JUMPDEST PUSH0 SWAP2 POP POP JUMPDEST SWAP3 SWAP2 POP POP JUMP JUMPDEST PUSH0 PUSH2 0x53F PUSH2 0x80F JUMP JUMPDEST PUSH20 0xFFFFFFFFFFFFFFFFFFFFFFFFFFFFFFFFFFFFFFFF AND CALLER PUSH20 0xFFFFFFFFFFFFFFFFFFFFFFFFFFFFFFFFFFFFFFFF AND EQ PUSH2 0x5AC JUMPI PUSH1 0x40 MLOAD PUSH32 0x8C379A000000000000000000000000000000000000000000000000000000000 DUP2 MSTORE PUSH1 0x4 ADD PUSH2 0x5A3 SWAP1 PUSH2 0x1778 JUMP JUMPDEST PUSH1 0x40 MLOAD DUP1 SWAP2 SUB SWAP1 REVERT JUMPDEST DUP2 PUSH20 0xFFFFFFFFFFFFFFFFFFFFFFFFFFFFFFFFFFFFFFFF AND PUSH4 0xA9059CBB DUP6 DUP6 PUSH1 0x40 MLOAD DUP4 PUSH4 0xFFFFFFFF AND PUSH1 0xE0 SHL DUP2 MSTORE PUSH1 0x4 ADD PUSH2 0x5E7 SWAP3 SWAP2 SWAP1 PUSH2 0x17BD JUMP JUMPDEST PUSH1 0x20 PUSH1 0x40 MLOAD DUP1 DUP4 SUB DUP2 PUSH0 DUP8 GAS CALL ISZERO DUP1 ISZERO PUSH2 0x603 JUMPI RETURNDATASIZE PUSH0 DUP1 RETURNDATACOPY RETURNDATASIZE PUSH0 REVERT JUMPDEST POP POP POP POP PUSH1 0x40 MLOAD RETURNDATASIZE PUSH1 0x1F NOT PUSH1 0x1F DUP3 ADD AND DUP3 ADD DUP1 PUSH1 0x40 MSTORE POP DUP2 ADD SWAP1 PUSH2 0x627 SWAP2 SWAP1 PUSH2 0x17F8 JUMP JUMPDEST SWAP1 POP SWAP4 SWAP3 POP POP POP JUMP JUMPDEST PUSH0 PUSH2 0x639 PUSH2 0x80F JUMP JUMPDEST PUSH20 0xFFFFFFFFFFFFFFFFFFFFFFFFFFFFFFFFFFFFFFFF AND CALLER PUSH20 0xFFFFFFFFFFFFFFFFFFFFFFFFFFFFFFFFFFFFFFFF AND EQ PUSH2 0x6A6 JUMPI PUSH1 0x40 MLOAD PUSH32 0x8C379A000000000000000000000000000000000000000000000000000000000 DUP2 MSTORE PUSH1 0x4 ADD PUSH2 0x69D SWAP1 PUSH2 0x1778 JUMP JUMPDEST PUSH1 0x40 MLOAD DUP1 SWAP2 SUB SWAP1 REVERT JUMPDEST DUP2 PUSH20 0xFFFFFFFFFFFFFFFFFFFFFFFFFFFFFFFFFFFFFFFF AND PUSH4 0x95EA7B3 DUP6 DUP6 PUSH1 0x40 MLOAD DUP4 PUSH4 0xFFFFFFFF AND PUSH1 0xE0 SHL DUP2 MSTORE PUSH1 0x4 ADD PUSH2 0x6E1 SWAP3 SWAP2 SWAP1 PUSH2 0x17BD JUMP JUMPDEST PUSH1 0x20 PUSH1 0x40 MLOAD DUP1 DUP4 SUB DUP2 PUSH0 DUP8 GAS CALL ISZERO DUP1 ISZERO PUSH2 0x6FD JUMPI RETURNDATASIZE PUSH0 DUP1 RETURNDATACOPY RETURNDATASIZE PUSH0 REVERT JUMPDEST POP POP POP POP PUSH1 0x40 MLOAD RETURNDATASIZE PUSH1 0x1F NOT PUSH1 0x1F DUP3 ADD AND DUP3 ADD DUP1 PUSH1 0x40 MSTORE POP DUP2 ADD SWAP1 PUSH2 0x721 SWAP2 SWAP1 PUSH2 0x17F8 JUMP JUMPDEST SWAP1 POP SWAP4 SWAP3 POP POP POP JUMP JUMPDEST PUSH2 0x732 PUSH2 0x80F JUMP JUMPDEST PUSH20 0xFFFFFFFFFFFFFFFFFFFFFFFFFFFFFFFFFFFFFFFF AND CALLER PUSH20 0xFFFFFFFFFFFFFFFFFFFFFFFFFFFFFFFFFFFFFFFF AND EQ PUSH2 0x79F JUMPI PUSH1 0x40 MLOAD PUSH32 0x8C379A000000000000000000000000000000000000000000000000000000000 DUP2 MSTORE PUSH1 0x4 ADD PUSH2 0x796 SWAP1 PUSH2 0x1778 JUMP JUMPDEST PUSH1 0x40 MLOAD DUP1 SWAP2 SUB SWAP1 REVERT JUMPDEST DUP1 PUSH20 0xFFFFFFFFFFFFFFFFFFFFFFFFFFFFFFFFFFFFFFFF AND PUSH4 0x23B872DD DUP6 DUP6 DUP6 PUSH1 0x40 MLOAD DUP5 PUSH4 0xFFFFFFFF AND PUSH1 0xE0 SHL DUP2 MSTORE PUSH1 0x4 ADD PUSH2 0x7DC SWAP4 SWAP3 SWAP2 SWAP1 PUSH2 0x1823 JUMP JUMPDEST PUSH0 PUSH1 0x40 MLOAD DUP1 DUP4 SUB DUP2 PUSH0 DUP8 DUP1 EXTCODESIZE ISZERO DUP1 ISZERO PUSH2 0x7F3 JUMPI PUSH0 DUP1 REVERT JUMPDEST POP GAS CALL ISZERO DUP1 ISZERO PUSH2 0x805 JUMPI RETURNDATASIZE PUSH0 DUP1 RETURNDATACOPY RETURNDATASIZE PUSH0 REVERT JUMPDEST POP POP POP POP POP POP POP POP JUMP JUMPDEST PUSH0 DUP1 PUSH0 DUP1 ADDRESS PUSH20 0xFFFFFFFFFFFFFFFFFFFFFFFFFFFFFFFFFFFFFFFF AND PUSH4 0xFC0C546A PUSH1 0x40 MLOAD DUP2 PUSH4 0xFFFFFFFF AND PUSH1 0xE0 SHL DUP2 MSTORE PUSH1 0x4 ADD PUSH1 0x60 PUSH1 0x40 MLOAD DUP1 DUP4 SUB DUP2 DUP7 GAS STATICCALL ISZERO DUP1 ISZERO PUSH2 0x85C JUMPI RETURNDATASIZE PUSH0 DUP1 RETURNDATACOPY RETURNDATASIZE PUSH0 REVERT JUMPDEST POP POP POP POP PUSH1 0x40 MLOAD RETURNDATASIZE PUSH1 0x1F NOT PUSH1 0x1F DUP3 ADD AND DUP3 ADD DUP1 PUSH1 0x40 MSTORE POP DUP2 ADD SWAP1 PUSH2 0x880 SWAP2 SWAP1 PUSH2 0x1880 JUMP JUMPDEST SWAP3 POP SWAP3 POP SWAP3 POP CHAINID DUP4 EQ PUSH2 0x898 JUMPI PUSH0 SWAP4 POP POP POP POP PUSH2 0x916 JUMP JUMPDEST DUP2 PUSH20 0xFFFFFFFFFFFFFFFFFFFFFFFFFFFFFFFFFFFFFFFF AND PUSH4 0x6352211E DUP3 PUSH1 0x40 MLOAD DUP3 PUSH4 0xFFFFFFFF AND PUSH1 0xE0 SHL DUP2 MSTORE PUSH1 0x4 ADD PUSH2 0x8D1 SWAP2 SWAP1 PUSH2 0x16D0 JUMP JUMPDEST PUSH1 0x20 PUSH1 0x40 MLOAD DUP1 DUP4 SUB DUP2 DUP7 GAS STATICCALL ISZERO DUP1 ISZERO PUSH2 0x8EC JUMPI RETURNDATASIZE PUSH0 DUP1 RETURNDATACOPY RETURNDATASIZE PUSH0 REVERT JUMPDEST POP POP POP POP PUSH1 0x40 MLOAD RETURNDATASIZE PUSH1 0x1F NOT PUSH1 0x1F DUP3 ADD AND DUP3 ADD DUP1 PUSH1 0x40 MSTORE POP DUP2 ADD SWAP1 PUSH2 0x910 SWAP2 SWAP1 PUSH2 0x18D0 JUMP JUMPDEST SWAP4 POP POP POP POP JUMPDEST SWAP1 JUMP JUMPDEST PUSH2 0x921 PUSH2 0x80F JUMP JUMPDEST PUSH20 0xFFFFFFFFFFFFFFFFFFFFFFFFFFFFFFFFFFFFFFFF AND CALLER PUSH20 0xFFFFFFFFFFFFFFFFFFFFFFFFFFFFFFFFFFFFFFFF AND EQ PUSH2 0x98E JUMPI PUSH1 0x40 MLOAD PUSH32 0x8C379A000000000000000000000000000000000000000000000000000000000 DUP2 MSTORE PUSH1 0x4 ADD PUSH2 0x985 SWAP1 PUSH2 0x1778 JUMP JUMPDEST PUSH1 0x40 MLOAD DUP1 SWAP2 SUB SWAP1 REVERT JUMPDEST DUP1 PUSH20 0xFFFFFFFFFFFFFFFFFFFFFFFFFFFFFFFFFFFFFFFF AND PUSH4 0x95EA7B3 DUP5 DUP5 PUSH1 0x40 MLOAD DUP4 PUSH4 0xFFFFFFFF AND PUSH1 0xE0 SHL DUP2 MSTORE PUSH1 0x4 ADD PUSH2 0x9C9 SWAP3 SWAP2 SWAP1 PUSH2 0x17BD JUMP JUMPDEST PUSH0 PUSH1 0x40 MLOAD DUP1 DUP4 SUB DUP2 PUSH0 DUP8 DUP1 EXTCODESIZE ISZERO DUP1 ISZERO PUSH2 0x9E0 JUMPI PUSH0 DUP1 REVERT JUMPDEST POP GAS CALL ISZERO DUP1 ISZERO PUSH2 0x9F2 JUMPI RETURNDATASIZE PUSH0 DUP1 RETURNDATACOPY RETURNDATASIZE PUSH0 REVERT JUMPDEST POP POP POP POP POP POP POP JUMP JUMPDEST PUSH1 0x60 PUSH2 0xA05 PUSH2 0x80F JUMP JUMPDEST PUSH20 0xFFFFFFFFFFFFFFFFFFFFFFFFFFFFFFFFFFFFFFFF AND CALLER PUSH20 0xFFFFFFFFFFFFFFFFFFFFFFFFFFFFFFFFFFFFFFFF AND EQ PUSH2 0xA72 JUMPI PUSH1 0x40 MLOAD PUSH32 0x8C379A000000000000000000000000000000000000000000000000000000000 DUP2 MSTORE PUSH1 0x4 ADD PUSH2 0xA69 SWAP1 PUSH2 0x1778 JUMP JUMPDEST PUSH1 0x40 MLOAD DUP1 SWAP2 SUB SWAP1 REVERT JUMPDEST PUSH0 DUP1 DUP2 SLOAD PUSH2 0xA7F SWAP1 PUSH2 0x1928 JUMP JUMPDEST SWAP2 SWAP1 POP DUP2 SWAP1 SSTORE POP DUP4 DUP6 PUSH20 0xFFFFFFFFFFFFFFFFFFFFFFFFFFFFFFFFFFFFFFFF AND PUSH32 0x47D99AD340F52DA66535AFF7E10DA1CEB85A32BCBD9FA1C42314D194545E14D2 DUP6 DUP6 PUSH1 0x40 MLOAD PUSH2 0xACF SWAP3 SWAP2 SWAP1 PUSH2 0x199B JUMP JUMPDEST PUSH1 0x40 MLOAD DUP1 SWAP2 SUB SWAP1 LOG3 PUSH0 DUP6 PUSH20 0xFFFFFFFFFFFFFFFFFFFFFFFFFFFFFFFFFFFFFFFF AND DUP6 DUP6 DUP6 PUSH1 0x40 MLOAD PUSH2 0xB00 SWAP3 SWAP2 SWAP1 PUSH2 0x19EB JUMP JUMPDEST PUSH0 PUSH1 0x40 MLOAD DUP1 DUP4 SUB DUP2 DUP6 DUP8 GAS CALL SWAP3 POP POP POP RETURNDATASIZE DUP1 PUSH0 DUP2 EQ PUSH2 0xB3A JUMPI PUSH1 0x40 MLOAD SWAP2 POP PUSH1 0x1F NOT PUSH1 0x3F RETURNDATASIZE ADD AND DUP3 ADD PUSH1 0x40 MSTORE RETURNDATASIZE DUP3 MSTORE RETURNDATASIZE PUSH0 PUSH1 0x20 DUP5 ADD RETURNDATACOPY PUSH2 0xB3F JUMP JUMPDEST PUSH1 0x60 SWAP2 POP JUMPDEST POP DUP1 SWAP4 POP DUP2 SWAP3 POP POP POP DUP1 PUSH2 0xB55 JUMPI DUP2 MLOAD PUSH1 0x20 DUP4 ADD REVERT JUMPDEST POP SWAP5 SWAP4 POP POP POP POP JUMP JUMPDEST PUSH0 PUSH2 0xB67 PUSH2 0x80F JUMP JUMPDEST PUSH20 0xFFFFFFFFFFFFFFFFFFFFFFFFFFFFFFFFFFFFFFFF AND CALLER PUSH20 0xFFFFFFFFFFFFFFFFFFFFFFFFFFFFFFFFFFFFFFFF AND EQ PUSH2 0xBD4 JUMPI PUSH1 0x40 MLOAD PUSH32 0x8C379A000000000000000000000000000000000000000000000000000000000 DUP2 MSTORE PUSH1 0x4 ADD PUSH2 0xBCB SWAP1 PUSH2 0x1778 JUMP JUMPDEST PUSH1 0x40 MLOAD DUP1 SWAP2 SUB SWAP1 REVERT JUMPDEST DUP2 PUSH20 0xFFFFFFFFFFFFFFFFFFFFFFFFFFFFFFFFFFFFFFFF AND PUSH4 0x23B872DD DUP7 DUP7 DUP7 PUSH1 0x40 MLOAD DUP5 PUSH4 0xFFFFFFFF AND PUSH1 0xE0 SHL DUP2 MSTORE PUSH1 0x4 ADD PUSH2 0xC11 SWAP4 SWAP3 SWAP2 SWAP1 PUSH2 0x1823 JUMP JUMPDEST PUSH1 0x20 PUSH1 0x40 MLOAD DUP1 DUP4 SUB DUP2 PUSH0 DUP8 GAS CALL ISZERO DUP1 ISZERO PUSH2 0xC2D JUMPI RETURNDATASIZE PUSH0 DUP1 RETURNDATACOPY RETURNDATASIZE PUSH0 REVERT JUMPDEST POP POP POP POP PUSH1 0x40 MLOAD RETURNDATASIZE PUSH1 0x1F NOT PUSH1 0x1F DUP3 ADD AND DUP3 ADD DUP1 PUSH1 0x40 MSTORE POP DUP2 ADD SWAP1 PUSH2 0xC51 SWAP2 SWAP1 PUSH2 0x17F8 JUMP JUMPDEST SWAP1 POP SWAP5 SWAP4 POP POP POP POP JUMP JUMPDEST PUSH0 SLOAD DUP2 JUMP JUMPDEST PUSH2 0xC68 PUSH2 0x80F JUMP JUMPDEST PUSH20 0xFFFFFFFFFFFFFFFFFFFFFFFFFFFFFFFFFFFFFFFF AND CALLER PUSH20 0xFFFFFFFFFFFFFFFFFFFFFFFFFFFFFFFFFFFFFFFF AND EQ PUSH2 0xCD5 JUMPI PUSH1 0x40 MLOAD PUSH32 0x8C379A000000000000000000000000000000000000000000000000000000000 DUP2 MSTORE PUSH1 0x4 ADD PUSH2 0xCCC SWAP1 PUSH2 0x1778 JUMP JUMPDEST PUSH1 0x40 MLOAD DUP1 SWAP2 SUB SWAP1 REVERT JUMPDEST DUP1 PUSH20 0xFFFFFFFFFFFFFFFFFFFFFFFFFFFFFFFFFFFFFFFF AND PUSH4 0x42842E0E DUP6 DUP6 DUP6 PUSH1 0x40 MLOAD DUP5 PUSH4 0xFFFFFFFF AND PUSH1 0xE0 SHL DUP2 MSTORE PUSH1 0x4 ADD PUSH2 0xD12 SWAP4 SWAP3 SWAP2 SWAP1 PUSH2 0x1823 JUMP JUMPDEST PUSH0 PUSH1 0x40 MLOAD DUP1 DUP4 SUB DUP2 PUSH0 DUP8 DUP1 EXTCODESIZE ISZERO DUP1 ISZERO PUSH2 0xD29 JUMPI PUSH0 DUP1 REVERT JUMPDEST POP GAS CALL ISZERO DUP1 ISZERO PUSH2 0xD3B JUMPI RETURNDATASIZE PUSH0 DUP1 RETURNDATACOPY RETURNDATASIZE PUSH0 REVERT JUMPDEST POP POP POP POP POP POP POP POP JUMP JUMPDEST PUSH0 DUP1 PUSH0 PUSH2 0xD50 PUSH2 0xDE8 JUMP JUMPDEST SWAP3 POP SWAP3 POP SWAP3 POP SWAP1 SWAP2 SWAP3 JUMP JUMPDEST PUSH0 DUP1 PUSH0 PUSH2 0xD68 DUP6 DUP6 PUSH2 0xE66 JUMP JUMPDEST POP SWAP2 POP SWAP2 POP PUSH0 PUSH1 0x3 DUP2 GT ISZERO PUSH2 0xD80 JUMPI PUSH2 0xD7F PUSH2 0x1A03 JUMP JUMPDEST JUMPDEST DUP2 PUSH1 0x3 DUP2 GT ISZERO PUSH2 0xD93 JUMPI PUSH2 0xD92 PUSH2 0x1A03 JUMP JUMPDEST JUMPDEST EQ DUP1 ISZERO PUSH2 0xDCB JUMPI POP DUP6 PUSH20 0xFFFFFFFFFFFFFFFFFFFFFFFFFFFFFFFFFFFFFFFF AND DUP3 PUSH20 0xFFFFFFFFFFFFFFFFFFFFFFFFFFFFFFFFFFFFFFFF AND EQ JUMPDEST DUP1 PUSH2 0xDDD JUMPI POP PUSH2 0xDDC DUP7 DUP7 DUP7 PUSH2 0xEBB JUMP JUMPDEST JUMPDEST SWAP3 POP POP POP SWAP4 SWAP3 POP POP POP JUMP JUMPDEST PUSH0 DUP1 PUSH0 DUP1 PUSH1 0x60 PUSH8 0xFFFFFFFFFFFFFFFF DUP2 GT ISZERO PUSH2 0xE07 JUMPI PUSH2 0xE06 PUSH2 0x12A4 JUMP JUMPDEST JUMPDEST PUSH1 0x40 MLOAD SWAP1 DUP1 DUP3 MSTORE DUP1 PUSH1 0x1F ADD PUSH1 0x1F NOT AND PUSH1 0x20 ADD DUP3 ADD PUSH1 0x40 MSTORE DUP1 ISZERO PUSH2 0xE39 JUMPI DUP2 PUSH1 0x20 ADD PUSH1 0x1 DUP3 MUL DUP1 CALLDATASIZE DUP4 CALLDATACOPY DUP1 DUP3 ADD SWAP2 POP POP SWAP1 POP JUMPDEST POP SWAP1 POP PUSH1 0x60 PUSH1 0x4D PUSH1 0x20 DUP4 ADD ADDRESS EXTCODECOPY DUP1 DUP1 PUSH1 0x20 ADD SWAP1 MLOAD DUP2 ADD SWAP1 PUSH2 0xE5A SWAP2 SWAP1 PUSH2 0x1A6B JUMP JUMPDEST SWAP4 POP SWAP4 POP SWAP4 POP POP SWAP1 SWAP2 SWAP3 JUMP JUMPDEST PUSH0 DUP1 PUSH0 PUSH1 0x41 DUP5 MLOAD SUB PUSH2 0xEA6 JUMPI PUSH0 DUP1 PUSH0 PUSH1 0x20 DUP8 ADD MLOAD SWAP3 POP PUSH1 0x40 DUP8 ADD MLOAD SWAP2 POP PUSH1 0x60 DUP8 ADD MLOAD PUSH0 BYTE SWAP1 POP PUSH2 0xE98 DUP9 DUP3 DUP6 DUP6 PUSH2 0xFDA JUMP JUMPDEST SWAP6 POP SWAP6 POP SWAP6 POP POP POP POP PUSH2 0xEB4 JUMP JUMPDEST PUSH0 PUSH1 0x2 DUP6 MLOAD PUSH0 SHL SWAP3 POP SWAP3 POP SWAP3 POP JUMPDEST SWAP3 POP SWAP3 POP SWAP3 JUMP JUMPDEST PUSH0 DUP1 PUSH0 DUP6 PUSH20 0xFFFFFFFFFFFFFFFFFFFFFFFFFFFFFFFFFFFFFFFF AND DUP6 DUP6 PUSH1 0x40 MLOAD PUSH1 0x24 ADD PUSH2 0xEE8 SWAP3 SWAP2 SWAP1 PUSH2 0x1ACA JUMP JUMPDEST PUSH1 0x40 MLOAD PUSH1 0x20 DUP2 DUP4 SUB SUB DUP2 MSTORE SWAP1 PUSH1 0x40 MSTORE PUSH4 0x1626BA7E PUSH1 0xE0 SHL PUSH1 0x20 DUP3 ADD DUP1 MLOAD PUSH28 0xFFFFFFFFFFFFFFFFFFFFFFFFFFFFFFFFFFFFFFFFFFFFFFFFFFFFFFFF DUP4 DUP2 DUP4 AND OR DUP4 MSTORE POP POP POP POP PUSH1 0x40 MLOAD PUSH2 0xF3A SWAP2 SWAP1 PUSH2 0x1B28 JUMP JUMPDEST PUSH0 PUSH1 0x40 MLOAD DUP1 DUP4 SUB DUP2 DUP6 GAS STATICCALL SWAP2 POP POP RETURNDATASIZE DUP1 PUSH0 DUP2 EQ PUSH2 0xF72 JUMPI PUSH1 0x40 MLOAD SWAP2 POP PUSH1 0x1F NOT PUSH1 0x3F RETURNDATASIZE ADD AND DUP3 ADD PUSH1 0x40 MSTORE RETURNDATASIZE DUP3 MSTORE RETURNDATASIZE PUSH0 PUSH1 0x20 DUP5 ADD RETURNDATACOPY PUSH2 0xF77 JUMP JUMPDEST PUSH1 0x60 SWAP2 POP JUMPDEST POP SWAP2 POP SWAP2 POP DUP2 DUP1 ISZERO PUSH2 0xF8B JUMPI POP PUSH1 0x20 DUP2 MLOAD LT ISZERO JUMPDEST DUP1 ISZERO PUSH2 0xFCF JUMPI POP PUSH4 0x1626BA7E PUSH1 0xE0 SHL PUSH28 0xFFFFFFFFFFFFFFFFFFFFFFFFFFFFFFFFFFFFFFFFFFFFFFFFFFFFFFFF NOT AND DUP2 DUP1 PUSH1 0x20 ADD SWAP1 MLOAD DUP2 ADD SWAP1 PUSH2 0xFCD SWAP2 SWAP1 PUSH2 0x1B52 JUMP JUMPDEST EQ JUMPDEST SWAP3 POP POP POP SWAP4 SWAP3 POP POP POP JUMP JUMPDEST PUSH0 DUP1 PUSH0 PUSH32 0x7FFFFFFFFFFFFFFFFFFFFFFFFFFFFFFF5D576E7357A4501DDFE92F46681B20A0 DUP5 PUSH0 SHR GT ISZERO PUSH2 0x1016 JUMPI PUSH0 PUSH1 0x3 DUP6 SWAP3 POP SWAP3 POP SWAP3 POP PUSH2 0x10B7 JUMP JUMPDEST PUSH0 PUSH1 0x1 DUP9 DUP9 DUP9 DUP9 PUSH1 0x40 MLOAD PUSH0 DUP2 MSTORE PUSH1 0x20 ADD PUSH1 0x40 MSTORE PUSH1 0x40 MLOAD PUSH2 0x1039 SWAP5 SWAP4 SWAP3 SWAP2 SWAP1 PUSH2 0x1B98 JUMP JUMPDEST PUSH1 0x20 PUSH1 0x40 MLOAD PUSH1 0x20 DUP2 SUB SWAP1 DUP1 DUP5 SUB SWAP1 DUP6 GAS STATICCALL ISZERO DUP1 ISZERO PUSH2 0x1059 JUMPI RETURNDATASIZE PUSH0 DUP1 RETURNDATACOPY RETURNDATASIZE PUSH0 REVERT JUMPDEST POP POP POP PUSH1 0x20 PUSH1 0x40 MLOAD SUB MLOAD SWAP1 POP PUSH0 PUSH20 0xFFFFFFFFFFFFFFFFFFFFFFFFFFFFFFFFFFFFFFFF AND DUP2 PUSH20 0xFFFFFFFFFFFFFFFFFFFFFFFFFFFFFFFFFFFFFFFF AND SUB PUSH2 0x10AA JUMPI PUSH0 PUSH1 0x1 PUSH0 DUP1 SHL SWAP4 POP SWAP4 POP SWAP4 POP POP PUSH2 0x10B7 JUMP JUMPDEST DUP1 PUSH0 DUP1 PUSH0 SHL SWAP4 POP SWAP4 POP SWAP4 POP POP JUMPDEST SWAP5 POP SWAP5 POP SWAP5 SWAP2 POP POP JUMP JUMPDEST PUSH0 PUSH1 0x40 MLOAD SWAP1 POP SWAP1 JUMP JUMPDEST PUSH0 DUP1 REVERT JUMPDEST PUSH0 DUP1 REVERT JUMPDEST PUSH0 PUSH32 0xFFFFFFFF00000000000000000000000000000000000000000000000000000000 DUP3 AND SWAP1 POP SWAP2 SWAP1 POP JUMP JUMPDEST PUSH2 0x1106 DUP2 PUSH2 0x10D2 JUMP JUMPDEST DUP2 EQ PUSH2 0x1110 JUMPI PUSH0 DUP1 REVERT JUMPDEST POP JUMP JUMPDEST PUSH0 DUP2 CALLDATALOAD SWAP1 POP PUSH2 0x1121 DUP2 PUSH2 0x10FD JUMP JUMPDEST SWAP3 SWAP2 POP POP JUMP JUMPDEST PUSH0 PUSH1 0x20 DUP3 DUP5 SUB SLT ISZERO PUSH2 0x113C JUMPI PUSH2 0x113B PUSH2 0x10CA JUMP JUMPDEST JUMPDEST PUSH0 PUSH2 0x1149 DUP5 DUP3 DUP6 ADD PUSH2 0x1113 JUMP JUMPDEST SWAP2 POP POP SWAP3 SWAP2 POP POP JUMP JUMPDEST PUSH0 DUP2 ISZERO ISZERO SWAP1 POP SWAP2 SWAP1 POP JUMP JUMPDEST PUSH2 0x1166 DUP2 PUSH2 0x1152 JUMP JUMPDEST DUP3 MSTORE POP POP JUMP JUMPDEST PUSH0 PUSH1 0x20 DUP3 ADD SWAP1 POP PUSH2 0x117F PUSH0 DUP4 ADD DUP5 PUSH2 0x115D JUMP JUMPDEST SWAP3 SWAP2 POP POP JUMP JUMPDEST PUSH0 PUSH20 0xFFFFFFFFFFFFFFFFFFFFFFFFFFFFFFFFFFFFFFFF DUP3 AND SWAP1 POP SWAP2 SWAP1 POP JUMP JUMPDEST PUSH0 PUSH2 0x11AE DUP3 PUSH2 0x1185 JUMP JUMPDEST SWAP1 POP SWAP2 SWAP1 POP JUMP JUMPDEST PUSH2 0x11BE DUP2 PUSH2 0x11A4 JUMP JUMPDEST DUP2 EQ PUSH2 0x11C8 JUMPI PUSH0 DUP1 REVERT JUMPDEST POP JUMP JUMPDEST PUSH0 DUP2 CALLDATALOAD SWAP1 POP PUSH2 0x11D9 DUP2 PUSH2 0x11B5 JUMP JUMPDEST SWAP3 SWAP2 POP POP JUMP JUMPDEST PUSH2 0x11E8 DUP2 PUSH2 0x1152 JUMP JUMPDEST DUP2 EQ PUSH2 0x11F2 JUMPI PUSH0 DUP1 REVERT JUMPDEST POP JUMP JUMPDEST PUSH0 DUP2 CALLDATALOAD SWAP1 POP PUSH2 0x1203 DUP2 PUSH2 0x11DF JUMP JUMPDEST SWAP3 SWAP2 POP POP JUMP JUMPDEST PUSH0 DUP1 PUSH0 PUSH1 0x60 DUP5 DUP7 SUB SLT ISZERO PUSH2 0x1220 JUMPI PUSH2 0x121F PUSH2 0x10CA JUMP JUMPDEST JUMPDEST PUSH0 PUSH2 0x122D DUP7 DUP3 DUP8 ADD PUSH2 0x11CB JUMP JUMPDEST SWAP4 POP POP PUSH1 0x20 PUSH2 0x123E DUP7 DUP3 DUP8 ADD PUSH2 0x11F5 JUMP JUMPDEST SWAP3 POP POP PUSH1 0x40 PUSH2 0x124F DUP7 DUP3 DUP8 ADD PUSH2 0x11CB JUMP JUMPDEST SWAP2 POP POP SWAP3 POP SWAP3 POP SWAP3 JUMP JUMPDEST PUSH0 DUP2 SWAP1 POP SWAP2 SWAP1 POP JUMP JUMPDEST PUSH2 0x126B DUP2 PUSH2 0x1259 JUMP JUMPDEST DUP2 EQ PUSH2 0x1275 JUMPI PUSH0 DUP1 REVERT JUMPDEST POP JUMP JUMPDEST PUSH0 DUP2 CALLDATALOAD SWAP1 POP PUSH2 0x1286 DUP2 PUSH2 0x1262 JUMP JUMPDEST SWAP3 SWAP2 POP POP JUMP JUMPDEST PUSH0 DUP1 REVERT JUMPDEST PUSH0 DUP1 REVERT JUMPDEST PUSH0 PUSH1 0x1F NOT PUSH1 0x1F DUP4 ADD AND SWAP1 POP SWAP2 SWAP1 POP JUMP JUMPDEST PUSH32 0x4E487B7100000000000000000000000000000000000000000000000000000000 PUSH0 MSTORE PUSH1 0x41 PUSH1 0x4 MSTORE PUSH1 0x24 PUSH0 REVERT JUMPDEST PUSH2 0x12DA DUP3 PUSH2 0x1294 JUMP JUMPDEST DUP2 ADD DUP2 DUP2 LT PUSH8 0xFFFFFFFFFFFFFFFF DUP3 GT OR ISZERO PUSH2 0x12F9 JUMPI PUSH2 0x12F8 PUSH2 0x12A4 JUMP JUMPDEST JUMPDEST DUP1 PUSH1 0x40 MSTORE POP POP POP JUMP JUMPDEST PUSH0 PUSH2 0x130B PUSH2 0x10C1 JUMP JUMPDEST SWAP1 POP PUSH2 0x1317 DUP3 DUP3 PUSH2 0x12D1 JUMP JUMPDEST SWAP2 SWAP1 POP JUMP JUMPDEST PUSH0 PUSH8 0xFFFFFFFFFFFFFFFF DUP3 GT ISZERO PUSH2 0x1336 JUMPI PUSH2 0x1335 PUSH2 0x12A4 JUMP JUMPDEST JUMPDEST PUSH2 0x133F DUP3 PUSH2 0x1294 JUMP JUMPDEST SWAP1 POP PUSH1 0x20 DUP2 ADD SWAP1 POP SWAP2 SWAP1 POP JUMP JUMPDEST DUP3 DUP2 DUP4 CALLDATACOPY PUSH0 DUP4 DUP4 ADD MSTORE POP POP POP JUMP JUMPDEST PUSH0 PUSH2 0x136C PUSH2 0x1367 DUP5 PUSH2 0x131C JUMP JUMPDEST PUSH2 0x1302 JUMP JUMPDEST SWAP1 POP DUP3 DUP2 MSTORE PUSH1 0x20 DUP2 ADD DUP5 DUP5 DUP5 ADD GT ISZERO PUSH2 0x1388 JUMPI PUSH2 0x1387 PUSH2 0x1290 JUMP JUMPDEST JUMPDEST PUSH2 0x1393 DUP5 DUP3 DUP6 PUSH2 0x134C JUMP JUMPDEST POP SWAP4 SWAP3 POP POP POP JUMP JUMPDEST PUSH0 DUP3 PUSH1 0x1F DUP4 ADD SLT PUSH2 0x13AF JUMPI PUSH2 0x13AE PUSH2 0x128C JUMP JUMPDEST JUMPDEST DUP2 CALLDATALOAD PUSH2 0x13BF DUP5 DUP3 PUSH1 0x20 DUP7 ADD PUSH2 0x135A JUMP JUMPDEST SWAP2 POP POP SWAP3 SWAP2 POP POP JUMP JUMPDEST PUSH0 DUP1 PUSH1 0x40 DUP4 DUP6 SUB SLT ISZERO PUSH2 0x13DE JUMPI PUSH2 0x13DD PUSH2 0x10CA JUMP JUMPDEST JUMPDEST PUSH0 PUSH2 0x13EB DUP6 DUP3 DUP7 ADD PUSH2 0x1278 JUMP JUMPDEST SWAP3 POP POP PUSH1 0x20 DUP4 ADD CALLDATALOAD PUSH8 0xFFFFFFFFFFFFFFFF DUP2 GT ISZERO PUSH2 0x140C JUMPI PUSH2 0x140B PUSH2 0x10CE JUMP JUMPDEST JUMPDEST PUSH2 0x1418 DUP6 DUP3 DUP7 ADD PUSH2 0x139B JUMP JUMPDEST SWAP2 POP POP SWAP3 POP SWAP3 SWAP1 POP JUMP JUMPDEST PUSH2 0x142B DUP2 PUSH2 0x10D2 JUMP JUMPDEST DUP3 MSTORE POP POP JUMP JUMPDEST PUSH0 PUSH1 0x20 DUP3 ADD SWAP1 POP PUSH2 0x1444 PUSH0 DUP4 ADD DUP5 PUSH2 0x1422 JUMP JUMPDEST SWAP3 SWAP2 POP POP JUMP JUMPDEST PUSH0 DUP2 SWAP1 POP SWAP2 SWAP1 POP JUMP JUMPDEST PUSH2 0x145C DUP2 PUSH2 0x144A JUMP JUMPDEST DUP2 EQ PUSH2 0x1466 JUMPI PUSH0 DUP1 REVERT JUMPDEST POP JUMP JUMPDEST PUSH0 DUP2 CALLDATALOAD SWAP1 POP PUSH2 0x1477 DUP2 PUSH2 0x1453 JUMP JUMPDEST SWAP3 SWAP2 POP POP JUMP JUMPDEST PUSH0 DUP1 PUSH0 PUSH1 0x60 DUP5 DUP7 SUB SLT ISZERO PUSH2 0x1494 JUMPI PUSH2 0x1493 PUSH2 0x10CA JUMP JUMPDEST JUMPDEST PUSH0 PUSH2 0x14A1 DUP7 DUP3 DUP8 ADD PUSH2 0x11CB JUMP JUMPDEST SWAP4 POP POP PUSH1 0x20 PUSH2 0x14B2 DUP7 DUP3 DUP8 ADD PUSH2 0x1469 JUMP JUMPDEST SWAP3 POP POP PUSH1 0x40 PUSH2 0x14C3 DUP7 DUP3 DUP8 ADD PUSH2 0x11CB JUMP JUMPDEST SWAP2 POP POP SWAP3 POP SWAP3 POP SWAP3 JUMP JUMPDEST PUSH0 DUP1 PUSH0 DUP1 PUSH1 0x80 DUP6 DUP8 SUB SLT ISZERO PUSH2 0x14E5 JUMPI PUSH2 0x14E4 PUSH2 0x10CA JUMP JUMPDEST JUMPDEST PUSH0 PUSH2 0x14F2 DUP8 DUP3 DUP9 ADD PUSH2 0x11CB JUMP JUMPDEST SWAP5 POP POP PUSH1 0x20 PUSH2 0x1503 DUP8 DUP3 DUP9 ADD PUSH2 0x11CB JUMP JUMPDEST SWAP4 POP POP PUSH1 0x40 PUSH2 0x1514 DUP8 DUP3 DUP9 ADD PUSH2 0x1469 JUMP JUMPDEST SWAP3 POP POP PUSH1 0x60 PUSH2 0x1525 DUP8 DUP3 DUP9 ADD PUSH2 0x11CB JUMP JUMPDEST SWAP2 POP POP SWAP3 SWAP6 SWAP2 SWAP5 POP SWAP3 POP JUMP JUMPDEST PUSH2 0x153A DUP2 PUSH2 0x11A4 JUMP JUMPDEST DUP3 MSTORE POP POP JUMP JUMPDEST PUSH0 PUSH1 0x20 DUP3 ADD SWAP1 POP PUSH2 0x1553 PUSH0 DUP4 ADD DUP5 PUSH2 0x1531 JUMP JUMPDEST SWAP3 SWAP2 POP POP JUMP JUMPDEST PUSH0 DUP1 REVERT JUMPDEST PUSH0 DUP1 REVERT JUMPDEST PUSH0 DUP1 DUP4 PUSH1 0x1F DUP5 ADD SLT PUSH2 0x1576 JUMPI PUSH2 0x1575 PUSH2 0x128C JUMP JUMPDEST JUMPDEST DUP3 CALLDATALOAD SWAP1 POP PUSH8 0xFFFFFFFFFFFFFFFF DUP2 GT ISZERO PUSH2 0x1593 JUMPI PUSH2 0x1592 PUSH2 0x1559 JUMP JUMPDEST JUMPDEST PUSH1 0x20 DUP4 ADD SWAP2 POP DUP4 PUSH1 0x1 DUP3 MUL DUP4 ADD GT ISZERO PUSH2 0x15AF JUMPI PUSH2 0x15AE PUSH2 0x155D JUMP JUMPDEST JUMPDEST SWAP3 POP SWAP3 SWAP1 POP JUMP JUMPDEST PUSH0 DUP1 PUSH0 DUP1 PUSH1 0x60 DUP6 DUP8 SUB SLT ISZERO PUSH2 0x15CE JUMPI PUSH2 0x15CD PUSH2 0x10CA JUMP JUMPDEST JUMPDEST PUSH0 PUSH2 0x15DB DUP8 DUP3 DUP9 ADD PUSH2 0x11CB JUMP JUMPDEST SWAP5 POP POP PUSH1 0x20 PUSH2 0x15EC DUP8 DUP3 DUP9 ADD PUSH2 0x1469 JUMP JUMPDEST SWAP4 POP POP PUSH1 0x40 DUP6 ADD CALLDATALOAD PUSH8 0xFFFFFFFFFFFFFFFF DUP2 GT ISZERO PUSH2 0x160D JUMPI PUSH2 0x160C PUSH2 0x10CE JUMP JUMPDEST JUMPDEST PUSH2 0x1619 DUP8 DUP3 DUP9 ADD PUSH2 0x1561 JUMP JUMPDEST SWAP3 POP SWAP3 POP POP SWAP3 SWAP6 SWAP2 SWAP5 POP SWAP3 POP JUMP JUMPDEST PUSH0 DUP2 MLOAD SWAP1 POP SWAP2 SWAP1 POP JUMP JUMPDEST PUSH0 DUP3 DUP3 MSTORE PUSH1 0x20 DUP3 ADD SWAP1 POP SWAP3 SWAP2 POP POP JUMP JUMPDEST PUSH0 JUMPDEST DUP4 DUP2 LT ISZERO PUSH2 0x165E JUMPI DUP1 DUP3 ADD MLOAD DUP2 DUP5 ADD MSTORE PUSH1 0x20 DUP2 ADD SWAP1 POP PUSH2 0x1643 JUMP JUMPDEST PUSH0 DUP5 DUP5 ADD MSTORE POP POP POP POP JUMP JUMPDEST PUSH0 PUSH2 0x1673 DUP3 PUSH2 0x1627 JUMP JUMPDEST PUSH2 0x167D DUP2 DUP6 PUSH2 0x1631 JUMP JUMPDEST SWAP4 POP PUSH2 0x168D DUP2 DUP6 PUSH1 0x20 DUP7 ADD PUSH2 0x1641 JUMP JUMPDEST PUSH2 0x1696 DUP2 PUSH2 0x1294 JUMP JUMPDEST DUP5 ADD SWAP2 POP POP SWAP3 SWAP2 POP POP JUMP JUMPDEST PUSH0 PUSH1 0x20 DUP3 ADD SWAP1 POP DUP2 DUP2 SUB PUSH0 DUP4 ADD MSTORE PUSH2 0x16B9 DUP2 DUP5 PUSH2 0x1669 JUMP JUMPDEST SWAP1 POP SWAP3 SWAP2 POP POP JUMP JUMPDEST PUSH2 0x16CA DUP2 PUSH2 0x144A JUMP JUMPDEST DUP3 MSTORE POP POP JUMP JUMPDEST PUSH0 PUSH1 0x20 DUP3 ADD SWAP1 POP PUSH2 0x16E3 PUSH0 DUP4 ADD DUP5 PUSH2 0x16C1 JUMP JUMPDEST SWAP3 SWAP2 POP POP JUMP JUMPDEST PUSH0 PUSH1 0x60 DUP3 ADD SWAP1 POP PUSH2 0x16FC PUSH0 DUP4 ADD DUP7 PUSH2 0x16C1 JUMP JUMPDEST PUSH2 0x1709 PUSH1 0x20 DUP4 ADD DUP6 PUSH2 0x1531 JUMP JUMPDEST PUSH2 0x1716 PUSH1 0x40 DUP4 ADD DUP5 PUSH2 0x16C1 JUMP JUMPDEST SWAP5 SWAP4 POP POP POP POP JUMP JUMPDEST PUSH0 DUP3 DUP3 MSTORE PUSH1 0x20 DUP3 ADD SWAP1 POP SWAP3 SWAP2 POP POP JUMP JUMPDEST PUSH32 0x4E6F7420746F6B656E206F776E65720000000000000000000000000000000000 PUSH0 DUP3 ADD MSTORE POP JUMP JUMPDEST PUSH0 PUSH2 0x1762 PUSH1 0xF DUP4 PUSH2 0x171E JUMP JUMPDEST SWAP2 POP PUSH2 0x176D DUP3 PUSH2 0x172E JUMP JUMPDEST PUSH1 0x20 DUP3 ADD SWAP1 POP SWAP2 SWAP1 POP JUMP JUMPDEST PUSH0 PUSH1 0x20 DUP3 ADD SWAP1 POP DUP2 DUP2 SUB PUSH0 DUP4 ADD MSTORE PUSH2 0x178F DUP2 PUSH2 0x1756 JUMP JUMPDEST SWAP1 POP SWAP2 SWAP1 POP JUMP JUMPDEST PUSH0 PUSH1 0x40 DUP3 ADD SWAP1 POP PUSH2 0x17A9 PUSH0 DUP4 ADD DUP6 PUSH2 0x1531 JUMP JUMPDEST PUSH2 0x17B6 PUSH1 0x20 DUP4 ADD DUP5 PUSH2 0x115D JUMP JUMPDEST SWAP4 SWAP3 POP POP POP JUMP JUMPDEST PUSH0 PUSH1 0x40 DUP3 ADD SWAP1 POP PUSH2 0x17D0 PUSH0 DUP4 ADD DUP6 PUSH2 0x1531 JUMP JUMPDEST PUSH2 0x17DD PUSH1 0x20 DUP4 ADD DUP5 PUSH2 0x16C1 JUMP JUMPDEST SWAP4 SWAP3 POP POP POP JUMP JUMPDEST PUSH0 DUP2 MLOAD SWAP1 POP PUSH2 0x17F2 DUP2 PUSH2 0x11DF JUMP JUMPDEST SWAP3 SWAP2 POP POP JUMP JUMPDEST PUSH0 PUSH1 0x20 DUP3 DUP5 SUB SLT ISZERO PUSH2 0x180D JUMPI PUSH2 0x180C PUSH2 0x10CA JUMP JUMPDEST JUMPDEST PUSH0 PUSH2 0x181A DUP5 DUP3 DUP6 ADD PUSH2 0x17E4 JUMP JUMPDEST SWAP2 POP POP SWAP3 SWAP2 POP POP JUMP JUMPDEST PUSH0 PUSH1 0x60 DUP3 ADD SWAP1 POP PUSH2 0x1836 PUSH0 DUP4 ADD DUP7 PUSH2 0x1531 JUMP JUMPDEST PUSH2 0x1843 PUSH1 0x20 DUP4 ADD DUP6 PUSH2 0x1531 JUMP JUMPDEST PUSH2 0x1850 PUSH1 0x40 DUP4 ADD DUP5 PUSH2 0x16C1 JUMP JUMPDEST SWAP5 SWAP4 POP POP POP POP JUMP JUMPDEST PUSH0 DUP2 MLOAD SWAP1 POP PUSH2 0x1866 DUP2 PUSH2 0x1453 JUMP JUMPDEST SWAP3 SWAP2 POP POP JUMP JUMPDEST PUSH0 DUP2 MLOAD SWAP1 POP PUSH2 0x187A DUP2 PUSH2 0x11B5 JUMP JUMPDEST SWAP3 SWAP2 POP POP JUMP JUMPDEST PUSH0 DUP1 PUSH0 PUSH1 0x60 DUP5 DUP7 SUB SLT ISZERO PUSH2 0x1897 JUMPI PUSH2 0x1896 PUSH2 0x10CA JUMP JUMPDEST JUMPDEST PUSH0 PUSH2 0x18A4 DUP7 DUP3 DUP8 ADD PUSH2 0x1858 JUMP JUMPDEST SWAP4 POP POP PUSH1 0x20 PUSH2 0x18B5 DUP7 DUP3 DUP8 ADD PUSH2 0x186C JUMP JUMPDEST SWAP3 POP POP PUSH1 0x40 PUSH2 0x18C6 DUP7 DUP3 DUP8 ADD PUSH2 0x1858 JUMP JUMPDEST SWAP2 POP POP SWAP3 POP SWAP3 POP SWAP3 JUMP JUMPDEST PUSH0 PUSH1 0x20 DUP3 DUP5 SUB SLT ISZERO PUSH2 0x18E5 JUMPI PUSH2 0x18E4 PUSH2 0x10CA JUMP JUMPDEST JUMPDEST PUSH0 PUSH2 0x18F2 DUP5 DUP3 DUP6 ADD PUSH2 0x186C JUMP JUMPDEST SWAP2 POP POP SWAP3 SWAP2 POP POP JUMP JUMPDEST PUSH32 0x4E487B7100000000000000000000000000000000000000000000000000000000 PUSH0 MSTORE PUSH1 0x11 PUSH1 0x4 MSTORE PUSH1 0x24 PUSH0 REVERT JUMPDEST PUSH0 PUSH2 0x1932 DUP3 PUSH2 0x144A JUMP JUMPDEST SWAP2 POP PUSH32 0xFFFFFFFFFFFFFFFFFFFFFFFFFFFFFFFFFFFFFFFFFFFFFFFFFFFFFFFFFFFFFFFF DUP3 SUB PUSH2 0x1964 JUMPI PUSH2 0x1963 PUSH2 0x18FB JUMP JUMPDEST JUMPDEST PUSH1 0x1 DUP3 ADD SWAP1 POP SWAP2 SWAP1 POP JUMP JUMPDEST PUSH0 PUSH2 0x197A DUP4 DUP6 PUSH2 0x1631 JUMP JUMPDEST SWAP4 POP PUSH2 0x1987 DUP4 DUP6 DUP5 PUSH2 0x134C JUMP JUMPDEST PUSH2 0x1990 DUP4 PUSH2 0x1294 JUMP JUMPDEST DUP5 ADD SWAP1 POP SWAP4 SWAP3 POP POP POP JUMP JUMPDEST PUSH0 PUSH1 0x20 DUP3 ADD SWAP1 POP DUP2 DUP2 SUB PUSH0 DUP4 ADD MSTORE PUSH2 0x19B4 DUP2 DUP5 DUP7 PUSH2 0x196F JUMP JUMPDEST SWAP1 POP SWAP4 SWAP3 POP POP POP JUMP JUMPDEST PUSH0 DUP2 SWAP1 POP SWAP3 SWAP2 POP POP JUMP JUMPDEST PUSH0 PUSH2 0x19D2 DUP4 DUP6 PUSH2 0x19BD JUMP JUMPDEST SWAP4 POP PUSH2 0x19DF DUP4 DUP6 DUP5 PUSH2 0x134C JUMP JUMPDEST DUP3 DUP5 ADD SWAP1 POP SWAP4 SWAP3 POP POP POP JUMP JUMPDEST PUSH0 PUSH2 0x19F7 DUP3 DUP5 DUP7 PUSH2 0x19C7 JUMP JUMPDEST SWAP2 POP DUP2 SWAP1 POP SWAP4 SWAP3 POP POP POP JUMP JUMPDEST PUSH32 0x4E487B7100000000000000000000000000000000000000000000000000000000 PUSH0 MSTORE PUSH1 0x21 PUSH1 0x4 MSTORE PUSH1 0x24 PUSH0 REVERT JUMPDEST PUSH0 PUSH2 0x1A3A DUP3 PUSH2 0x1185 JUMP JUMPDEST SWAP1 POP SWAP2 SWAP1 POP JUMP JUMPDEST PUSH2 0x1A4A DUP2 PUSH2 0x1A30 JUMP JUMPDEST DUP2 EQ PUSH2 0x1A54 JUMPI PUSH0 DUP1 REVERT JUMPDEST POP JUMP JUMPDEST PUSH0 DUP2 MLOAD SWAP1 POP PUSH2 0x1A65 DUP2 PUSH2 0x1A41 JUMP JUMPDEST SWAP3 SWAP2 POP POP JUMP JUMPDEST PUSH0 DUP1 PUSH0 PUSH1 0x60 DUP5 DUP7 SUB SLT ISZERO PUSH2 0x1A82 JUMPI PUSH2 0x1A81 PUSH2 0x10CA JUMP JUMPDEST JUMPDEST PUSH0 PUSH2 0x1A8F DUP7 DUP3 DUP8 ADD PUSH2 0x1858 JUMP JUMPDEST SWAP4 POP POP PUSH1 0x20 PUSH2 0x1AA0 DUP7 DUP3 DUP8 ADD PUSH2 0x1A57 JUMP JUMPDEST SWAP3 POP POP PUSH1 0x40 PUSH2 0x1AB1 DUP7 DUP3 DUP8 ADD PUSH2 0x1858 JUMP JUMPDEST SWAP2 POP POP SWAP3 POP SWAP3 POP SWAP3 JUMP JUMPDEST PUSH2 0x1AC4 DUP2 PUSH2 0x1259 JUMP JUMPDEST DUP3 MSTORE POP POP JUMP JUMPDEST PUSH0 PUSH1 0x40 DUP3 ADD SWAP1 POP PUSH2 0x1ADD PUSH0 DUP4 ADD DUP6 PUSH2 0x1ABB JUMP JUMPDEST DUP2 DUP2 SUB PUSH1 0x20 DUP4 ADD MSTORE PUSH2 0x1AEF DUP2 DUP5 PUSH2 0x1669 JUMP JUMPDEST SWAP1 POP SWAP4 SWAP3 POP POP POP JUMP JUMPDEST PUSH0 PUSH2 0x1B02 DUP3 PUSH2 0x1627 JUMP JUMPDEST PUSH2 0x1B0C DUP2 DUP6 PUSH2 0x19BD JUMP JUMPDEST SWAP4 POP PUSH2 0x1B1C DUP2 DUP6 PUSH1 0x20 DUP7 ADD PUSH2 0x1641 JUMP JUMPDEST DUP1 DUP5 ADD SWAP2 POP POP SWAP3 SWAP2 POP POP JUMP JUMPDEST PUSH0 PUSH2 0x1B33 DUP3 DUP5 PUSH2 0x1AF8 JUMP JUMPDEST SWAP2 POP DUP2 SWAP1 POP SWAP3 SWAP2 POP POP JUMP JUMPDEST PUSH0 DUP2 MLOAD SWAP1 POP PUSH2 0x1B4C DUP2 PUSH2 0x1262 JUMP JUMPDEST SWAP3 SWAP2 POP POP JUMP JUMPDEST PUSH0 PUSH1 0x20 DUP3 DUP5 SUB SLT ISZERO PUSH2 0x1B67 JUMPI PUSH2 0x1B66 PUSH2 0x10CA JUMP JUMPDEST JUMPDEST PUSH0 PUSH2 0x1B74 DUP5 DUP3 DUP6 ADD PUSH2 0x1B3E JUMP JUMPDEST SWAP2 POP POP SWAP3 SWAP2 POP POP JUMP JUMPDEST PUSH0 PUSH1 0xFF DUP3 AND SWAP1 POP SWAP2 SWAP1 POP JUMP JUMPDEST PUSH2 0x1B92 DUP2 PUSH2 0x1B7D JUMP JUMPDEST DUP3 MSTORE POP POP JUMP JUMPDEST PUSH0 PUSH1 0x80 DUP3 ADD SWAP1 POP PUSH2 0x1BAB PUSH0 DUP4 ADD DUP8 PUSH2 0x1ABB JUMP JUMPDEST PUSH2 0x1BB8 PUSH1 0x20 DUP4 ADD DUP7 PUSH2 0x1B89 JUMP JUMPDEST PUSH2 0x1BC5 PUSH1 0x40 DUP4 ADD DUP6 PUSH2 0x1ABB JUMP JUMPDEST PUSH2 0x1BD2 PUSH1 0x60 DUP4 ADD DUP5 PUSH2 0x1ABB JUMP JUMPDEST SWAP6 SWAP5 POP POP POP POP POP JUMP INVALID LOG2 PUSH5 0x6970667358 0x22 SLT KECCAK256 0xC7 0xF6 PUSH10 0x30F9B9D30926376A2378 0xE1 DUP13 DUP5 XOR DUP7 JUMPI 0xC9 0xAC PUSH13 0xB4B1CDD063479D8095CC64736F PUSH13 0x63430008180033000000000000 "
				},
				"gasEstimates": {
					"creation": {
						"codeDepositCost": "1437000",
						"executionCost": "1497",
						"totalCost": "1438497"
					},
					"external": {
						"approve20(address,uint256,address)": "infinite",
						"approve721(address,uint256,address)": "infinite",
						"executeCall(address,uint256,bytes)": "infinite",
						"isValidSignature(bytes32,bytes)": "infinite",
						"nonce()": "2468",
						"owner()": "infinite",
						"safeTransferFrom721(address,address,uint256,address)": "infinite",
						"setApprovalForAll721(address,bool,address)": "infinite",
						"supportsInterface(bytes4)": "676",
						"token()": "infinite",
						"transfer20(address,uint256,address)": "infinite",
						"transferFrom20(address,address,uint256,address)": "infinite",
						"transferFrom721(address,address,uint256,address)": "infinite"
					}
				},
				"methodIdentifiers": {
					"approve20(address,uint256,address)": "5f017832",
					"approve721(address,uint256,address)": "954d4b8b",
					"executeCall(address,uint256,bytes)": "9e5d4c49",
					"isValidSignature(bytes32,bytes)": "1626ba7e",
					"nonce()": "affed0e0",
					"owner()": "8da5cb5b",
					"safeTransferFrom721(address,address,uint256,address)": "edf2e40b",
					"setApprovalForAll721(address,bool,address)": "08c22568",
					"supportsInterface(bytes4)": "01ffc9a7",
					"token()": "fc0c546a",
					"transfer20(address,uint256,address)": "4e51f2d9",
					"transferFrom20(address,address,uint256,address)": "a127f00c",
					"transferFrom721(address,address,uint256,address)": "80348fc9"
				}
			},
			"storageLayout": {
				"storage": [
					{
						"astId": 1163,
						"contract": "breeding-nft-usecase/contracts/breedingWith6551/TbaAccount.sol:Account",
						"label": "nonce",
						"offset": 0,
						"slot": "0",
						"type": "t_uint256"
					}
				],
				"types": {
					"t_uint256": {
						"encoding": "inplace",
						"label": "uint256",
						"numberOfBytes": "32"
					}
				}
			},
			"userdoc": {
				"kind": "user",
				"methods": {},
				"version": 1
			}
		}
	}
}